{
  "_format": "hh-sol-artifact-1",
  "contractName": "HAT_TOKEN",
  "sourceName": "contracts/HAT_TOKEN.sol",
  "abi": [
    {
      "inputs": [],
      "stateMutability": "nonpayable",
      "type": "constructor"
    },
    {
      "anonymous": false,
      "inputs": [
        {
          "indexed": true,
          "internalType": "address",
          "name": "owner",
          "type": "address"
        },
        {
          "indexed": true,
          "internalType": "address",
          "name": "spender",
          "type": "address"
        },
        {
          "indexed": false,
          "internalType": "uint256",
          "name": "value",
          "type": "uint256"
        }
      ],
      "name": "Approval",
      "type": "event"
    },
    {
      "anonymous": false,
      "inputs": [
        {
          "indexed": true,
          "internalType": "address",
          "name": "from",
          "type": "address"
        },
        {
          "indexed": true,
          "internalType": "address",
          "name": "to",
          "type": "address"
        },
        {
          "indexed": false,
          "internalType": "uint256",
          "name": "value",
          "type": "uint256"
        }
      ],
      "name": "Transfer",
      "type": "event"
    },
    {
      "inputs": [
        {
          "internalType": "uint256",
          "name": "",
          "type": "uint256"
        }
      ],
      "name": "Contacts",
      "outputs": [
        {
          "internalType": "address",
          "name": "owner",
          "type": "address"
        },
        {
          "internalType": "address",
          "name": "contact_name",
          "type": "address"
        },
        {
          "internalType": "string",
          "name": "name",
          "type": "string"
        },
        {
          "internalType": "string",
          "name": "contact_type",
          "type": "string"
        }
      ],
      "stateMutability": "view",
      "type": "function"
    },
    {
      "inputs": [
        {
          "internalType": "uint256",
          "name": "",
          "type": "uint256"
        }
      ],
      "name": "Employees",
      "outputs": [
        {
          "internalType": "string",
          "name": "name",
          "type": "string"
        },
        {
          "internalType": "string",
          "name": "employeeid",
          "type": "string"
        },
        {
          "internalType": "string",
          "name": "employeerank",
          "type": "string"
        },
        {
          "internalType": "string",
          "name": "employeegroup",
          "type": "string"
        }
      ],
      "stateMutability": "view",
      "type": "function"
    },
    {
      "inputs": [
        {
          "internalType": "uint256",
          "name": "",
          "type": "uint256"
        }
      ],
      "name": "Transactions",
      "outputs": [
        {
          "internalType": "address",
          "name": "sender",
          "type": "address"
        },
        {
          "internalType": "address",
          "name": "reciver",
          "type": "address"
        },
        {
          "internalType": "uint256",
          "name": "amount",
          "type": "uint256"
        },
        {
          "internalType": "string",
          "name": "transaction_type",
          "type": "string"
        }
      ],
      "stateMutability": "view",
      "type": "function"
    },
    {
      "inputs": [
        {
          "internalType": "uint256",
          "name": "",
          "type": "uint256"
        }
      ],
      "name": "Users",
      "outputs": [
        {
          "internalType": "string",
          "name": "name",
          "type": "string"
        },
        {
          "internalType": "address",
          "name": "user_crypto_id",
          "type": "address"
        },
        {
          "internalType": "string",
          "name": "password",
          "type": "string"
        },
        {
          "internalType": "uint256",
          "name": "balance",
          "type": "uint256"
        }
      ],
      "stateMutability": "view",
      "type": "function"
    },
    {
      "inputs": [
        {
          "internalType": "address",
          "name": "_owner",
          "type": "address"
        },
        {
          "internalType": "address",
          "name": "_contact_name",
          "type": "address"
        },
        {
          "internalType": "string",
          "name": "_name",
          "type": "string"
        },
        {
          "internalType": "string",
          "name": "_contact_type",
          "type": "string"
        }
      ],
      "name": "_create_New_Contact",
      "outputs": [],
      "stateMutability": "nonpayable",
      "type": "function"
    },
    {
      "inputs": [
        {
          "internalType": "string",
          "name": "_name",
          "type": "string"
        },
        {
          "internalType": "string",
          "name": "_employeeid",
          "type": "string"
        },
        {
          "internalType": "string",
          "name": "_employeerank",
          "type": "string"
        },
        {
          "internalType": "string",
          "name": "_emplyeegroup",
          "type": "string"
        }
      ],
      "name": "_create_New_Employee",
      "outputs": [
        {
          "internalType": "bool",
          "name": "",
          "type": "bool"
        }
      ],
      "stateMutability": "nonpayable",
      "type": "function"
    },
    {
      "inputs": [
        {
          "internalType": "string",
          "name": "_name",
          "type": "string"
        },
        {
          "internalType": "address",
          "name": "_user_crypto_id",
          "type": "address"
        },
        {
          "internalType": "string",
          "name": "_password",
          "type": "string"
        }
      ],
      "name": "_create_New_User",
      "outputs": [],
      "stateMutability": "nonpayable",
      "type": "function"
    },
    {
      "inputs": [],
      "name": "admin",
      "outputs": [
        {
          "internalType": "address",
          "name": "",
          "type": "address"
        }
      ],
      "stateMutability": "view",
      "type": "function"
    },
    {
      "inputs": [
        {
          "internalType": "address",
          "name": "recipient",
          "type": "address"
        },
        {
          "internalType": "uint256",
          "name": "amount",
          "type": "uint256"
        }
      ],
      "name": "airdrop",
      "outputs": [
        {
          "internalType": "bool",
          "name": "",
          "type": "bool"
        }
      ],
      "stateMutability": "nonpayable",
      "type": "function"
    },
    {
      "inputs": [
        {
          "internalType": "address",
          "name": "owner",
          "type": "address"
        },
        {
          "internalType": "address",
          "name": "spender",
          "type": "address"
        }
      ],
      "name": "allowance",
      "outputs": [
        {
          "internalType": "uint256",
          "name": "",
          "type": "uint256"
        }
      ],
      "stateMutability": "view",
      "type": "function"
    },
    {
      "inputs": [
        {
          "internalType": "address",
          "name": "spender",
          "type": "address"
        },
        {
          "internalType": "uint256",
          "name": "amount",
          "type": "uint256"
        }
      ],
      "name": "approve",
      "outputs": [
        {
          "internalType": "bool",
          "name": "",
          "type": "bool"
        }
      ],
      "stateMutability": "nonpayable",
      "type": "function"
    },
    {
      "inputs": [
        {
          "internalType": "address",
          "name": "account",
          "type": "address"
        }
      ],
      "name": "balanceOf",
      "outputs": [
        {
          "internalType": "uint256",
          "name": "",
          "type": "uint256"
        }
      ],
      "stateMutability": "view",
      "type": "function"
    },
    {
      "inputs": [
        {
          "internalType": "uint256",
          "name": "amount",
          "type": "uint256"
        }
      ],
      "name": "burn",
      "outputs": [],
      "stateMutability": "nonpayable",
      "type": "function"
    },
    {
      "inputs": [
        {
          "internalType": "address",
          "name": "_address",
          "type": "address"
        }
      ],
      "name": "change_admin",
      "outputs": [],
      "stateMutability": "nonpayable",
      "type": "function"
    },
    {
      "inputs": [
        {
          "internalType": "address",
          "name": "_address",
          "type": "address"
        }
      ],
      "name": "change_employeeadmin",
      "outputs": [],
      "stateMutability": "nonpayable",
      "type": "function"
    },
    {
      "inputs": [],
      "name": "contacts_view",
      "outputs": [
        {
          "components": [
            {
              "internalType": "address",
              "name": "owner",
              "type": "address"
            },
            {
              "internalType": "address",
              "name": "contact_name",
              "type": "address"
            },
            {
              "internalType": "string",
              "name": "name",
              "type": "string"
            },
            {
              "internalType": "string",
              "name": "contact_type",
              "type": "string"
            }
          ],
          "internalType": "struct HAT_TOKEN.Contact[]",
          "name": "",
          "type": "tuple[]"
        }
      ],
      "stateMutability": "view",
      "type": "function"
    },
    {
      "inputs": [],
      "name": "decimals",
      "outputs": [
        {
          "internalType": "uint8",
          "name": "",
          "type": "uint8"
        }
      ],
      "stateMutability": "view",
      "type": "function"
    },
    {
      "inputs": [
        {
          "internalType": "address",
          "name": "spender",
          "type": "address"
        },
        {
          "internalType": "uint256",
          "name": "subtractedValue",
          "type": "uint256"
        }
      ],
      "name": "decreaseAllowance",
      "outputs": [
        {
          "internalType": "bool",
          "name": "",
          "type": "bool"
        }
      ],
      "stateMutability": "nonpayable",
      "type": "function"
    },
    {
      "inputs": [],
      "name": "employeeadmin",
      "outputs": [
        {
          "internalType": "address",
          "name": "",
          "type": "address"
        }
      ],
      "stateMutability": "view",
      "type": "function"
    },
    {
      "inputs": [],
      "name": "employees_view",
      "outputs": [
        {
          "components": [
            {
              "internalType": "string",
              "name": "name",
              "type": "string"
            },
            {
              "internalType": "string",
              "name": "employeeid",
              "type": "string"
            },
            {
              "internalType": "string",
              "name": "employeerank",
              "type": "string"
            },
            {
              "internalType": "string",
              "name": "employeegroup",
              "type": "string"
            }
          ],
          "internalType": "struct HAT_TOKEN.Employee[]",
          "name": "",
          "type": "tuple[]"
        }
      ],
      "stateMutability": "view",
      "type": "function"
    },
    {
      "inputs": [],
      "name": "hat_burnt",
      "outputs": [
        {
          "internalType": "uint256",
          "name": "",
          "type": "uint256"
        }
      ],
      "stateMutability": "view",
      "type": "function"
    },
    {
      "inputs": [
        {
          "internalType": "address",
          "name": "spender",
          "type": "address"
        },
        {
          "internalType": "uint256",
          "name": "addedValue",
          "type": "uint256"
        }
      ],
      "name": "increaseAllowance",
      "outputs": [
        {
          "internalType": "bool",
          "name": "",
          "type": "bool"
        }
      ],
      "stateMutability": "nonpayable",
      "type": "function"
    },
    {
      "inputs": [
        {
          "internalType": "string",
          "name": "_password",
          "type": "string"
        }
      ],
      "name": "login",
      "outputs": [
        {
          "internalType": "bool",
          "name": "",
          "type": "bool"
        }
      ],
      "stateMutability": "view",
      "type": "function"
    },
    {
      "inputs": [
        {
          "internalType": "address",
          "name": "to",
          "type": "address"
        },
        {
          "internalType": "uint256",
          "name": "amount",
          "type": "uint256"
        }
      ],
      "name": "mint",
      "outputs": [],
      "stateMutability": "nonpayable",
      "type": "function"
    },
    {
      "inputs": [],
      "name": "name",
      "outputs": [
        {
          "internalType": "string",
          "name": "",
          "type": "string"
        }
      ],
      "stateMutability": "view",
      "type": "function"
    },
    {
      "inputs": [],
      "name": "symbol",
      "outputs": [
        {
          "internalType": "string",
          "name": "",
          "type": "string"
        }
      ],
      "stateMutability": "view",
      "type": "function"
    },
    {
      "inputs": [],
      "name": "totalSupply",
      "outputs": [
        {
          "internalType": "uint256",
          "name": "",
          "type": "uint256"
        }
      ],
      "stateMutability": "view",
      "type": "function"
    },
    {
      "inputs": [],
      "name": "transaction_view",
      "outputs": [
        {
          "components": [
            {
              "internalType": "address",
              "name": "sender",
              "type": "address"
            },
            {
              "internalType": "address",
              "name": "reciver",
              "type": "address"
            },
            {
              "internalType": "uint256",
              "name": "amount",
              "type": "uint256"
            },
            {
              "internalType": "string",
              "name": "transaction_type",
              "type": "string"
            }
          ],
          "internalType": "struct HAT_TOKEN.Transaction[]",
          "name": "",
          "type": "tuple[]"
        }
      ],
      "stateMutability": "view",
      "type": "function"
    },
    {
      "inputs": [
        {
          "internalType": "address",
          "name": "recipient",
          "type": "address"
        },
        {
          "internalType": "uint256",
          "name": "amount",
          "type": "uint256"
        },
        {
          "internalType": "string",
          "name": "_trans_type",
          "type": "string"
        }
      ],
      "name": "transfer",
      "outputs": [
        {
          "internalType": "bool",
          "name": "",
          "type": "bool"
        }
      ],
      "stateMutability": "nonpayable",
      "type": "function"
    },
    {
      "inputs": [
        {
          "internalType": "address",
          "name": "to",
          "type": "address"
        },
        {
          "internalType": "uint256",
          "name": "amount",
          "type": "uint256"
        }
      ],
      "name": "transfer",
      "outputs": [
        {
          "internalType": "bool",
          "name": "",
          "type": "bool"
        }
      ],
      "stateMutability": "nonpayable",
      "type": "function"
    },
    {
      "inputs": [
        {
          "internalType": "address",
          "name": "from",
          "type": "address"
        },
        {
          "internalType": "address",
          "name": "to",
          "type": "address"
        },
        {
          "internalType": "uint256",
          "name": "amount",
          "type": "uint256"
        }
      ],
      "name": "transferFrom",
      "outputs": [
        {
          "internalType": "bool",
          "name": "",
          "type": "bool"
        }
      ],
      "stateMutability": "nonpayable",
      "type": "function"
    },
    {
      "inputs": [],
      "name": "user_view",
      "outputs": [
        {
          "components": [
            {
              "internalType": "string",
              "name": "name",
              "type": "string"
            },
            {
              "internalType": "address",
              "name": "user_crypto_id",
              "type": "address"
            },
            {
              "internalType": "string",
              "name": "password",
              "type": "string"
            },
            {
              "internalType": "uint256",
              "name": "balance",
              "type": "uint256"
            }
          ],
          "internalType": "struct HAT_TOKEN.User[]",
          "name": "",
          "type": "tuple[]"
        }
      ],
      "stateMutability": "view",
      "type": "function"
    },
    {
      "inputs": [
        {
          "internalType": "uint256",
          "name": "id",
          "type": "uint256"
        }
      ],
      "name": "user_view",
      "outputs": [
        {
          "internalType": "string",
          "name": "",
          "type": "string"
        },
        {
          "internalType": "address",
          "name": "",
          "type": "address"
        },
        {
          "internalType": "string",
          "name": "",
          "type": "string"
        }
      ],
      "stateMutability": "view",
      "type": "function"
    }
  ],
  "bytecode": "0x60806040523480156200001157600080fd5b506040518060400160405280600c81526020017f48697461796120546f6b656e00000000000000000000000000000000000000008152506040518060400160405280600381526020017f484154000000000000000000000000000000000000000000000000000000000081525081600390805190602001906200009692919062000259565b508060049080519060200190620000af92919062000259565b505050620000d0336b033b2e3c9fd0803ce8000000620000d660201b60201c565b620004b5565b600073ffffffffffffffffffffffffffffffffffffffff168273ffffffffffffffffffffffffffffffffffffffff16141562000149576040517f08c379a0000000000000000000000000000000000000000000000000000000008152600401620001409062000341565b60405180910390fd5b6200015d600083836200024f60201b60201c565b806002600082825462000171919062000391565b92505081905550806000808473ffffffffffffffffffffffffffffffffffffffff1673ffffffffffffffffffffffffffffffffffffffff1681526020019081526020016000206000828254620001c8919062000391565b925050819055508173ffffffffffffffffffffffffffffffffffffffff16600073ffffffffffffffffffffffffffffffffffffffff167fddf252ad1be2c89b69c2b068fc378daa952ba7f163c4a11628f55a4df523b3ef836040516200022f919062000363565b60405180910390a36200024b600083836200025460201b60201c565b5050565b505050565b505050565b8280546200026790620003f8565b90600052602060002090601f0160209004810192826200028b5760008555620002d7565b82601f10620002a657805160ff1916838001178555620002d7565b82800160010185558215620002d7579182015b82811115620002d6578251825591602001919060010190620002b9565b5b509050620002e69190620002ea565b5090565b5b8082111562000305576000816000905550600101620002eb565b5090565b600062000318601f8362000380565b915062000325826200048c565b602082019050919050565b6200033b81620003ee565b82525050565b600060208201905081810360008301526200035c8162000309565b9050919050565b60006020820190506200037a600083018462000330565b92915050565b600082825260208201905092915050565b60006200039e82620003ee565b9150620003ab83620003ee565b9250827fffffffffffffffffffffffffffffffffffffffffffffffffffffffffffffffff03821115620003e357620003e26200042e565b5b828201905092915050565b6000819050919050565b600060028204905060018216806200041157607f821691505b602082108114156200042857620004276200045d565b5b50919050565b7f4e487b7100000000000000000000000000000000000000000000000000000000600052601160045260246000fd5b7f4e487b7100000000000000000000000000000000000000000000000000000000600052602260045260246000fd5b7f45524332303a206d696e7420746f20746865207a65726f206164647265737300600082015250565b61466580620004c56000396000f3fe608060405234801561001057600080fd5b50600436106101fb5760003560e01c80635827d6801161011a578063acd3306d116100ad578063d69f9a821161007c578063d69f9a821461062f578063da2e6c8714610661578063dd62ed3e14610694578063f6ee99e0146106c4578063f851a440146106e2576101fb565b8063acd3306d146105b9578063c1201af3146105d7578063c87b6dc0146105f5578063cf224e8a14610613576101fb565b80638ba4cc3c116100e95780638ba4cc3c1461050b57806395d89b411461053b578063a457c2d714610559578063a9059cbb14610589576101fb565b80635827d680146104855780635eae5460146104a157806370a08231146104bd578063827057f1146104ed576101fb565b806323b872dd116101925780633a7d280c116101615780633a7d280c146103ed57806340c10f191461041d57806342966c681461043957806356b8c72414610455576101fb565b806323b872dd1461033c578063313ce5671461036c57806334008b161461038a57806339509351146103bd576101fb565b8063151c259f116101ce578063151c259f1461029c578063158686b5146102cf57806318160ddd146102eb5780631e98fd1c14610309576101fb565b806306fdde0314610200578063095ea7b31461021e5780630eea2bb11461024e57806310f3fcbe1461027e575b600080fd5b610208610700565b6040516102159190613c28565b60405180910390f35b61023860048036038101906102339190613146565b610792565b6040516102459190613c0d565b60405180910390f35b610268600480360381019061026391906132c9565b6107b5565b6040516102759190613c0d565b60405180910390f35b6102866108df565b6040516102939190613ba7565b60405180910390f35b6102b660048036038101906102b191906133a0565b610b86565b6040516102c69493929190613ce2565b60405180910390f35b6102e960048036038101906102e49190612fe7565b610de6565b005b6102f3610e2a565b6040516103009190613ea3565b60405180910390f35b610323600480360381019061031e91906133a0565b610e34565b6040516103339493929190613c8f565b60405180910390f35b610356600480360381019061035191906130f3565b610fa4565b6040516103639190613c0d565b60405180910390f35b610374610fd3565b6040516103819190613ebe565b60405180910390f35b6103a4600480360381019061039f91906133a0565b610fdc565b6040516103b49493929190613b39565b60405180910390f35b6103d760048036038101906103d29190613146565b6110e4565b6040516103e49190613c0d565b60405180910390f35b610407600480360381019061040291906131f5565b61111b565b6040516104149190613c0d565b60405180910390f35b61043760048036038101906104329190613146565b61124c565b005b610453600480360381019061044e91906133a0565b6112ea565b005b61046f600480360381019061046a9190613186565b611310565b60405161047c9190613c0d565b60405180910390f35b61049f600480360381019061049a9190612fe7565b611623565b005b6104bb60048036038101906104b69190613054565b611667565b005b6104d760048036038101906104d29190612fe7565b6117af565b6040516104e49190613ea3565b60405180910390f35b6104f56117f7565b6040516105029190613beb565b60405180910390f35b61052560048036038101906105209190613146565b6119da565b6040516105329190613c0d565b60405180910390f35b610543611c4d565b6040516105509190613c28565b60405180910390f35b610573600480360381019061056e9190613146565b611cdf565b6040516105809190613c0d565b60405180910390f35b6105a3600480360381019061059e9190613146565b611d56565b6040516105b09190613c0d565b60405180910390f35b6105c1611d79565b6040516105ce9190613acb565b60405180910390f35b6105df611d9f565b6040516105ec9190613ea3565b60405180910390f35b6105fd611da9565b60405161060a9190613bc9565b60405180910390f35b61062d6004803603810190610628919061323e565b611f50565b005b610649600480360381019061064491906133a0565b612045565b60405161065893929190613c4a565b60405180910390f35b61067b600480360381019061067691906133a0565b61221d565b60405161068b9493929190613ae6565b60405180910390f35b6106ae60048036038101906106a99190613014565b6123ad565b6040516106bb9190613ea3565b60405180910390f35b6106cc612434565b6040516106d99190613b85565b60405180910390f35b6106ea612663565b6040516106f79190613acb565b60405180910390f35b60606003805461070f90614181565b80601f016020809104026020016040519081016040528092919081815260200182805461073b90614181565b80156107885780601f1061075d57610100808354040283529160200191610788565b820191906000526020600020905b81548152906001019060200180831161076b57829003601f168201915b5050505050905090565b60008061079d612689565b90506107aa818585612691565b600191505092915050565b60003373ffffffffffffffffffffffffffffffffffffffff16600a60009054906101000a900473ffffffffffffffffffffffffffffffffffffffff1673ffffffffffffffffffffffffffffffffffffffff161461081157600080fd5b600860405180608001604052808781526020018681526020018581526020018481525090806001815401808255809150506001900390600052602060002090600402016000909190919091506000820151816000019080519060200190610879929190612eaa565b506020820151816001019080519060200190610896929190612eaa565b5060408201518160020190805190602001906108b3929190612eaa565b5060608201518160030190805190602001906108d0929190612eaa565b50505060019050949350505050565b60606008805480602002602001604051908101604052809291908181526020016000905b82821015610b7d578382906000526020600020906004020160405180608001604052908160008201805461093690614181565b80601f016020809104026020016040519081016040528092919081815260200182805461096290614181565b80156109af5780601f10610984576101008083540402835291602001916109af565b820191906000526020600020905b81548152906001019060200180831161099257829003601f168201915b505050505081526020016001820180546109c890614181565b80601f01602080910402602001604051908101604052809291908181526020018280546109f490614181565b8015610a415780601f10610a1657610100808354040283529160200191610a41565b820191906000526020600020905b815481529060010190602001808311610a2457829003601f168201915b50505050508152602001600282018054610a5a90614181565b80601f0160208091040260200160405190810160405280929190818152602001828054610a8690614181565b8015610ad35780601f10610aa857610100808354040283529160200191610ad3565b820191906000526020600020905b815481529060010190602001808311610ab657829003601f168201915b50505050508152602001600382018054610aec90614181565b80601f0160208091040260200160405190810160405280929190818152602001828054610b1890614181565b8015610b655780601f10610b3a57610100808354040283529160200191610b65565b820191906000526020600020905b815481529060010190602001808311610b4857829003601f168201915b50505050508152505081526020019060010190610903565b50505050905090565b60088181548110610b9657600080fd5b9060005260206000209060040201600091509050806000018054610bb990614181565b80601f0160208091040260200160405190810160405280929190818152602001828054610be590614181565b8015610c325780601f10610c0757610100808354040283529160200191610c32565b820191906000526020600020905b815481529060010190602001808311610c1557829003601f168201915b505050505090806001018054610c4790614181565b80601f0160208091040260200160405190810160405280929190818152602001828054610c7390614181565b8015610cc05780601f10610c9557610100808354040283529160200191610cc0565b820191906000526020600020905b815481529060010190602001808311610ca357829003601f168201915b505050505090806002018054610cd590614181565b80601f0160208091040260200160405190810160405280929190818152602001828054610d0190614181565b8015610d4e5780601f10610d2357610100808354040283529160200191610d4e565b820191906000526020600020905b815481529060010190602001808311610d3157829003601f168201915b505050505090806003018054610d6390614181565b80601f0160208091040260200160405190810160405280929190818152602001828054610d8f90614181565b8015610ddc5780601f10610db157610100808354040283529160200191610ddc565b820191906000526020600020905b815481529060010190602001808311610dbf57829003601f168201915b5050505050905084565b80600960006101000a81548173ffffffffffffffffffffffffffffffffffffffff021916908373ffffffffffffffffffffffffffffffffffffffff16021790555050565b6000600254905090565b60058181548110610e4457600080fd5b9060005260206000209060040201600091509050806000018054610e6790614181565b80601f0160208091040260200160405190810160405280929190818152602001828054610e9390614181565b8015610ee05780601f10610eb557610100808354040283529160200191610ee0565b820191906000526020600020905b815481529060010190602001808311610ec357829003601f168201915b5050505050908060010160009054906101000a900473ffffffffffffffffffffffffffffffffffffffff1690806002018054610f1b90614181565b80601f0160208091040260200160405190810160405280929190818152602001828054610f4790614181565b8015610f945780601f10610f6957610100808354040283529160200191610f94565b820191906000526020600020905b815481529060010190602001808311610f7757829003601f168201915b5050505050908060030154905084565b600080610faf612689565b9050610fbc85828561285c565b610fc78585856128e8565b60019150509392505050565b60006012905090565b60078181548110610fec57600080fd5b90600052602060002090600402016000915090508060000160009054906101000a900473ffffffffffffffffffffffffffffffffffffffff16908060010160009054906101000a900473ffffffffffffffffffffffffffffffffffffffff169080600201549080600301805461106190614181565b80601f016020809104026020016040519081016040528092919081815260200182805461108d90614181565b80156110da5780601f106110af576101008083540402835291602001916110da565b820191906000526020600020905b8154815290600101906020018083116110bd57829003601f168201915b5050505050905084565b6000806110ef612689565b905061111081858561110185896123ad565b61110b9190614060565b612691565b600191505092915050565b600080600090505b600580549050811015611241573373ffffffffffffffffffffffffffffffffffffffff166005828154811061115b5761115a61428b565b5b906000526020600020906004020160010160009054906101000a900473ffffffffffffffffffffffffffffffffffffffff1673ffffffffffffffffffffffffffffffffffffffff1614801561121f5750826040516020016111bc9190613a9d565b60405160208183030381529060405280519060200120600582815481106111e6576111e561428b565b5b90600052602060002090600402016002016040516020016112079190613ab4565b60405160208183030381529060405280519060200120145b1561122e576001915050611247565b8080611239906141e4565b915050611123565b50600090505b919050565b600960009054906101000a900473ffffffffffffffffffffffffffffffffffffffff1673ffffffffffffffffffffffffffffffffffffffff163373ffffffffffffffffffffffffffffffffffffffff16146112dc576040517f08c379a00000000000000000000000000000000000000000000000000000000081526004016112d390613de3565b60405180910390fd5b6112e68282612b69565b5050565b80600b60008282546112fc9190614060565b9250508190555061130d3382612cc9565b50565b600061131d3385856128e8565b60005b6005805490508110156114e8573373ffffffffffffffffffffffffffffffffffffffff16600582815481106113585761135761428b565b5b906000526020600020906004020160010160009054906101000a900473ffffffffffffffffffffffffffffffffffffffff1673ffffffffffffffffffffffffffffffffffffffff1614156114015783600582815481106113bb576113ba61428b565b5b9060005260206000209060040201600301546113d791906140b6565b600582815481106113eb576113ea61428b565b5b9060005260206000209060040201600301819055505b8473ffffffffffffffffffffffffffffffffffffffff166005828154811061142c5761142b61428b565b5b906000526020600020906004020160010160009054906101000a900473ffffffffffffffffffffffffffffffffffffffff1673ffffffffffffffffffffffffffffffffffffffff1614156114d557836005828154811061148f5761148e61428b565b5b9060005260206000209060040201600301546114ab9190614060565b600582815481106114bf576114be61428b565b5b9060005260206000209060040201600301819055505b80806114e0906141e4565b915050611320565b50600760405180608001604052803373ffffffffffffffffffffffffffffffffffffffff1681526020018673ffffffffffffffffffffffffffffffffffffffff16815260200185815260200184815250908060018154018082558091505060019003906000526020600020906004020160009091909190915060008201518160000160006101000a81548173ffffffffffffffffffffffffffffffffffffffff021916908373ffffffffffffffffffffffffffffffffffffffff16021790555060208201518160010160006101000a81548173ffffffffffffffffffffffffffffffffffffffff021916908373ffffffffffffffffffffffffffffffffffffffff160217905550604082015181600201556060820151816003019080519060200190611615929190612eaa565b505050600190509392505050565b80600a60006101000a81548173ffffffffffffffffffffffffffffffffffffffff021916908373ffffffffffffffffffffffffffffffffffffffff16021790555050565b600660405180608001604052808673ffffffffffffffffffffffffffffffffffffffff1681526020018573ffffffffffffffffffffffffffffffffffffffff16815260200184815260200183815250908060018154018082558091505060019003906000526020600020906004020160009091909190915060008201518160000160006101000a81548173ffffffffffffffffffffffffffffffffffffffff021916908373ffffffffffffffffffffffffffffffffffffffff16021790555060208201518160010160006101000a81548173ffffffffffffffffffffffffffffffffffffffff021916908373ffffffffffffffffffffffffffffffffffffffff1602179055506040820151816002019080519060200190611789929190612eaa565b5060608201518160030190805190602001906117a6929190612eaa565b50505050505050565b60008060008373ffffffffffffffffffffffffffffffffffffffff1673ffffffffffffffffffffffffffffffffffffffff168152602001908152602001600020549050919050565b60606005805480602002602001604051908101604052809291908181526020016000905b828210156119d1578382906000526020600020906004020160405180608001604052908160008201805461184e90614181565b80601f016020809104026020016040519081016040528092919081815260200182805461187a90614181565b80156118c75780601f1061189c576101008083540402835291602001916118c7565b820191906000526020600020905b8154815290600101906020018083116118aa57829003601f168201915b505050505081526020016001820160009054906101000a900473ffffffffffffffffffffffffffffffffffffffff1673ffffffffffffffffffffffffffffffffffffffff1673ffffffffffffffffffffffffffffffffffffffff16815260200160028201805461193690614181565b80601f016020809104026020016040519081016040528092919081815260200182805461196290614181565b80156119af5780601f10611984576101008083540402835291602001916119af565b820191906000526020600020905b81548152906001019060200180831161199257829003601f168201915b505050505081526020016003820154815250508152602001906001019061181b565b50505050905090565b60006119e73384846128e8565b60005b600580549050811015611ade578373ffffffffffffffffffffffffffffffffffffffff1660058281548110611a2257611a2161428b565b5b906000526020600020906004020160010160009054906101000a900473ffffffffffffffffffffffffffffffffffffffff1673ffffffffffffffffffffffffffffffffffffffff161415611acb578260058281548110611a8557611a8461428b565b5b906000526020600020906004020160030154611aa19190614060565b60058281548110611ab557611ab461428b565b5b9060005260206000209060040201600301819055505b8080611ad6906141e4565b9150506119ea565b50600760405180608001604052803373ffffffffffffffffffffffffffffffffffffffff1681526020018573ffffffffffffffffffffffffffffffffffffffff1681526020018481526020016040518060400160405280600881526020017f4149522044524f50000000000000000000000000000000000000000000000000815250815250908060018154018082558091505060019003906000526020600020906004020160009091909190915060008201518160000160006101000a81548173ffffffffffffffffffffffffffffffffffffffff021916908373ffffffffffffffffffffffffffffffffffffffff16021790555060208201518160010160006101000a81548173ffffffffffffffffffffffffffffffffffffffff021916908373ffffffffffffffffffffffffffffffffffffffff160217905550604082015181600201556060820151816003019080519060200190611c40929190612eaa565b5050506001905092915050565b606060048054611c5c90614181565b80601f0160208091040260200160405190810160405280929190818152602001828054611c8890614181565b8015611cd55780601f10611caa57610100808354040283529160200191611cd5565b820191906000526020600020905b815481529060010190602001808311611cb857829003601f168201915b5050505050905090565b600080611cea612689565b90506000611cf882866123ad565b905083811015611d3d576040517f08c379a0000000000000000000000000000000000000000000000000000000008152600401611d3490613e63565b60405180910390fd5b611d4a8286868403612691565b60019250505092915050565b600080611d61612689565b9050611d6e8185856128e8565b600191505092915050565b600a60009054906101000a900473ffffffffffffffffffffffffffffffffffffffff1681565b6000600b54905090565b60606007805480602002602001604051908101604052809291908181526020016000905b82821015611f4757838290600052602060002090600402016040518060800160405290816000820160009054906101000a900473ffffffffffffffffffffffffffffffffffffffff1673ffffffffffffffffffffffffffffffffffffffff1673ffffffffffffffffffffffffffffffffffffffff1681526020016001820160009054906101000a900473ffffffffffffffffffffffffffffffffffffffff1673ffffffffffffffffffffffffffffffffffffffff1673ffffffffffffffffffffffffffffffffffffffff16815260200160028201548152602001600382018054611eb690614181565b80601f0160208091040260200160405190810160405280929190818152602001828054611ee290614181565b8015611f2f5780601f10611f0457610100808354040283529160200191611f2f565b820191906000526020600020905b815481529060010190602001808311611f1257829003601f168201915b50505050508152505081526020019060010190611dcd565b50505050905090565b600560405180608001604052808581526020018473ffffffffffffffffffffffffffffffffffffffff168152602001838152602001600081525090806001815401808255809150506001900390600052602060002090600402016000909190919091506000820151816000019080519060200190611fcf929190612eaa565b5060208201518160010160006101000a81548173ffffffffffffffffffffffffffffffffffffffff021916908373ffffffffffffffffffffffffffffffffffffffff1602179055506040820151816002019080519060200190612033929190612eaa565b50606082015181600301555050505050565b6060600060606000600585815481106120615761206061428b565b5b906000526020600020906004020160405180608001604052908160008201805461208a90614181565b80601f01602080910402602001604051908101604052809291908181526020018280546120b690614181565b80156121035780601f106120d857610100808354040283529160200191612103565b820191906000526020600020905b8154815290600101906020018083116120e657829003601f168201915b505050505081526020016001820160009054906101000a900473ffffffffffffffffffffffffffffffffffffffff1673ffffffffffffffffffffffffffffffffffffffff1673ffffffffffffffffffffffffffffffffffffffff16815260200160028201805461217290614181565b80601f016020809104026020016040519081016040528092919081815260200182805461219e90614181565b80156121eb5780601f106121c0576101008083540402835291602001916121eb565b820191906000526020600020905b8154815290600101906020018083116121ce57829003601f168201915b505050505081526020016003820154815250509050806000015181602001518260400151935093509350509193909250565b6006818154811061222d57600080fd5b90600052602060002090600402016000915090508060000160009054906101000a900473ffffffffffffffffffffffffffffffffffffffff16908060010160009054906101000a900473ffffffffffffffffffffffffffffffffffffffff169080600201805461229c90614181565b80601f01602080910402602001604051908101604052809291908181526020018280546122c890614181565b80156123155780601f106122ea57610100808354040283529160200191612315565b820191906000526020600020905b8154815290600101906020018083116122f857829003601f168201915b50505050509080600301805461232a90614181565b80601f016020809104026020016040519081016040528092919081815260200182805461235690614181565b80156123a35780601f10612378576101008083540402835291602001916123a3565b820191906000526020600020905b81548152906001019060200180831161238657829003601f168201915b5050505050905084565b6000600160008473ffffffffffffffffffffffffffffffffffffffff1673ffffffffffffffffffffffffffffffffffffffff16815260200190815260200160002060008373ffffffffffffffffffffffffffffffffffffffff1673ffffffffffffffffffffffffffffffffffffffff16815260200190815260200160002054905092915050565b60606006805480602002602001604051908101604052809291908181526020016000905b8282101561265a57838290600052602060002090600402016040518060800160405290816000820160009054906101000a900473ffffffffffffffffffffffffffffffffffffffff1673ffffffffffffffffffffffffffffffffffffffff1673ffffffffffffffffffffffffffffffffffffffff1681526020016001820160009054906101000a900473ffffffffffffffffffffffffffffffffffffffff1673ffffffffffffffffffffffffffffffffffffffff1673ffffffffffffffffffffffffffffffffffffffff16815260200160028201805461253790614181565b80601f016020809104026020016040519081016040528092919081815260200182805461256390614181565b80156125b05780601f10612585576101008083540402835291602001916125b0565b820191906000526020600020905b81548152906001019060200180831161259357829003601f168201915b505050505081526020016003820180546125c990614181565b80601f01602080910402602001604051908101604052809291908181526020018280546125f590614181565b80156126425780601f1061261757610100808354040283529160200191612642565b820191906000526020600020905b81548152906001019060200180831161262557829003601f168201915b50505050508152505081526020019060010190612458565b50505050905090565b600960009054906101000a900473ffffffffffffffffffffffffffffffffffffffff1681565b600033905090565b600073ffffffffffffffffffffffffffffffffffffffff168373ffffffffffffffffffffffffffffffffffffffff161415612701576040517f08c379a00000000000000000000000000000000000000000000000000000000081526004016126f890613e43565b60405180910390fd5b600073ffffffffffffffffffffffffffffffffffffffff168273ffffffffffffffffffffffffffffffffffffffff161415612771576040517f08c379a000000000000000000000000000000000000000000000000000000000815260040161276890613d83565b60405180910390fd5b80600160008573ffffffffffffffffffffffffffffffffffffffff1673ffffffffffffffffffffffffffffffffffffffff16815260200190815260200160002060008473ffffffffffffffffffffffffffffffffffffffff1673ffffffffffffffffffffffffffffffffffffffff168152602001908152602001600020819055508173ffffffffffffffffffffffffffffffffffffffff168373ffffffffffffffffffffffffffffffffffffffff167f8c5be1e5ebec7d5bd14f71427d1e84f3dd0314c0f7b2291e5b200ac8c7c3b9258360405161284f9190613ea3565b60405180910390a3505050565b600061286884846123ad565b90507fffffffffffffffffffffffffffffffffffffffffffffffffffffffffffffffff81146128e257818110156128d4576040517f08c379a00000000000000000000000000000000000000000000000000000000081526004016128cb90613da3565b60405180910390fd5b6128e18484848403612691565b5b50505050565b600073ffffffffffffffffffffffffffffffffffffffff168373ffffffffffffffffffffffffffffffffffffffff161415612958576040517f08c379a000000000000000000000000000000000000000000000000000000000815260040161294f90613e23565b60405180910390fd5b600073ffffffffffffffffffffffffffffffffffffffff168273ffffffffffffffffffffffffffffffffffffffff1614156129c8576040517f08c379a00000000000000000000000000000000000000000000000000000000081526004016129bf90613d43565b60405180910390fd5b6129d3838383612ea0565b60008060008573ffffffffffffffffffffffffffffffffffffffff1673ffffffffffffffffffffffffffffffffffffffff16815260200190815260200160002054905081811015612a59576040517f08c379a0000000000000000000000000000000000000000000000000000000008152600401612a5090613dc3565b60405180910390fd5b8181036000808673ffffffffffffffffffffffffffffffffffffffff1673ffffffffffffffffffffffffffffffffffffffff16815260200190815260200160002081905550816000808573ffffffffffffffffffffffffffffffffffffffff1673ffffffffffffffffffffffffffffffffffffffff1681526020019081526020016000206000828254612aec9190614060565b925050819055508273ffffffffffffffffffffffffffffffffffffffff168473ffffffffffffffffffffffffffffffffffffffff167fddf252ad1be2c89b69c2b068fc378daa952ba7f163c4a11628f55a4df523b3ef84604051612b509190613ea3565b60405180910390a3612b63848484612ea5565b50505050565b600073ffffffffffffffffffffffffffffffffffffffff168273ffffffffffffffffffffffffffffffffffffffff161415612bd9576040517f08c379a0000000000000000000000000000000000000000000000000000000008152600401612bd090613e83565b60405180910390fd5b612be560008383612ea0565b8060026000828254612bf79190614060565b92505081905550806000808473ffffffffffffffffffffffffffffffffffffffff1673ffffffffffffffffffffffffffffffffffffffff1681526020019081526020016000206000828254612c4c9190614060565b925050819055508173ffffffffffffffffffffffffffffffffffffffff16600073ffffffffffffffffffffffffffffffffffffffff167fddf252ad1be2c89b69c2b068fc378daa952ba7f163c4a11628f55a4df523b3ef83604051612cb19190613ea3565b60405180910390a3612cc560008383612ea5565b5050565b600073ffffffffffffffffffffffffffffffffffffffff168273ffffffffffffffffffffffffffffffffffffffff161415612d39576040517f08c379a0000000000000000000000000000000000000000000000000000000008152600401612d3090613e03565b60405180910390fd5b612d4582600083612ea0565b60008060008473ffffffffffffffffffffffffffffffffffffffff1673ffffffffffffffffffffffffffffffffffffffff16815260200190815260200160002054905081811015612dcb576040517f08c379a0000000000000000000000000000000000000000000000000000000008152600401612dc290613d63565b60405180910390fd5b8181036000808573ffffffffffffffffffffffffffffffffffffffff1673ffffffffffffffffffffffffffffffffffffffff168152602001908152602001600020819055508160026000828254612e2291906140b6565b92505081905550600073ffffffffffffffffffffffffffffffffffffffff168373ffffffffffffffffffffffffffffffffffffffff167fddf252ad1be2c89b69c2b068fc378daa952ba7f163c4a11628f55a4df523b3ef84604051612e879190613ea3565b60405180910390a3612e9b83600084612ea5565b505050565b505050565b505050565b828054612eb690614181565b90600052602060002090601f016020900481019282612ed85760008555612f1f565b82601f10612ef157805160ff1916838001178555612f1f565b82800160010185558215612f1f579182015b82811115612f1e578251825591602001919060010190612f03565b5b509050612f2c9190612f30565b5090565b5b80821115612f49576000816000905550600101612f31565b5090565b6000612f60612f5b84613efe565b613ed9565b905082815260208101848484011115612f7c57612f7b6142ee565b5b612f8784828561413f565b509392505050565b600081359050612f9e81614601565b92915050565b600082601f830112612fb957612fb86142e9565b5b8135612fc9848260208601612f4d565b91505092915050565b600081359050612fe181614618565b92915050565b600060208284031215612ffd57612ffc6142f8565b5b600061300b84828501612f8f565b91505092915050565b6000806040838503121561302b5761302a6142f8565b5b600061303985828601612f8f565b925050602061304a85828601612f8f565b9150509250929050565b6000806000806080858703121561306e5761306d6142f8565b5b600061307c87828801612f8f565b945050602061308d87828801612f8f565b935050604085013567ffffffffffffffff8111156130ae576130ad6142f3565b5b6130ba87828801612fa4565b925050606085013567ffffffffffffffff8111156130db576130da6142f3565b5b6130e787828801612fa4565b91505092959194509250565b60008060006060848603121561310c5761310b6142f8565b5b600061311a86828701612f8f565b935050602061312b86828701612f8f565b925050604061313c86828701612fd2565b9150509250925092565b6000806040838503121561315d5761315c6142f8565b5b600061316b85828601612f8f565b925050602061317c85828601612fd2565b9150509250929050565b60008060006060848603121561319f5761319e6142f8565b5b60006131ad86828701612f8f565b93505060206131be86828701612fd2565b925050604084013567ffffffffffffffff8111156131df576131de6142f3565b5b6131eb86828701612fa4565b9150509250925092565b60006020828403121561320b5761320a6142f8565b5b600082013567ffffffffffffffff811115613229576132286142f3565b5b61323584828501612fa4565b91505092915050565b600080600060608486031215613257576132566142f8565b5b600084013567ffffffffffffffff811115613275576132746142f3565b5b61328186828701612fa4565b935050602061329286828701612f8f565b925050604084013567ffffffffffffffff8111156132b3576132b26142f3565b5b6132bf86828701612fa4565b9150509250925092565b600080600080608085870312156132e3576132e26142f8565b5b600085013567ffffffffffffffff811115613301576133006142f3565b5b61330d87828801612fa4565b945050602085013567ffffffffffffffff81111561332e5761332d6142f3565b5b61333a87828801612fa4565b935050604085013567ffffffffffffffff81111561335b5761335a6142f3565b5b61336787828801612fa4565b925050606085013567ffffffffffffffff811115613388576133876142f3565b5b61339487828801612fa4565b91505092959194509250565b6000602082840312156133b6576133b56142f8565b5b60006133c484828501612fd2565b91505092915050565b60006133d983836138c1565b905092915050565b60006133ed838361392b565b905092915050565b600061340183836139a3565b905092915050565b60006134158383613a06565b905092915050565b613426816140ea565b82525050565b613435816140ea565b82525050565b600061344682613f84565b6134508185613fef565b93508360208202850161346285613f2f565b8060005b8581101561349e578484038952815161347f85826133cd565b945061348a83613fbb565b925060208a01995050600181019050613466565b50829750879550505050505092915050565b60006134bb82613f8f565b6134c58185614000565b9350836020820285016134d785613f3f565b8060005b8581101561351357848403895281516134f485826133e1565b94506134ff83613fc8565b925060208a019950506001810190506134db565b50829750879550505050505092915050565b600061353082613f9a565b61353a8185614011565b93508360208202850161354c85613f4f565b8060005b85811015613588578484038952815161356985826133f5565b945061357483613fd5565b925060208a01995050600181019050613550565b50829750879550505050505092915050565b60006135a582613fa5565b6135af8185614022565b9350836020820285016135c185613f5f565b8060005b858110156135fd57848403895281516135de8582613409565b94506135e983613fe2565b925060208a019950506001810190506135c5565b50829750879550505050505092915050565b613618816140fc565b82525050565b600061362982613fb0565b6136338185614033565b935061364381856020860161414e565b61364c816142fd565b840191505092915050565b600061366282613fb0565b61366c8185614044565b935061367c81856020860161414e565b613685816142fd565b840191505092915050565b600061369b82613fb0565b6136a58185614055565b93506136b581856020860161414e565b80840191505092915050565b600081546136ce81614181565b6136d88186614055565b945060018216600081146136f3576001811461370457613737565b60ff19831686528186019350613737565b61370d85613f6f565b60005b8381101561372f57815481890152600182019150602081019050613710565b838801955050505b50505092915050565b600061374d602383614044565b91506137588261430e565b604082019050919050565b6000613770602283614044565b915061377b8261435d565b604082019050919050565b6000613793602283614044565b915061379e826143ac565b604082019050919050565b60006137b6601d83614044565b91506137c1826143fb565b602082019050919050565b60006137d9602683614044565b91506137e482614424565b604082019050919050565b60006137fc600a83614044565b915061380782614473565b602082019050919050565b600061381f602183614044565b915061382a8261449c565b604082019050919050565b6000613842602583614044565b915061384d826144eb565b604082019050919050565b6000613865602483614044565b91506138708261453a565b604082019050919050565b6000613888602583614044565b915061389382614589565b604082019050919050565b60006138ab601f83614044565b91506138b6826145d8565b602082019050919050565b60006080830160008301516138d9600086018261341d565b5060208301516138ec602086018261341d565b5060408301518482036040860152613904828261361e565b9150506060830151848203606086015261391e828261361e565b9150508091505092915050565b60006080830160008301518482036000860152613948828261361e565b91505060208301518482036020860152613962828261361e565b9150506040830151848203604086015261397c828261361e565b91505060608301518482036060860152613996828261361e565b9150508091505092915050565b60006080830160008301516139bb600086018261341d565b5060208301516139ce602086018261341d565b5060408301516139e16040860182613a70565b50606083015184820360608601526139f9828261361e565b9150508091505092915050565b60006080830160008301518482036000860152613a23828261361e565b9150506020830151613a38602086018261341d565b5060408301518482036040860152613a50828261361e565b9150506060830151613a656060860182613a70565b508091505092915050565b613a7981614128565b82525050565b613a8881614128565b82525050565b613a9781614132565b82525050565b6000613aa98284613690565b915081905092915050565b6000613ac082846136c1565b915081905092915050565b6000602082019050613ae0600083018461342c565b92915050565b6000608082019050613afb600083018761342c565b613b08602083018661342c565b8181036040830152613b1a8185613657565b90508181036060830152613b2e8184613657565b905095945050505050565b6000608082019050613b4e600083018761342c565b613b5b602083018661342c565b613b686040830185613a7f565b8181036060830152613b7a8184613657565b905095945050505050565b60006020820190508181036000830152613b9f818461343b565b905092915050565b60006020820190508181036000830152613bc181846134b0565b905092915050565b60006020820190508181036000830152613be38184613525565b905092915050565b60006020820190508181036000830152613c05818461359a565b905092915050565b6000602082019050613c22600083018461360f565b92915050565b60006020820190508181036000830152613c428184613657565b905092915050565b60006060820190508181036000830152613c648186613657565b9050613c73602083018561342c565b8181036040830152613c858184613657565b9050949350505050565b60006080820190508181036000830152613ca98187613657565b9050613cb8602083018661342c565b8181036040830152613cca8185613657565b9050613cd96060830184613a7f565b95945050505050565b60006080820190508181036000830152613cfc8187613657565b90508181036020830152613d108186613657565b90508181036040830152613d248185613657565b90508181036060830152613d388184613657565b905095945050505050565b60006020820190508181036000830152613d5c81613740565b9050919050565b60006020820190508181036000830152613d7c81613763565b9050919050565b60006020820190508181036000830152613d9c81613786565b9050919050565b60006020820190508181036000830152613dbc816137a9565b9050919050565b60006020820190508181036000830152613ddc816137cc565b9050919050565b60006020820190508181036000830152613dfc816137ef565b9050919050565b60006020820190508181036000830152613e1c81613812565b9050919050565b60006020820190508181036000830152613e3c81613835565b9050919050565b60006020820190508181036000830152613e5c81613858565b9050919050565b60006020820190508181036000830152613e7c8161387b565b9050919050565b60006020820190508181036000830152613e9c8161389e565b9050919050565b6000602082019050613eb86000830184613a7f565b92915050565b6000602082019050613ed36000830184613a8e565b92915050565b6000613ee3613ef4565b9050613eef82826141b3565b919050565b6000604051905090565b600067ffffffffffffffff821115613f1957613f186142ba565b5b613f22826142fd565b9050602081019050919050565b6000819050602082019050919050565b6000819050602082019050919050565b6000819050602082019050919050565b6000819050602082019050919050565b60008190508160005260206000209050919050565b600081519050919050565b600081519050919050565b600081519050919050565b600081519050919050565b600081519050919050565b6000602082019050919050565b6000602082019050919050565b6000602082019050919050565b6000602082019050919050565b600082825260208201905092915050565b600082825260208201905092915050565b600082825260208201905092915050565b600082825260208201905092915050565b600082825260208201905092915050565b600082825260208201905092915050565b600081905092915050565b600061406b82614128565b915061407683614128565b9250827fffffffffffffffffffffffffffffffffffffffffffffffffffffffffffffffff038211156140ab576140aa61422d565b5b828201905092915050565b60006140c182614128565b91506140cc83614128565b9250828210156140df576140de61422d565b5b828203905092915050565b60006140f582614108565b9050919050565b60008115159050919050565b600073ffffffffffffffffffffffffffffffffffffffff82169050919050565b6000819050919050565b600060ff82169050919050565b82818337600083830152505050565b60005b8381101561416c578082015181840152602081019050614151565b8381111561417b576000848401525b50505050565b6000600282049050600182168061419957607f821691505b602082108114156141ad576141ac61425c565b5b50919050565b6141bc826142fd565b810181811067ffffffffffffffff821117156141db576141da6142ba565b5b80604052505050565b60006141ef82614128565b91507fffffffffffffffffffffffffffffffffffffffffffffffffffffffffffffffff8214156142225761422161422d565b5b600182019050919050565b7f4e487b7100000000000000000000000000000000000000000000000000000000600052601160045260246000fd5b7f4e487b7100000000000000000000000000000000000000000000000000000000600052602260045260246000fd5b7f4e487b7100000000000000000000000000000000000000000000000000000000600052603260045260246000fd5b7f4e487b7100000000000000000000000000000000000000000000000000000000600052604160045260246000fd5b600080fd5b600080fd5b600080fd5b600080fd5b6000601f19601f8301169050919050565b7f45524332303a207472616e7366657220746f20746865207a65726f206164647260008201527f6573730000000000000000000000000000000000000000000000000000000000602082015250565b7f45524332303a206275726e20616d6f756e7420657863656564732062616c616e60008201527f6365000000000000000000000000000000000000000000000000000000000000602082015250565b7f45524332303a20617070726f766520746f20746865207a65726f20616464726560008201527f7373000000000000000000000000000000000000000000000000000000000000602082015250565b7f45524332303a20696e73756666696369656e7420616c6c6f77616e6365000000600082015250565b7f45524332303a207472616e7366657220616d6f756e742065786365656473206260008201527f616c616e63650000000000000000000000000000000000000000000000000000602082015250565b7f6f6e6c792061646d696e00000000000000000000000000000000000000000000600082015250565b7f45524332303a206275726e2066726f6d20746865207a65726f2061646472657360008201527f7300000000000000000000000000000000000000000000000000000000000000602082015250565b7f45524332303a207472616e736665722066726f6d20746865207a65726f20616460008201527f6472657373000000000000000000000000000000000000000000000000000000602082015250565b7f45524332303a20617070726f76652066726f6d20746865207a65726f2061646460008201527f7265737300000000000000000000000000000000000000000000000000000000602082015250565b7f45524332303a2064656372656173656420616c6c6f77616e63652062656c6f7760008201527f207a65726f000000000000000000000000000000000000000000000000000000602082015250565b7f45524332303a206d696e7420746f20746865207a65726f206164647265737300600082015250565b61460a816140ea565b811461461557600080fd5b50565b61462181614128565b811461462c57600080fd5b5056fea26469706673582212204951866ecdfad62a0a9d7a759890f1e15ac1edcbb0468ac0e155b09f302d9bba64736f6c63430008050033",
  "linkReferences": {},
  "deployedLinkReferences": {}
}