{
  "contractName": "HAT_TOKEN",
  "abi": [
    {
      "inputs": [],
      "stateMutability": "nonpayable",
      "type": "constructor"
    },
    {
      "anonymous": false,
      "inputs": [
        {
          "indexed": true,
          "internalType": "address",
          "name": "owner",
          "type": "address"
        },
        {
          "indexed": true,
          "internalType": "address",
          "name": "spender",
          "type": "address"
        },
        {
          "indexed": false,
          "internalType": "uint256",
          "name": "value",
          "type": "uint256"
        }
      ],
      "name": "Approval",
      "type": "event"
    },
    {
      "anonymous": false,
      "inputs": [
        {
          "indexed": true,
          "internalType": "address",
          "name": "from",
          "type": "address"
        },
        {
          "indexed": true,
          "internalType": "address",
          "name": "to",
          "type": "address"
        },
        {
          "indexed": false,
          "internalType": "uint256",
          "name": "value",
          "type": "uint256"
        }
      ],
      "name": "Transfer",
      "type": "event"
    },
    {
      "inputs": [
        {
          "internalType": "uint256",
          "name": "",
          "type": "uint256"
        }
      ],
      "name": "Contacts",
      "outputs": [
        {
          "internalType": "address",
          "name": "owner",
          "type": "address"
        },
        {
          "internalType": "address",
          "name": "contact_name",
          "type": "address"
        },
        {
          "internalType": "string",
          "name": "name",
          "type": "string"
        },
        {
          "internalType": "string",
          "name": "contact_type",
          "type": "string"
        }
      ],
      "stateMutability": "view",
      "type": "function"
    },
    {
      "inputs": [
        {
          "internalType": "uint256",
          "name": "",
          "type": "uint256"
        }
      ],
      "name": "Employees",
      "outputs": [
        {
          "internalType": "string",
          "name": "name",
          "type": "string"
        },
        {
          "internalType": "string",
          "name": "employeeid",
          "type": "string"
        },
        {
          "internalType": "string",
          "name": "employeerank",
          "type": "string"
        },
        {
          "internalType": "string",
          "name": "employeegroup",
          "type": "string"
        }
      ],
      "stateMutability": "view",
      "type": "function"
    },
    {
      "inputs": [
        {
          "internalType": "uint256",
          "name": "",
          "type": "uint256"
        }
      ],
      "name": "Transactions",
      "outputs": [
        {
          "internalType": "address",
          "name": "sender",
          "type": "address"
        },
        {
          "internalType": "address",
          "name": "reciver",
          "type": "address"
        },
        {
          "internalType": "uint256",
          "name": "amount",
          "type": "uint256"
        },
        {
          "internalType": "string",
          "name": "transaction_type",
          "type": "string"
        }
      ],
      "stateMutability": "view",
      "type": "function"
    },
    {
      "inputs": [
        {
          "internalType": "uint256",
          "name": "",
          "type": "uint256"
        }
      ],
      "name": "Users",
      "outputs": [
        {
          "internalType": "string",
          "name": "name",
          "type": "string"
        },
        {
          "internalType": "address",
          "name": "user_crypto_id",
          "type": "address"
        },
        {
          "internalType": "string",
          "name": "password",
          "type": "string"
        }
      ],
      "stateMutability": "view",
      "type": "function"
    },
    {
      "inputs": [],
      "name": "admin",
      "outputs": [
        {
          "internalType": "address",
          "name": "",
          "type": "address"
        }
      ],
      "stateMutability": "view",
      "type": "function"
    },
    {
      "inputs": [
        {
          "internalType": "address",
          "name": "owner",
          "type": "address"
        },
        {
          "internalType": "address",
          "name": "spender",
          "type": "address"
        }
      ],
      "name": "allowance",
      "outputs": [
        {
          "internalType": "uint256",
          "name": "",
          "type": "uint256"
        }
      ],
      "stateMutability": "view",
      "type": "function"
    },
    {
      "inputs": [
        {
          "internalType": "address",
          "name": "spender",
          "type": "address"
        },
        {
          "internalType": "uint256",
          "name": "amount",
          "type": "uint256"
        }
      ],
      "name": "approve",
      "outputs": [
        {
          "internalType": "bool",
          "name": "",
          "type": "bool"
        }
      ],
      "stateMutability": "nonpayable",
      "type": "function"
    },
    {
      "inputs": [
        {
          "internalType": "address",
          "name": "account",
          "type": "address"
        }
      ],
      "name": "balanceOf",
      "outputs": [
        {
          "internalType": "uint256",
          "name": "",
          "type": "uint256"
        }
      ],
      "stateMutability": "view",
      "type": "function"
    },
    {
      "inputs": [],
      "name": "decimals",
      "outputs": [
        {
          "internalType": "uint8",
          "name": "",
          "type": "uint8"
        }
      ],
      "stateMutability": "view",
      "type": "function"
    },
    {
      "inputs": [
        {
          "internalType": "address",
          "name": "spender",
          "type": "address"
        },
        {
          "internalType": "uint256",
          "name": "subtractedValue",
          "type": "uint256"
        }
      ],
      "name": "decreaseAllowance",
      "outputs": [
        {
          "internalType": "bool",
          "name": "",
          "type": "bool"
        }
      ],
      "stateMutability": "nonpayable",
      "type": "function"
    },
    {
      "inputs": [],
      "name": "employeeadmin",
      "outputs": [
        {
          "internalType": "address",
          "name": "",
          "type": "address"
        }
      ],
      "stateMutability": "view",
      "type": "function"
    },
    {
      "inputs": [
        {
          "internalType": "address",
          "name": "spender",
          "type": "address"
        },
        {
          "internalType": "uint256",
          "name": "addedValue",
          "type": "uint256"
        }
      ],
      "name": "increaseAllowance",
      "outputs": [
        {
          "internalType": "bool",
          "name": "",
          "type": "bool"
        }
      ],
      "stateMutability": "nonpayable",
      "type": "function"
    },
    {
      "inputs": [],
      "name": "name",
      "outputs": [
        {
          "internalType": "string",
          "name": "",
          "type": "string"
        }
      ],
      "stateMutability": "view",
      "type": "function"
    },
    {
      "inputs": [],
      "name": "symbol",
      "outputs": [
        {
          "internalType": "string",
          "name": "",
          "type": "string"
        }
      ],
      "stateMutability": "view",
      "type": "function"
    },
    {
      "inputs": [],
      "name": "totalSupply",
      "outputs": [
        {
          "internalType": "uint256",
          "name": "",
          "type": "uint256"
        }
      ],
      "stateMutability": "view",
      "type": "function"
    },
    {
      "inputs": [
        {
          "internalType": "address",
          "name": "from",
          "type": "address"
        },
        {
          "internalType": "address",
          "name": "to",
          "type": "address"
        },
        {
          "internalType": "uint256",
          "name": "amount",
          "type": "uint256"
        }
      ],
      "name": "transferFrom",
      "outputs": [
        {
          "internalType": "bool",
          "name": "",
          "type": "bool"
        }
      ],
      "stateMutability": "nonpayable",
      "type": "function"
    },
    {
      "inputs": [
        {
          "internalType": "address",
          "name": "to",
          "type": "address"
        },
        {
          "internalType": "uint256",
          "name": "amount",
          "type": "uint256"
        }
      ],
      "name": "mint",
      "outputs": [],
      "stateMutability": "nonpayable",
      "type": "function"
    },
    {
      "inputs": [
        {
          "internalType": "uint256",
          "name": "amount",
          "type": "uint256"
        }
      ],
      "name": "burn",
      "outputs": [],
      "stateMutability": "nonpayable",
      "type": "function"
    },
    {
      "inputs": [
        {
          "internalType": "address",
          "name": "_address",
          "type": "address"
        }
      ],
      "name": "change_admin",
      "outputs": [],
      "stateMutability": "nonpayable",
      "type": "function"
    },
    {
      "inputs": [
        {
          "internalType": "address",
          "name": "_address",
          "type": "address"
        }
      ],
      "name": "change_employeeadmin",
      "outputs": [],
      "stateMutability": "nonpayable",
      "type": "function"
    },
    {
      "inputs": [
        {
          "internalType": "string",
          "name": "_password",
          "type": "string"
        }
      ],
      "name": "login",
      "outputs": [
        {
          "internalType": "bool",
          "name": "",
          "type": "bool"
        }
      ],
      "stateMutability": "view",
      "type": "function"
    },
    {
      "inputs": [],
      "name": "hat_burnt",
      "outputs": [
        {
          "internalType": "uint256",
          "name": "",
          "type": "uint256"
        }
      ],
      "stateMutability": "view",
      "type": "function"
    },
    {
      "inputs": [
        {
          "internalType": "string",
          "name": "_name",
          "type": "string"
        },
        {
          "internalType": "address",
          "name": "_user_crypto_id",
          "type": "address"
        },
        {
          "internalType": "string",
          "name": "_password",
          "type": "string"
        }
      ],
      "name": "_create_New_User",
      "outputs": [],
      "stateMutability": "nonpayable",
      "type": "function"
    },
    {
      "inputs": [
        {
          "internalType": "string",
          "name": "_name",
          "type": "string"
        },
        {
          "internalType": "string",
          "name": "_employeeid",
          "type": "string"
        },
        {
          "internalType": "string",
          "name": "_employeerank",
          "type": "string"
        },
        {
          "internalType": "string",
          "name": "_emplyeegroup",
          "type": "string"
        }
      ],
      "name": "_create_New_Employee",
      "outputs": [
        {
          "internalType": "bool",
          "name": "",
          "type": "bool"
        }
      ],
      "stateMutability": "nonpayable",
      "type": "function"
    },
    {
      "inputs": [
        {
          "internalType": "address",
          "name": "_owner",
          "type": "address"
        },
        {
          "internalType": "address",
          "name": "_contact_name",
          "type": "address"
        },
        {
          "internalType": "string",
          "name": "_name",
          "type": "string"
        },
        {
          "internalType": "string",
          "name": "_contact_type",
          "type": "string"
        }
      ],
      "name": "_create_New_Contact",
      "outputs": [],
      "stateMutability": "nonpayable",
      "type": "function"
    },
    {
      "inputs": [
        {
          "internalType": "address",
          "name": "recipient",
          "type": "address"
        },
        {
          "internalType": "uint256",
          "name": "amount",
          "type": "uint256"
        },
        {
          "internalType": "string",
          "name": "_trans_type",
          "type": "string"
        }
      ],
      "name": "transfer",
      "outputs": [
        {
          "internalType": "bool",
          "name": "",
          "type": "bool"
        }
      ],
      "stateMutability": "nonpayable",
      "type": "function"
    },
    {
      "inputs": [
        {
          "internalType": "address",
          "name": "to",
          "type": "address"
        },
        {
          "internalType": "uint256",
          "name": "amount",
          "type": "uint256"
        }
      ],
      "name": "transfer",
      "outputs": [
        {
          "internalType": "bool",
          "name": "",
          "type": "bool"
        }
      ],
      "stateMutability": "nonpayable",
      "type": "function"
    },
    {
      "inputs": [
        {
          "internalType": "address",
          "name": "recipient",
          "type": "address"
        },
        {
          "internalType": "uint256",
          "name": "amount",
          "type": "uint256"
        }
      ],
      "name": "airdrop",
      "outputs": [
        {
          "internalType": "bool",
          "name": "",
          "type": "bool"
        }
      ],
      "stateMutability": "nonpayable",
      "type": "function"
    },
    {
      "inputs": [],
      "name": "employees_view",
      "outputs": [
        {
          "components": [
            {
              "internalType": "string",
              "name": "name",
              "type": "string"
            },
            {
              "internalType": "string",
              "name": "employeeid",
              "type": "string"
            },
            {
              "internalType": "string",
              "name": "employeerank",
              "type": "string"
            },
            {
              "internalType": "string",
              "name": "employeegroup",
              "type": "string"
            }
          ],
          "internalType": "struct HAT_TOKEN.Employee[]",
          "name": "",
          "type": "tuple[]"
        }
      ],
      "stateMutability": "view",
      "type": "function"
    },
    {
      "inputs": [],
      "name": "user_view",
      "outputs": [
        {
          "components": [
            {
              "internalType": "string",
              "name": "name",
              "type": "string"
            },
            {
              "internalType": "address",
              "name": "user_crypto_id",
              "type": "address"
            },
            {
              "internalType": "string",
              "name": "password",
              "type": "string"
            }
          ],
          "internalType": "struct HAT_TOKEN.User[]",
          "name": "",
          "type": "tuple[]"
        }
      ],
      "stateMutability": "view",
      "type": "function"
    },
    {
      "inputs": [
        {
          "internalType": "uint256",
          "name": "id",
          "type": "uint256"
        }
      ],
      "name": "user_view",
      "outputs": [
        {
          "internalType": "string",
          "name": "",
          "type": "string"
        },
        {
          "internalType": "address",
          "name": "",
          "type": "address"
        },
        {
          "internalType": "string",
          "name": "",
          "type": "string"
        }
      ],
      "stateMutability": "view",
      "type": "function"
    },
    {
      "inputs": [],
      "name": "transaction_view",
      "outputs": [
        {
          "components": [
            {
              "internalType": "address",
              "name": "sender",
              "type": "address"
            },
            {
              "internalType": "address",
              "name": "reciver",
              "type": "address"
            },
            {
              "internalType": "uint256",
              "name": "amount",
              "type": "uint256"
            },
            {
              "internalType": "string",
              "name": "transaction_type",
              "type": "string"
            }
          ],
          "internalType": "struct HAT_TOKEN.Transaction[]",
          "name": "",
          "type": "tuple[]"
        }
      ],
      "stateMutability": "view",
      "type": "function"
    },
    {
      "inputs": [],
      "name": "contacts_view",
      "outputs": [
        {
          "components": [
            {
              "internalType": "address",
              "name": "owner",
              "type": "address"
            },
            {
              "internalType": "address",
              "name": "contact_name",
              "type": "address"
            },
            {
              "internalType": "string",
              "name": "name",
              "type": "string"
            },
            {
              "internalType": "string",
              "name": "contact_type",
              "type": "string"
            }
          ],
          "internalType": "struct HAT_TOKEN.Contact[]",
          "name": "",
          "type": "tuple[]"
        }
      ],
      "stateMutability": "view",
      "type": "function"
    }
  ],
  "bytecode": "0x60806040523480156200001157600080fd5b506040518060400160405280600c81526020017f48697461796120546f6b656e00000000000000000000000000000000000000008152506040518060400160405280600381526020017f484154000000000000000000000000000000000000000000000000000000000081525081600390805190602001906200009692919062000259565b508060049080519060200190620000af92919062000259565b505050620000d0336b033b2e3c9fd0803ce8000000620000d660201b60201c565b620004b5565b600073ffffffffffffffffffffffffffffffffffffffff168273ffffffffffffffffffffffffffffffffffffffff16141562000149576040517f08c379a0000000000000000000000000000000000000000000000000000000008152600401620001409062000341565b60405180910390fd5b6200015d600083836200024f60201b60201c565b806002600082825462000171919062000391565b92505081905550806000808473ffffffffffffffffffffffffffffffffffffffff1673ffffffffffffffffffffffffffffffffffffffff1681526020019081526020016000206000828254620001c8919062000391565b925050819055508173ffffffffffffffffffffffffffffffffffffffff16600073ffffffffffffffffffffffffffffffffffffffff167fddf252ad1be2c89b69c2b068fc378daa952ba7f163c4a11628f55a4df523b3ef836040516200022f919062000363565b60405180910390a36200024b600083836200025460201b60201c565b5050565b505050565b505050565b8280546200026790620003f8565b90600052602060002090601f0160209004810192826200028b5760008555620002d7565b82601f10620002a657805160ff1916838001178555620002d7565b82800160010185558215620002d7579182015b82811115620002d6578251825591602001919060010190620002b9565b5b509050620002e69190620002ea565b5090565b5b8082111562000305576000816000905550600101620002eb565b5090565b600062000318601f8362000380565b915062000325826200048c565b602082019050919050565b6200033b81620003ee565b82525050565b600060208201905081810360008301526200035c8162000309565b9050919050565b60006020820190506200037a600083018462000330565b92915050565b600082825260208201905092915050565b60006200039e82620003ee565b9150620003ab83620003ee565b9250827fffffffffffffffffffffffffffffffffffffffffffffffffffffffffffffffff03821115620003e357620003e26200042e565b5b828201905092915050565b6000819050919050565b600060028204905060018216806200041157607f821691505b602082108114156200042857620004276200045d565b5b50919050565b7f4e487b7100000000000000000000000000000000000000000000000000000000600052601160045260246000fd5b7f4e487b7100000000000000000000000000000000000000000000000000000000600052602260045260246000fd5b7f45524332303a206d696e7420746f20746865207a65726f206164647265737300600082015250565b61430f80620004c56000396000f3fe608060405234801561001057600080fd5b50600436106101fb5760003560e01c80635827d6801161011a578063acd3306d116100ad578063d69f9a821161007c578063d69f9a821461062e578063da2e6c8714610660578063dd62ed3e14610693578063f6ee99e0146106c3578063f851a440146106e1576101fb565b8063acd3306d146105b8578063c1201af3146105d6578063c87b6dc0146105f4578063cf224e8a14610612576101fb565b80638ba4cc3c116100e95780638ba4cc3c1461050a57806395d89b411461053a578063a457c2d714610558578063a9059cbb14610588576101fb565b80635827d680146104845780635eae5460146104a057806370a08231146104bc578063827057f1146104ec576101fb565b806323b872dd116101925780633a7d280c116101615780633a7d280c146103ec57806340c10f191461041c57806342966c681461043857806356b8c72414610454576101fb565b806323b872dd1461033b578063313ce5671461036b57806334008b161461038957806339509351146103bc576101fb565b8063151c259f116101ce578063151c259f1461029c578063158686b5146102cf57806318160ddd146102eb5780631e98fd1c14610309576101fb565b806306fdde0314610200578063095ea7b31461021e5780630eea2bb11461024e57806310f3fcbe1461027e575b600080fd5b6102086106ff565b6040516102159190613925565b60405180910390f35b61023860048036038101906102339190612e56565b610791565b604051610245919061390a565b60405180910390f35b61026860048036038101906102639190612fd9565b6107b4565b604051610275919061390a565b60405180910390f35b6102866108de565b60405161029391906138a4565b60405180910390f35b6102b660048036038101906102b191906130b0565b610b85565b6040516102c6949392919061398c565b60405180910390f35b6102e960048036038101906102e49190612cf7565b610de5565b005b6102f3610e29565b6040516103009190613b4d565b60405180910390f35b610323600480360381019061031e91906130b0565b610e33565b60405161033293929190613947565b60405180910390f35b61035560048036038101906103509190612e03565b610f9d565b604051610362919061390a565b60405180910390f35b610373610fcc565b6040516103809190613b68565b60405180910390f35b6103a3600480360381019061039e91906130b0565b610fd5565b6040516103b39493929190613836565b60405180910390f35b6103d660048036038101906103d19190612e56565b6110dd565b6040516103e3919061390a565b60405180910390f35b61040660048036038101906104019190612f05565b611114565b604051610413919061390a565b60405180910390f35b61043660048036038101906104319190612e56565b611245565b005b610452600480360381019061044d91906130b0565b6112e3565b005b61046e60048036038101906104699190612e96565b611309565b60405161047b919061390a565b60405180910390f35b61049e60048036038101906104999190612cf7565b611450565b005b6104ba60048036038101906104b59190612d64565b611494565b005b6104d660048036038101906104d19190612cf7565b6115dc565b6040516104e39190613b4d565b60405180910390f35b6104f4611624565b60405161050191906138e8565b60405180910390f35b610524600480360381019061051f9190612e56565b6117fd565b604051610531919061390a565b60405180910390f35b610542611978565b60405161054f9190613925565b60405180910390f35b610572600480360381019061056d9190612e56565b611a0a565b60405161057f919061390a565b60405180910390f35b6105a2600480360381019061059d9190612e56565b611a81565b6040516105af919061390a565b60405180910390f35b6105c0611aa4565b6040516105cd91906137c8565b60405180910390f35b6105de611aca565b6040516105eb9190613b4d565b60405180910390f35b6105fc611ad4565b60405161060991906138c6565b60405180910390f35b61062c60048036038101906106279190612f4e565b611c7b565b005b610648600480360381019061064391906130b0565b611d5f565b60405161065793929190613947565b60405180910390f35b61067a600480360381019061067591906130b0565b611f2d565b60405161068a94939291906137e3565b60405180910390f35b6106ad60048036038101906106a89190612d24565b6120bd565b6040516106ba9190613b4d565b60405180910390f35b6106cb612144565b6040516106d89190613882565b60405180910390f35b6106e9612373565b6040516106f691906137c8565b60405180910390f35b60606003805461070e90613e2b565b80601f016020809104026020016040519081016040528092919081815260200182805461073a90613e2b565b80156107875780601f1061075c57610100808354040283529160200191610787565b820191906000526020600020905b81548152906001019060200180831161076a57829003601f168201915b5050505050905090565b60008061079c612399565b90506107a98185856123a1565b600191505092915050565b60003373ffffffffffffffffffffffffffffffffffffffff16600a60009054906101000a900473ffffffffffffffffffffffffffffffffffffffff1673ffffffffffffffffffffffffffffffffffffffff161461081057600080fd5b600860405180608001604052808781526020018681526020018581526020018481525090806001815401808255809150506001900390600052602060002090600402016000909190919091506000820151816000019080519060200190610878929190612bba565b506020820151816001019080519060200190610895929190612bba565b5060408201518160020190805190602001906108b2929190612bba565b5060608201518160030190805190602001906108cf929190612bba565b50505060019050949350505050565b60606008805480602002602001604051908101604052809291908181526020016000905b82821015610b7c578382906000526020600020906004020160405180608001604052908160008201805461093590613e2b565b80601f016020809104026020016040519081016040528092919081815260200182805461096190613e2b565b80156109ae5780601f10610983576101008083540402835291602001916109ae565b820191906000526020600020905b81548152906001019060200180831161099157829003601f168201915b505050505081526020016001820180546109c790613e2b565b80601f01602080910402602001604051908101604052809291908181526020018280546109f390613e2b565b8015610a405780601f10610a1557610100808354040283529160200191610a40565b820191906000526020600020905b815481529060010190602001808311610a2357829003601f168201915b50505050508152602001600282018054610a5990613e2b565b80601f0160208091040260200160405190810160405280929190818152602001828054610a8590613e2b565b8015610ad25780601f10610aa757610100808354040283529160200191610ad2565b820191906000526020600020905b815481529060010190602001808311610ab557829003601f168201915b50505050508152602001600382018054610aeb90613e2b565b80601f0160208091040260200160405190810160405280929190818152602001828054610b1790613e2b565b8015610b645780601f10610b3957610100808354040283529160200191610b64565b820191906000526020600020905b815481529060010190602001808311610b4757829003601f168201915b50505050508152505081526020019060010190610902565b50505050905090565b60088181548110610b9557600080fd5b9060005260206000209060040201600091509050806000018054610bb890613e2b565b80601f0160208091040260200160405190810160405280929190818152602001828054610be490613e2b565b8015610c315780601f10610c0657610100808354040283529160200191610c31565b820191906000526020600020905b815481529060010190602001808311610c1457829003601f168201915b505050505090806001018054610c4690613e2b565b80601f0160208091040260200160405190810160405280929190818152602001828054610c7290613e2b565b8015610cbf5780601f10610c9457610100808354040283529160200191610cbf565b820191906000526020600020905b815481529060010190602001808311610ca257829003601f168201915b505050505090806002018054610cd490613e2b565b80601f0160208091040260200160405190810160405280929190818152602001828054610d0090613e2b565b8015610d4d5780601f10610d2257610100808354040283529160200191610d4d565b820191906000526020600020905b815481529060010190602001808311610d3057829003601f168201915b505050505090806003018054610d6290613e2b565b80601f0160208091040260200160405190810160405280929190818152602001828054610d8e90613e2b565b8015610ddb5780601f10610db057610100808354040283529160200191610ddb565b820191906000526020600020905b815481529060010190602001808311610dbe57829003601f168201915b5050505050905084565b80600960006101000a81548173ffffffffffffffffffffffffffffffffffffffff021916908373ffffffffffffffffffffffffffffffffffffffff16021790555050565b6000600254905090565b60058181548110610e4357600080fd5b9060005260206000209060030201600091509050806000018054610e6690613e2b565b80601f0160208091040260200160405190810160405280929190818152602001828054610e9290613e2b565b8015610edf5780601f10610eb457610100808354040283529160200191610edf565b820191906000526020600020905b815481529060010190602001808311610ec257829003601f168201915b5050505050908060010160009054906101000a900473ffffffffffffffffffffffffffffffffffffffff1690806002018054610f1a90613e2b565b80601f0160208091040260200160405190810160405280929190818152602001828054610f4690613e2b565b8015610f935780601f10610f6857610100808354040283529160200191610f93565b820191906000526020600020905b815481529060010190602001808311610f7657829003601f168201915b5050505050905083565b600080610fa8612399565b9050610fb585828561256c565b610fc08585856125f8565b60019150509392505050565b60006012905090565b60078181548110610fe557600080fd5b90600052602060002090600402016000915090508060000160009054906101000a900473ffffffffffffffffffffffffffffffffffffffff16908060010160009054906101000a900473ffffffffffffffffffffffffffffffffffffffff169080600201549080600301805461105a90613e2b565b80601f016020809104026020016040519081016040528092919081815260200182805461108690613e2b565b80156110d35780601f106110a8576101008083540402835291602001916110d3565b820191906000526020600020905b8154815290600101906020018083116110b657829003601f168201915b5050505050905084565b6000806110e8612399565b90506111098185856110fa85896120bd565b6111049190613d0a565b6123a1565b600191505092915050565b600080600090505b60058054905081101561123a573373ffffffffffffffffffffffffffffffffffffffff166005828154811061115457611153613f35565b5b906000526020600020906003020160010160009054906101000a900473ffffffffffffffffffffffffffffffffffffffff1673ffffffffffffffffffffffffffffffffffffffff161480156112185750826040516020016111b5919061379a565b60405160208183030381529060405280519060200120600582815481106111df576111de613f35565b5b906000526020600020906003020160020160405160200161120091906137b1565b60405160208183030381529060405280519060200120145b15611227576001915050611240565b808061123290613e8e565b91505061111c565b50600090505b919050565b600960009054906101000a900473ffffffffffffffffffffffffffffffffffffffff1673ffffffffffffffffffffffffffffffffffffffff163373ffffffffffffffffffffffffffffffffffffffff16146112d5576040517f08c379a00000000000000000000000000000000000000000000000000000000081526004016112cc90613a8d565b60405180910390fd5b6112df8282612879565b5050565b80600b60008282546112f59190613d0a565b9250508190555061130633826129d9565b50565b60006113163385856125f8565b600760405180608001604052803373ffffffffffffffffffffffffffffffffffffffff1681526020018673ffffffffffffffffffffffffffffffffffffffff16815260200185815260200184815250908060018154018082558091505060019003906000526020600020906004020160009091909190915060008201518160000160006101000a81548173ffffffffffffffffffffffffffffffffffffffff021916908373ffffffffffffffffffffffffffffffffffffffff16021790555060208201518160010160006101000a81548173ffffffffffffffffffffffffffffffffffffffff021916908373ffffffffffffffffffffffffffffffffffffffff160217905550604082015181600201556060820151816003019080519060200190611442929190612bba565b505050600190509392505050565b80600a60006101000a81548173ffffffffffffffffffffffffffffffffffffffff021916908373ffffffffffffffffffffffffffffffffffffffff16021790555050565b600660405180608001604052808673ffffffffffffffffffffffffffffffffffffffff1681526020018573ffffffffffffffffffffffffffffffffffffffff16815260200184815260200183815250908060018154018082558091505060019003906000526020600020906004020160009091909190915060008201518160000160006101000a81548173ffffffffffffffffffffffffffffffffffffffff021916908373ffffffffffffffffffffffffffffffffffffffff16021790555060208201518160010160006101000a81548173ffffffffffffffffffffffffffffffffffffffff021916908373ffffffffffffffffffffffffffffffffffffffff16021790555060408201518160020190805190602001906115b6929190612bba565b5060608201518160030190805190602001906115d3929190612bba565b50505050505050565b60008060008373ffffffffffffffffffffffffffffffffffffffff1673ffffffffffffffffffffffffffffffffffffffff168152602001908152602001600020549050919050565b60606005805480602002602001604051908101604052809291908181526020016000905b828210156117f4578382906000526020600020906003020160405180606001604052908160008201805461167b90613e2b565b80601f01602080910402602001604051908101604052809291908181526020018280546116a790613e2b565b80156116f45780601f106116c9576101008083540402835291602001916116f4565b820191906000526020600020905b8154815290600101906020018083116116d757829003601f168201915b505050505081526020016001820160009054906101000a900473ffffffffffffffffffffffffffffffffffffffff1673ffffffffffffffffffffffffffffffffffffffff1673ffffffffffffffffffffffffffffffffffffffff16815260200160028201805461176390613e2b565b80601f016020809104026020016040519081016040528092919081815260200182805461178f90613e2b565b80156117dc5780601f106117b1576101008083540402835291602001916117dc565b820191906000526020600020905b8154815290600101906020018083116117bf57829003601f168201915b50505050508152505081526020019060010190611648565b50505050905090565b600061180a3384846125f8565b600760405180608001604052803373ffffffffffffffffffffffffffffffffffffffff1681526020018573ffffffffffffffffffffffffffffffffffffffff1681526020018481526020016040518060400160405280600881526020017f4149522044524f50000000000000000000000000000000000000000000000000815250815250908060018154018082558091505060019003906000526020600020906004020160009091909190915060008201518160000160006101000a81548173ffffffffffffffffffffffffffffffffffffffff021916908373ffffffffffffffffffffffffffffffffffffffff16021790555060208201518160010160006101000a81548173ffffffffffffffffffffffffffffffffffffffff021916908373ffffffffffffffffffffffffffffffffffffffff16021790555060408201518160020155606082015181600301908051906020019061196b929190612bba565b5050506001905092915050565b60606004805461198790613e2b565b80601f01602080910402602001604051908101604052809291908181526020018280546119b390613e2b565b8015611a005780601f106119d557610100808354040283529160200191611a00565b820191906000526020600020905b8154815290600101906020018083116119e357829003601f168201915b5050505050905090565b600080611a15612399565b90506000611a2382866120bd565b905083811015611a68576040517f08c379a0000000000000000000000000000000000000000000000000000000008152600401611a5f90613b0d565b60405180910390fd5b611a7582868684036123a1565b60019250505092915050565b600080611a8c612399565b9050611a998185856125f8565b600191505092915050565b600a60009054906101000a900473ffffffffffffffffffffffffffffffffffffffff1681565b6000600b54905090565b60606007805480602002602001604051908101604052809291908181526020016000905b82821015611c7257838290600052602060002090600402016040518060800160405290816000820160009054906101000a900473ffffffffffffffffffffffffffffffffffffffff1673ffffffffffffffffffffffffffffffffffffffff1673ffffffffffffffffffffffffffffffffffffffff1681526020016001820160009054906101000a900473ffffffffffffffffffffffffffffffffffffffff1673ffffffffffffffffffffffffffffffffffffffff1673ffffffffffffffffffffffffffffffffffffffff16815260200160028201548152602001600382018054611be190613e2b565b80601f0160208091040260200160405190810160405280929190818152602001828054611c0d90613e2b565b8015611c5a5780601f10611c2f57610100808354040283529160200191611c5a565b820191906000526020600020905b815481529060010190602001808311611c3d57829003601f168201915b50505050508152505081526020019060010190611af8565b50505050905090565b600560405180606001604052808581526020018473ffffffffffffffffffffffffffffffffffffffff1681526020018381525090806001815401808255809150506001900390600052602060002090600302016000909190919091506000820151816000019080519060200190611cf3929190612bba565b5060208201518160010160006101000a81548173ffffffffffffffffffffffffffffffffffffffff021916908373ffffffffffffffffffffffffffffffffffffffff1602179055506040820151816002019080519060200190611d57929190612bba565b505050505050565b606060006060600060058581548110611d7b57611d7a613f35565b5b9060005260206000209060030201604051806060016040529081600082018054611da490613e2b565b80601f0160208091040260200160405190810160405280929190818152602001828054611dd090613e2b565b8015611e1d5780601f10611df257610100808354040283529160200191611e1d565b820191906000526020600020905b815481529060010190602001808311611e0057829003601f168201915b505050505081526020016001820160009054906101000a900473ffffffffffffffffffffffffffffffffffffffff1673ffffffffffffffffffffffffffffffffffffffff1673ffffffffffffffffffffffffffffffffffffffff168152602001600282018054611e8c90613e2b565b80601f0160208091040260200160405190810160405280929190818152602001828054611eb890613e2b565b8015611f055780601f10611eda57610100808354040283529160200191611f05565b820191906000526020600020905b815481529060010190602001808311611ee857829003601f168201915b5050505050815250509050806000015181602001518260400151935093509350509193909250565b60068181548110611f3d57600080fd5b90600052602060002090600402016000915090508060000160009054906101000a900473ffffffffffffffffffffffffffffffffffffffff16908060010160009054906101000a900473ffffffffffffffffffffffffffffffffffffffff1690806002018054611fac90613e2b565b80601f0160208091040260200160405190810160405280929190818152602001828054611fd890613e2b565b80156120255780601f10611ffa57610100808354040283529160200191612025565b820191906000526020600020905b81548152906001019060200180831161200857829003601f168201915b50505050509080600301805461203a90613e2b565b80601f016020809104026020016040519081016040528092919081815260200182805461206690613e2b565b80156120b35780601f10612088576101008083540402835291602001916120b3565b820191906000526020600020905b81548152906001019060200180831161209657829003601f168201915b5050505050905084565b6000600160008473ffffffffffffffffffffffffffffffffffffffff1673ffffffffffffffffffffffffffffffffffffffff16815260200190815260200160002060008373ffffffffffffffffffffffffffffffffffffffff1673ffffffffffffffffffffffffffffffffffffffff16815260200190815260200160002054905092915050565b60606006805480602002602001604051908101604052809291908181526020016000905b8282101561236a57838290600052602060002090600402016040518060800160405290816000820160009054906101000a900473ffffffffffffffffffffffffffffffffffffffff1673ffffffffffffffffffffffffffffffffffffffff1673ffffffffffffffffffffffffffffffffffffffff1681526020016001820160009054906101000a900473ffffffffffffffffffffffffffffffffffffffff1673ffffffffffffffffffffffffffffffffffffffff1673ffffffffffffffffffffffffffffffffffffffff16815260200160028201805461224790613e2b565b80601f016020809104026020016040519081016040528092919081815260200182805461227390613e2b565b80156122c05780601f10612295576101008083540402835291602001916122c0565b820191906000526020600020905b8154815290600101906020018083116122a357829003601f168201915b505050505081526020016003820180546122d990613e2b565b80601f016020809104026020016040519081016040528092919081815260200182805461230590613e2b565b80156123525780601f1061232757610100808354040283529160200191612352565b820191906000526020600020905b81548152906001019060200180831161233557829003601f168201915b50505050508152505081526020019060010190612168565b50505050905090565b600960009054906101000a900473ffffffffffffffffffffffffffffffffffffffff1681565b600033905090565b600073ffffffffffffffffffffffffffffffffffffffff168373ffffffffffffffffffffffffffffffffffffffff161415612411576040517f08c379a000000000000000000000000000000000000000000000000000000000815260040161240890613aed565b60405180910390fd5b600073ffffffffffffffffffffffffffffffffffffffff168273ffffffffffffffffffffffffffffffffffffffff161415612481576040517f08c379a000000000000000000000000000000000000000000000000000000000815260040161247890613a2d565b60405180910390fd5b80600160008573ffffffffffffffffffffffffffffffffffffffff1673ffffffffffffffffffffffffffffffffffffffff16815260200190815260200160002060008473ffffffffffffffffffffffffffffffffffffffff1673ffffffffffffffffffffffffffffffffffffffff168152602001908152602001600020819055508173ffffffffffffffffffffffffffffffffffffffff168373ffffffffffffffffffffffffffffffffffffffff167f8c5be1e5ebec7d5bd14f71427d1e84f3dd0314c0f7b2291e5b200ac8c7c3b9258360405161255f9190613b4d565b60405180910390a3505050565b600061257884846120bd565b90507fffffffffffffffffffffffffffffffffffffffffffffffffffffffffffffffff81146125f257818110156125e4576040517f08c379a00000000000000000000000000000000000000000000000000000000081526004016125db90613a4d565b60405180910390fd5b6125f184848484036123a1565b5b50505050565b600073ffffffffffffffffffffffffffffffffffffffff168373ffffffffffffffffffffffffffffffffffffffff161415612668576040517f08c379a000000000000000000000000000000000000000000000000000000000815260040161265f90613acd565b60405180910390fd5b600073ffffffffffffffffffffffffffffffffffffffff168273ffffffffffffffffffffffffffffffffffffffff1614156126d8576040517f08c379a00000000000000000000000000000000000000000000000000000000081526004016126cf906139ed565b60405180910390fd5b6126e3838383612bb0565b60008060008573ffffffffffffffffffffffffffffffffffffffff1673ffffffffffffffffffffffffffffffffffffffff16815260200190815260200160002054905081811015612769576040517f08c379a000000000000000000000000000000000000000000000000000000000815260040161276090613a6d565b60405180910390fd5b8181036000808673ffffffffffffffffffffffffffffffffffffffff1673ffffffffffffffffffffffffffffffffffffffff16815260200190815260200160002081905550816000808573ffffffffffffffffffffffffffffffffffffffff1673ffffffffffffffffffffffffffffffffffffffff16815260200190815260200160002060008282546127fc9190613d0a565b925050819055508273ffffffffffffffffffffffffffffffffffffffff168473ffffffffffffffffffffffffffffffffffffffff167fddf252ad1be2c89b69c2b068fc378daa952ba7f163c4a11628f55a4df523b3ef846040516128609190613b4d565b60405180910390a3612873848484612bb5565b50505050565b600073ffffffffffffffffffffffffffffffffffffffff168273ffffffffffffffffffffffffffffffffffffffff1614156128e9576040517f08c379a00000000000000000000000000000000000000000000000000000000081526004016128e090613b2d565b60405180910390fd5b6128f560008383612bb0565b80600260008282546129079190613d0a565b92505081905550806000808473ffffffffffffffffffffffffffffffffffffffff1673ffffffffffffffffffffffffffffffffffffffff168152602001908152602001600020600082825461295c9190613d0a565b925050819055508173ffffffffffffffffffffffffffffffffffffffff16600073ffffffffffffffffffffffffffffffffffffffff167fddf252ad1be2c89b69c2b068fc378daa952ba7f163c4a11628f55a4df523b3ef836040516129c19190613b4d565b60405180910390a36129d560008383612bb5565b5050565b600073ffffffffffffffffffffffffffffffffffffffff168273ffffffffffffffffffffffffffffffffffffffff161415612a49576040517f08c379a0000000000000000000000000000000000000000000000000000000008152600401612a4090613aad565b60405180910390fd5b612a5582600083612bb0565b60008060008473ffffffffffffffffffffffffffffffffffffffff1673ffffffffffffffffffffffffffffffffffffffff16815260200190815260200160002054905081811015612adb576040517f08c379a0000000000000000000000000000000000000000000000000000000008152600401612ad290613a0d565b60405180910390fd5b8181036000808573ffffffffffffffffffffffffffffffffffffffff1673ffffffffffffffffffffffffffffffffffffffff168152602001908152602001600020819055508160026000828254612b329190613d60565b92505081905550600073ffffffffffffffffffffffffffffffffffffffff168373ffffffffffffffffffffffffffffffffffffffff167fddf252ad1be2c89b69c2b068fc378daa952ba7f163c4a11628f55a4df523b3ef84604051612b979190613b4d565b60405180910390a3612bab83600084612bb5565b505050565b505050565b505050565b828054612bc690613e2b565b90600052602060002090601f016020900481019282612be85760008555612c2f565b82601f10612c0157805160ff1916838001178555612c2f565b82800160010185558215612c2f579182015b82811115612c2e578251825591602001919060010190612c13565b5b509050612c3c9190612c40565b5090565b5b80821115612c59576000816000905550600101612c41565b5090565b6000612c70612c6b84613ba8565b613b83565b905082815260208101848484011115612c8c57612c8b613f98565b5b612c97848285613de9565b509392505050565b600081359050612cae816142ab565b92915050565b600082601f830112612cc957612cc8613f93565b5b8135612cd9848260208601612c5d565b91505092915050565b600081359050612cf1816142c2565b92915050565b600060208284031215612d0d57612d0c613fa2565b5b6000612d1b84828501612c9f565b91505092915050565b60008060408385031215612d3b57612d3a613fa2565b5b6000612d4985828601612c9f565b9250506020612d5a85828601612c9f565b9150509250929050565b60008060008060808587031215612d7e57612d7d613fa2565b5b6000612d8c87828801612c9f565b9450506020612d9d87828801612c9f565b935050604085013567ffffffffffffffff811115612dbe57612dbd613f9d565b5b612dca87828801612cb4565b925050606085013567ffffffffffffffff811115612deb57612dea613f9d565b5b612df787828801612cb4565b91505092959194509250565b600080600060608486031215612e1c57612e1b613fa2565b5b6000612e2a86828701612c9f565b9350506020612e3b86828701612c9f565b9250506040612e4c86828701612ce2565b9150509250925092565b60008060408385031215612e6d57612e6c613fa2565b5b6000612e7b85828601612c9f565b9250506020612e8c85828601612ce2565b9150509250929050565b600080600060608486031215612eaf57612eae613fa2565b5b6000612ebd86828701612c9f565b9350506020612ece86828701612ce2565b925050604084013567ffffffffffffffff811115612eef57612eee613f9d565b5b612efb86828701612cb4565b9150509250925092565b600060208284031215612f1b57612f1a613fa2565b5b600082013567ffffffffffffffff811115612f3957612f38613f9d565b5b612f4584828501612cb4565b91505092915050565b600080600060608486031215612f6757612f66613fa2565b5b600084013567ffffffffffffffff811115612f8557612f84613f9d565b5b612f9186828701612cb4565b9350506020612fa286828701612c9f565b925050604084013567ffffffffffffffff811115612fc357612fc2613f9d565b5b612fcf86828701612cb4565b9150509250925092565b60008060008060808587031215612ff357612ff2613fa2565b5b600085013567ffffffffffffffff81111561301157613010613f9d565b5b61301d87828801612cb4565b945050602085013567ffffffffffffffff81111561303e5761303d613f9d565b5b61304a87828801612cb4565b935050604085013567ffffffffffffffff81111561306b5761306a613f9d565b5b61307787828801612cb4565b925050606085013567ffffffffffffffff81111561309857613097613f9d565b5b6130a487828801612cb4565b91505092959194509250565b6000602082840312156130c6576130c5613fa2565b5b60006130d484828501612ce2565b91505092915050565b60006130e983836135d1565b905092915050565b60006130fd838361363b565b905092915050565b600061311183836136b3565b905092915050565b60006131258383613716565b905092915050565b61313681613d94565b82525050565b61314581613d94565b82525050565b600061315682613c2e565b6131608185613c99565b93508360208202850161317285613bd9565b8060005b858110156131ae578484038952815161318f85826130dd565b945061319a83613c65565b925060208a01995050600181019050613176565b50829750879550505050505092915050565b60006131cb82613c39565b6131d58185613caa565b9350836020820285016131e785613be9565b8060005b85811015613223578484038952815161320485826130f1565b945061320f83613c72565b925060208a019950506001810190506131eb565b50829750879550505050505092915050565b600061324082613c44565b61324a8185613cbb565b93508360208202850161325c85613bf9565b8060005b8581101561329857848403895281516132798582613105565b945061328483613c7f565b925060208a01995050600181019050613260565b50829750879550505050505092915050565b60006132b582613c4f565b6132bf8185613ccc565b9350836020820285016132d185613c09565b8060005b8581101561330d57848403895281516132ee8582613119565b94506132f983613c8c565b925060208a019950506001810190506132d5565b50829750879550505050505092915050565b61332881613da6565b82525050565b600061333982613c5a565b6133438185613cdd565b9350613353818560208601613df8565b61335c81613fa7565b840191505092915050565b600061337282613c5a565b61337c8185613cee565b935061338c818560208601613df8565b61339581613fa7565b840191505092915050565b60006133ab82613c5a565b6133b58185613cff565b93506133c5818560208601613df8565b80840191505092915050565b600081546133de81613e2b565b6133e88186613cff565b94506001821660008114613403576001811461341457613447565b60ff19831686528186019350613447565b61341d85613c19565b60005b8381101561343f57815481890152600182019150602081019050613420565b838801955050505b50505092915050565b600061345d602383613cee565b915061346882613fb8565b604082019050919050565b6000613480602283613cee565b915061348b82614007565b604082019050919050565b60006134a3602283613cee565b91506134ae82614056565b604082019050919050565b60006134c6601d83613cee565b91506134d1826140a5565b602082019050919050565b60006134e9602683613cee565b91506134f4826140ce565b604082019050919050565b600061350c600a83613cee565b91506135178261411d565b602082019050919050565b600061352f602183613cee565b915061353a82614146565b604082019050919050565b6000613552602583613cee565b915061355d82614195565b604082019050919050565b6000613575602483613cee565b9150613580826141e4565b604082019050919050565b6000613598602583613cee565b91506135a382614233565b604082019050919050565b60006135bb601f83613cee565b91506135c682614282565b602082019050919050565b60006080830160008301516135e9600086018261312d565b5060208301516135fc602086018261312d565b5060408301518482036040860152613614828261332e565b9150506060830151848203606086015261362e828261332e565b9150508091505092915050565b60006080830160008301518482036000860152613658828261332e565b91505060208301518482036020860152613672828261332e565b9150506040830151848203604086015261368c828261332e565b915050606083015184820360608601526136a6828261332e565b9150508091505092915050565b60006080830160008301516136cb600086018261312d565b5060208301516136de602086018261312d565b5060408301516136f1604086018261376d565b5060608301518482036060860152613709828261332e565b9150508091505092915050565b60006060830160008301518482036000860152613733828261332e565b9150506020830151613748602086018261312d565b5060408301518482036040860152613760828261332e565b9150508091505092915050565b61377681613dd2565b82525050565b61378581613dd2565b82525050565b61379481613ddc565b82525050565b60006137a682846133a0565b915081905092915050565b60006137bd82846133d1565b915081905092915050565b60006020820190506137dd600083018461313c565b92915050565b60006080820190506137f8600083018761313c565b613805602083018661313c565b81810360408301526138178185613367565b9050818103606083015261382b8184613367565b905095945050505050565b600060808201905061384b600083018761313c565b613858602083018661313c565b613865604083018561377c565b81810360608301526138778184613367565b905095945050505050565b6000602082019050818103600083015261389c818461314b565b905092915050565b600060208201905081810360008301526138be81846131c0565b905092915050565b600060208201905081810360008301526138e08184613235565b905092915050565b6000602082019050818103600083015261390281846132aa565b905092915050565b600060208201905061391f600083018461331f565b92915050565b6000602082019050818103600083015261393f8184613367565b905092915050565b600060608201905081810360008301526139618186613367565b9050613970602083018561313c565b81810360408301526139828184613367565b9050949350505050565b600060808201905081810360008301526139a68187613367565b905081810360208301526139ba8186613367565b905081810360408301526139ce8185613367565b905081810360608301526139e28184613367565b905095945050505050565b60006020820190508181036000830152613a0681613450565b9050919050565b60006020820190508181036000830152613a2681613473565b9050919050565b60006020820190508181036000830152613a4681613496565b9050919050565b60006020820190508181036000830152613a66816134b9565b9050919050565b60006020820190508181036000830152613a86816134dc565b9050919050565b60006020820190508181036000830152613aa6816134ff565b9050919050565b60006020820190508181036000830152613ac681613522565b9050919050565b60006020820190508181036000830152613ae681613545565b9050919050565b60006020820190508181036000830152613b0681613568565b9050919050565b60006020820190508181036000830152613b268161358b565b9050919050565b60006020820190508181036000830152613b46816135ae565b9050919050565b6000602082019050613b62600083018461377c565b92915050565b6000602082019050613b7d600083018461378b565b92915050565b6000613b8d613b9e565b9050613b998282613e5d565b919050565b6000604051905090565b600067ffffffffffffffff821115613bc357613bc2613f64565b5b613bcc82613fa7565b9050602081019050919050565b6000819050602082019050919050565b6000819050602082019050919050565b6000819050602082019050919050565b6000819050602082019050919050565b60008190508160005260206000209050919050565b600081519050919050565b600081519050919050565b600081519050919050565b600081519050919050565b600081519050919050565b6000602082019050919050565b6000602082019050919050565b6000602082019050919050565b6000602082019050919050565b600082825260208201905092915050565b600082825260208201905092915050565b600082825260208201905092915050565b600082825260208201905092915050565b600082825260208201905092915050565b600082825260208201905092915050565b600081905092915050565b6000613d1582613dd2565b9150613d2083613dd2565b9250827fffffffffffffffffffffffffffffffffffffffffffffffffffffffffffffffff03821115613d5557613d54613ed7565b5b828201905092915050565b6000613d6b82613dd2565b9150613d7683613dd2565b925082821015613d8957613d88613ed7565b5b828203905092915050565b6000613d9f82613db2565b9050919050565b60008115159050919050565b600073ffffffffffffffffffffffffffffffffffffffff82169050919050565b6000819050919050565b600060ff82169050919050565b82818337600083830152505050565b60005b83811015613e16578082015181840152602081019050613dfb565b83811115613e25576000848401525b50505050565b60006002820490506001821680613e4357607f821691505b60208210811415613e5757613e56613f06565b5b50919050565b613e6682613fa7565b810181811067ffffffffffffffff82111715613e8557613e84613f64565b5b80604052505050565b6000613e9982613dd2565b91507fffffffffffffffffffffffffffffffffffffffffffffffffffffffffffffffff821415613ecc57613ecb613ed7565b5b600182019050919050565b7f4e487b7100000000000000000000000000000000000000000000000000000000600052601160045260246000fd5b7f4e487b7100000000000000000000000000000000000000000000000000000000600052602260045260246000fd5b7f4e487b7100000000000000000000000000000000000000000000000000000000600052603260045260246000fd5b7f4e487b7100000000000000000000000000000000000000000000000000000000600052604160045260246000fd5b600080fd5b600080fd5b600080fd5b600080fd5b6000601f19601f8301169050919050565b7f45524332303a207472616e7366657220746f20746865207a65726f206164647260008201527f6573730000000000000000000000000000000000000000000000000000000000602082015250565b7f45524332303a206275726e20616d6f756e7420657863656564732062616c616e60008201527f6365000000000000000000000000000000000000000000000000000000000000602082015250565b7f45524332303a20617070726f766520746f20746865207a65726f20616464726560008201527f7373000000000000000000000000000000000000000000000000000000000000602082015250565b7f45524332303a20696e73756666696369656e7420616c6c6f77616e6365000000600082015250565b7f45524332303a207472616e7366657220616d6f756e742065786365656473206260008201527f616c616e63650000000000000000000000000000000000000000000000000000602082015250565b7f6f6e6c792061646d696e00000000000000000000000000000000000000000000600082015250565b7f45524332303a206275726e2066726f6d20746865207a65726f2061646472657360008201527f7300000000000000000000000000000000000000000000000000000000000000602082015250565b7f45524332303a207472616e736665722066726f6d20746865207a65726f20616460008201527f6472657373000000000000000000000000000000000000000000000000000000602082015250565b7f45524332303a20617070726f76652066726f6d20746865207a65726f2061646460008201527f7265737300000000000000000000000000000000000000000000000000000000602082015250565b7f45524332303a2064656372656173656420616c6c6f77616e63652062656c6f7760008201527f207a65726f000000000000000000000000000000000000000000000000000000602082015250565b7f45524332303a206d696e7420746f20746865207a65726f206164647265737300600082015250565b6142b481613d94565b81146142bf57600080fd5b50565b6142cb81613dd2565b81146142d657600080fd5b5056fea2646970667358221220f6551894b440c132f86a54a5a5a248c2b32a642e70a24d0c76a53a0feff9ebf364736f6c63430008050033",
  "immutableReferences": {},
  "source": "// SPDX-License-Identifier: MIT\r\n\r\npragma solidity ^0.8.5;\r\n\r\n\r\nimport \"@openzeppelin/contracts/token/ERC20/ERC20.sol\";\r\n\r\n\r\ncontract HAT_TOKEN is ERC20 {\r\n    \r\n    \r\n    struct Employee{\r\n        string name;\r\n        string employeeid;\r\n        string employeerank;\r\n        string employeegroup;\r\n    }\r\n    \r\n    \r\n    struct User{\r\n        string name;\r\n        address user_crypto_id;\r\n        string password;\r\n    }\r\n    \r\n    \r\n    struct Transaction{\r\n        address sender;\r\n        address reciver;\r\n        uint256 amount;\r\n        string transaction_type;\r\n    }\r\n    \r\n    \r\n    struct Contact{\r\n        address owner;\r\n        address contact_name;\r\n        string name;\r\n        string contact_type;\r\n    }\r\n\r\n    //event NewUser( string name, address user_crypto_id, string password);\r\n    \r\n    User[] public Users;\r\n    Contact[] public Contacts;\r\n    Transaction[] public Transactions;\r\n    Employee[] public Employees;\r\n    \r\n\r\n\r\n    \r\n    address public admin;\r\n    address public employeeadmin;\r\n    uint256 total_hat_burnt;\r\n    \r\n    constructor() ERC20('Hitaya Token', 'HAT'){\r\n        _mint(msg.sender, 1000000000 * 10 ** 18);\r\n    }\r\n    \r\n    \r\n    function mint(address to, uint amount) external {\r\n        require(msg.sender==admin, 'only admin');\r\n        _mint(to, amount);\r\n    }\r\n    \r\n    \r\n    function burn(uint amount) external {\r\n        total_hat_burnt+=amount;\r\n        _burn(msg.sender, amount);\r\n    }\r\n    \r\n    \r\n    function change_admin(address _address) public{\r\n        admin=_address;\r\n    }\r\n    \r\n    \r\n    function change_employeeadmin(address _address) public{\r\n        employeeadmin=_address;\r\n    }\r\n    \r\n    \r\n    function login(string memory _password) public view returns (bool){\r\n        for (uint i=0;i<Users.length;i++){\r\n            if (Users[i].user_crypto_id==msg.sender && keccak256(abi.encodePacked(Users[i].password))==keccak256(abi.encodePacked(_password))){\r\n                return true;\r\n            }\r\n        }\r\n        return false;\r\n    }\r\n    \r\n    \r\n    function hat_burnt() public view returns(uint256){\r\n        return (total_hat_burnt);\r\n    }\r\n    \r\n\r\n    function _create_New_User(string memory _name, address _user_crypto_id, string memory _password) public {\r\n        Users.push(User( _name, _user_crypto_id, _password));   \r\n    }\r\n    \r\n    \r\n    function _create_New_Employee(string memory _name, string memory _employeeid, string memory _employeerank, string memory _emplyeegroup) public returns(bool){\r\n        require(employeeadmin==msg.sender);\r\n        Employees.push(Employee( _name, _employeeid, _employeerank, _emplyeegroup));\r\n        return true;\r\n    }\r\n    \r\n    \r\n    function _create_New_Contact(address _owner, address _contact_name, string memory _name, string memory _contact_type) public {\r\n        Contacts.push(Contact( _owner, _contact_name, _name,_contact_type));\r\n    }\r\n    \r\n    \r\n\r\n    function transfer(address recipient, uint256 amount, string memory _trans_type) public virtual returns (bool) {\r\n        _transfer(msg.sender, recipient, amount);\r\n        Transactions.push(Transaction( msg.sender, recipient, amount, _trans_type));\r\n        return true;\r\n    }\r\n    \r\n    \r\n    function airdrop(address recipient, uint256 amount) public virtual returns (bool) {\r\n        _transfer(msg.sender, recipient, amount);\r\n        Transactions.push(Transaction( msg.sender, recipient, amount, \"AIR DROP\"));\r\n        return true;\r\n    }\r\n    \r\n    \r\n    function user_view(uint id) public view returns (string memory ,address , string memory)\r\n    {\r\n        User memory p = Users[id];\r\n        return (p.name,p.user_crypto_id,p.password); \r\n    }\r\n    \r\n    \r\n    function employees_view() public view returns (Employee[] memory)\r\n    {\r\n\r\n        return (Employees); \r\n    }\r\n    \r\n    \r\n    function user_view() public view returns (User[] memory)\r\n    {\r\n\r\n        return (Users); \r\n    }\r\n    \r\n    \r\n    function transaction_view() public view returns (Transaction[] memory)\r\n    {\r\n\r\n        return (Transactions); \r\n    }\r\n    \r\n    \r\n    function contacts_view() public view returns (Contact[] memory)\r\n    {\r\n\r\n        return (Contacts);\r\n    }\r\n}\r\n",
  "sourcePath": "C:\\Users\\ZEUS\\Desktop\\Intelegix Labs\\Hitaya_Chain\\truffle\\contracts\\HAT_TOKEN.sol",
  "compiler": {
    "name": "solc",
    "version": "0.8.5+commit.a4f2e591.Emscripten.clang"
  },
  "schemaVersion": "3.4.7",
  "updatedAt": "2022-05-25T01:30:12.432Z",
  "devdoc": {
    "kind": "dev",
    "methods": {
      "allowance(address,address)": {
        "details": "See {IERC20-allowance}."
      },
      "approve(address,uint256)": {
        "details": "See {IERC20-approve}. NOTE: If `amount` is the maximum `uint256`, the allowance is not updated on `transferFrom`. This is semantically equivalent to an infinite approval. Requirements: - `spender` cannot be the zero address."
      },
      "balanceOf(address)": {
        "details": "See {IERC20-balanceOf}."
      },
      "decimals()": {
        "details": "Returns the number of decimals used to get its user representation. For example, if `decimals` equals `2`, a balance of `505` tokens should be displayed to a user as `5.05` (`505 / 10 ** 2`). Tokens usually opt for a value of 18, imitating the relationship between Ether and Wei. This is the value {ERC20} uses, unless this function is overridden; NOTE: This information is only used for _display_ purposes: it in no way affects any of the arithmetic of the contract, including {IERC20-balanceOf} and {IERC20-transfer}."
      },
      "decreaseAllowance(address,uint256)": {
        "details": "Atomically decreases the allowance granted to `spender` by the caller. This is an alternative to {approve} that can be used as a mitigation for problems described in {IERC20-approve}. Emits an {Approval} event indicating the updated allowance. Requirements: - `spender` cannot be the zero address. - `spender` must have allowance for the caller of at least `subtractedValue`."
      },
      "increaseAllowance(address,uint256)": {
        "details": "Atomically increases the allowance granted to `spender` by the caller. This is an alternative to {approve} that can be used as a mitigation for problems described in {IERC20-approve}. Emits an {Approval} event indicating the updated allowance. Requirements: - `spender` cannot be the zero address."
      },
      "name()": {
        "details": "Returns the name of the token."
      },
      "symbol()": {
        "details": "Returns the symbol of the token, usually a shorter version of the name."
      },
      "totalSupply()": {
        "details": "See {IERC20-totalSupply}."
      },
      "transfer(address,uint256)": {
        "details": "See {IERC20-transfer}. Requirements: - `to` cannot be the zero address. - the caller must have a balance of at least `amount`."
      },
      "transferFrom(address,address,uint256)": {
        "details": "See {IERC20-transferFrom}. Emits an {Approval} event indicating the updated allowance. This is not required by the EIP. See the note at the beginning of {ERC20}. NOTE: Does not update the allowance if the current allowance is the maximum `uint256`. Requirements: - `from` and `to` cannot be the zero address. - `from` must have a balance of at least `amount`. - the caller must have allowance for ``from``'s tokens of at least `amount`."
      }
    },
    "version": 1
  },
  "userdoc": {
    "kind": "user",
    "methods": {},
    "version": 1
  }
}