{
  "contractName": "HAT_TOKEN",
  "abi": [
    {
      "inputs": [],
      "stateMutability": "nonpayable",
      "type": "constructor"
    },
    {
      "anonymous": false,
      "inputs": [
        {
          "indexed": true,
          "internalType": "address",
          "name": "owner",
          "type": "address"
        },
        {
          "indexed": true,
          "internalType": "address",
          "name": "spender",
          "type": "address"
        },
        {
          "indexed": false,
          "internalType": "uint256",
          "name": "value",
          "type": "uint256"
        }
      ],
      "name": "Approval",
      "type": "event"
    },
    {
      "anonymous": false,
      "inputs": [
        {
          "indexed": true,
          "internalType": "address",
          "name": "from",
          "type": "address"
        },
        {
          "indexed": true,
          "internalType": "address",
          "name": "to",
          "type": "address"
        },
        {
          "indexed": false,
          "internalType": "uint256",
          "name": "value",
          "type": "uint256"
        }
      ],
      "name": "Transfer",
      "type": "event"
    },
    {
      "inputs": [
        {
          "internalType": "uint256",
          "name": "",
          "type": "uint256"
        }
      ],
      "name": "Contacts",
      "outputs": [
        {
          "internalType": "address",
          "name": "owner",
          "type": "address"
        },
        {
          "internalType": "address",
          "name": "contact_name",
          "type": "address"
        },
        {
          "internalType": "string",
          "name": "name",
          "type": "string"
        },
        {
          "internalType": "string",
          "name": "contact_type",
          "type": "string"
        }
      ],
      "stateMutability": "view",
      "type": "function"
    },
    {
      "inputs": [
        {
          "internalType": "uint256",
          "name": "",
          "type": "uint256"
        }
      ],
      "name": "Transactions",
      "outputs": [
        {
          "internalType": "address",
          "name": "sender",
          "type": "address"
        },
        {
          "internalType": "address",
          "name": "reciver",
          "type": "address"
        },
        {
          "internalType": "uint256",
          "name": "amount",
          "type": "uint256"
        },
        {
          "internalType": "string",
          "name": "transaction_type",
          "type": "string"
        }
      ],
      "stateMutability": "view",
      "type": "function"
    },
    {
      "inputs": [
        {
          "internalType": "uint256",
          "name": "",
          "type": "uint256"
        }
      ],
      "name": "Users",
      "outputs": [
        {
          "internalType": "string",
          "name": "name",
          "type": "string"
        },
        {
          "internalType": "address",
          "name": "user_crypto_id",
          "type": "address"
        },
        {
          "internalType": "string",
          "name": "password",
          "type": "string"
        },
        {
          "internalType": "uint256",
          "name": "balance",
          "type": "uint256"
        }
      ],
      "stateMutability": "view",
      "type": "function"
    },
    {
      "inputs": [],
      "name": "admin",
      "outputs": [
        {
          "internalType": "address",
          "name": "",
          "type": "address"
        }
      ],
      "stateMutability": "view",
      "type": "function"
    },
    {
      "inputs": [
        {
          "internalType": "address",
          "name": "owner",
          "type": "address"
        },
        {
          "internalType": "address",
          "name": "spender",
          "type": "address"
        }
      ],
      "name": "allowance",
      "outputs": [
        {
          "internalType": "uint256",
          "name": "",
          "type": "uint256"
        }
      ],
      "stateMutability": "view",
      "type": "function"
    },
    {
      "inputs": [
        {
          "internalType": "address",
          "name": "spender",
          "type": "address"
        },
        {
          "internalType": "uint256",
          "name": "amount",
          "type": "uint256"
        }
      ],
      "name": "approve",
      "outputs": [
        {
          "internalType": "bool",
          "name": "",
          "type": "bool"
        }
      ],
      "stateMutability": "nonpayable",
      "type": "function"
    },
    {
      "inputs": [
        {
          "internalType": "address",
          "name": "account",
          "type": "address"
        }
      ],
      "name": "balanceOf",
      "outputs": [
        {
          "internalType": "uint256",
          "name": "",
          "type": "uint256"
        }
      ],
      "stateMutability": "view",
      "type": "function"
    },
    {
      "inputs": [],
      "name": "decimals",
      "outputs": [
        {
          "internalType": "uint8",
          "name": "",
          "type": "uint8"
        }
      ],
      "stateMutability": "view",
      "type": "function"
    },
    {
      "inputs": [
        {
          "internalType": "address",
          "name": "spender",
          "type": "address"
        },
        {
          "internalType": "uint256",
          "name": "subtractedValue",
          "type": "uint256"
        }
      ],
      "name": "decreaseAllowance",
      "outputs": [
        {
          "internalType": "bool",
          "name": "",
          "type": "bool"
        }
      ],
      "stateMutability": "nonpayable",
      "type": "function"
    },
    {
      "inputs": [
        {
          "internalType": "address",
          "name": "spender",
          "type": "address"
        },
        {
          "internalType": "uint256",
          "name": "addedValue",
          "type": "uint256"
        }
      ],
      "name": "increaseAllowance",
      "outputs": [
        {
          "internalType": "bool",
          "name": "",
          "type": "bool"
        }
      ],
      "stateMutability": "nonpayable",
      "type": "function"
    },
    {
      "inputs": [],
      "name": "name",
      "outputs": [
        {
          "internalType": "string",
          "name": "",
          "type": "string"
        }
      ],
      "stateMutability": "view",
      "type": "function"
    },
    {
      "inputs": [],
      "name": "symbol",
      "outputs": [
        {
          "internalType": "string",
          "name": "",
          "type": "string"
        }
      ],
      "stateMutability": "view",
      "type": "function"
    },
    {
      "inputs": [],
      "name": "totalSupply",
      "outputs": [
        {
          "internalType": "uint256",
          "name": "",
          "type": "uint256"
        }
      ],
      "stateMutability": "view",
      "type": "function"
    },
    {
      "inputs": [
        {
          "internalType": "address",
          "name": "from",
          "type": "address"
        },
        {
          "internalType": "address",
          "name": "to",
          "type": "address"
        },
        {
          "internalType": "uint256",
          "name": "amount",
          "type": "uint256"
        }
      ],
      "name": "transferFrom",
      "outputs": [
        {
          "internalType": "bool",
          "name": "",
          "type": "bool"
        }
      ],
      "stateMutability": "nonpayable",
      "type": "function"
    },
    {
      "inputs": [
        {
          "internalType": "address",
          "name": "to",
          "type": "address"
        },
        {
          "internalType": "uint256",
          "name": "amount",
          "type": "uint256"
        }
      ],
      "name": "mint",
      "outputs": [],
      "stateMutability": "nonpayable",
      "type": "function"
    },
    {
      "inputs": [
        {
          "internalType": "uint256",
          "name": "amount",
          "type": "uint256"
        }
      ],
      "name": "burn",
      "outputs": [],
      "stateMutability": "nonpayable",
      "type": "function"
    },
    {
      "inputs": [
        {
          "internalType": "address",
          "name": "_address",
          "type": "address"
        }
      ],
      "name": "change_admin",
      "outputs": [],
      "stateMutability": "nonpayable",
      "type": "function"
    },
    {
      "inputs": [
        {
          "internalType": "string",
          "name": "_password",
          "type": "string"
        }
      ],
      "name": "login",
      "outputs": [
        {
          "internalType": "bool",
          "name": "",
          "type": "bool"
        }
      ],
      "stateMutability": "view",
      "type": "function"
    },
    {
      "inputs": [],
      "name": "hat_burnt",
      "outputs": [
        {
          "internalType": "uint256",
          "name": "",
          "type": "uint256"
        }
      ],
      "stateMutability": "view",
      "type": "function"
    },
    {
      "inputs": [
        {
          "internalType": "string",
          "name": "_name",
          "type": "string"
        },
        {
          "internalType": "address",
          "name": "_user_crypto_id",
          "type": "address"
        },
        {
          "internalType": "string",
          "name": "_password",
          "type": "string"
        }
      ],
      "name": "_create_New_User",
      "outputs": [],
      "stateMutability": "nonpayable",
      "type": "function"
    },
    {
      "inputs": [
        {
          "internalType": "address",
          "name": "_owner",
          "type": "address"
        },
        {
          "internalType": "address",
          "name": "_contact_name",
          "type": "address"
        },
        {
          "internalType": "string",
          "name": "_name",
          "type": "string"
        },
        {
          "internalType": "string",
          "name": "_contact_type",
          "type": "string"
        }
      ],
      "name": "_create_New_Contact",
      "outputs": [],
      "stateMutability": "nonpayable",
      "type": "function"
    },
    {
      "inputs": [
        {
          "internalType": "address",
          "name": "recipient",
          "type": "address"
        },
        {
          "internalType": "uint256",
          "name": "amount",
          "type": "uint256"
        },
        {
          "internalType": "string",
          "name": "_trans_type",
          "type": "string"
        }
      ],
      "name": "transfer",
      "outputs": [
        {
          "internalType": "bool",
          "name": "",
          "type": "bool"
        }
      ],
      "stateMutability": "nonpayable",
      "type": "function"
    },
    {
      "inputs": [
        {
          "internalType": "address",
          "name": "to",
          "type": "address"
        },
        {
          "internalType": "uint256",
          "name": "amount",
          "type": "uint256"
        }
      ],
      "name": "transfer",
      "outputs": [
        {
          "internalType": "bool",
          "name": "",
          "type": "bool"
        }
      ],
      "stateMutability": "nonpayable",
      "type": "function"
    },
    {
      "inputs": [
        {
          "internalType": "address",
          "name": "recipient",
          "type": "address"
        },
        {
          "internalType": "uint256",
          "name": "amount",
          "type": "uint256"
        }
      ],
      "name": "airdrop",
      "outputs": [
        {
          "internalType": "bool",
          "name": "",
          "type": "bool"
        }
      ],
      "stateMutability": "nonpayable",
      "type": "function"
    },
    {
      "inputs": [],
      "name": "user_view",
      "outputs": [
        {
          "components": [
            {
              "internalType": "string",
              "name": "name",
              "type": "string"
            },
            {
              "internalType": "address",
              "name": "user_crypto_id",
              "type": "address"
            },
            {
              "internalType": "string",
              "name": "password",
              "type": "string"
            },
            {
              "internalType": "uint256",
              "name": "balance",
              "type": "uint256"
            }
          ],
          "internalType": "struct HAT_TOKEN.User[]",
          "name": "",
          "type": "tuple[]"
        }
      ],
      "stateMutability": "view",
      "type": "function"
    },
    {
      "inputs": [
        {
          "internalType": "uint256",
          "name": "id",
          "type": "uint256"
        }
      ],
      "name": "user_view",
      "outputs": [
        {
          "internalType": "string",
          "name": "",
          "type": "string"
        },
        {
          "internalType": "address",
          "name": "",
          "type": "address"
        },
        {
          "internalType": "string",
          "name": "",
          "type": "string"
        }
      ],
      "stateMutability": "view",
      "type": "function"
    },
    {
      "inputs": [],
      "name": "transaction_view",
      "outputs": [
        {
          "components": [
            {
              "internalType": "address",
              "name": "sender",
              "type": "address"
            },
            {
              "internalType": "address",
              "name": "reciver",
              "type": "address"
            },
            {
              "internalType": "uint256",
              "name": "amount",
              "type": "uint256"
            },
            {
              "internalType": "string",
              "name": "transaction_type",
              "type": "string"
            }
          ],
          "internalType": "struct HAT_TOKEN.Transaction[]",
          "name": "",
          "type": "tuple[]"
        }
      ],
      "stateMutability": "view",
      "type": "function"
    },
    {
      "inputs": [],
      "name": "contacts_view",
      "outputs": [
        {
          "components": [
            {
              "internalType": "address",
              "name": "owner",
              "type": "address"
            },
            {
              "internalType": "address",
              "name": "contact_name",
              "type": "address"
            },
            {
              "internalType": "string",
              "name": "name",
              "type": "string"
            },
            {
              "internalType": "string",
              "name": "contact_type",
              "type": "string"
            }
          ],
          "internalType": "struct HAT_TOKEN.Contact[]",
          "name": "",
          "type": "tuple[]"
        }
      ],
      "stateMutability": "view",
      "type": "function"
    }
  ],
  "bytecode": "0x60806040523480156200001157600080fd5b506040518060400160405280600c81526020017f48697461796120546f6b656e00000000000000000000000000000000000000008152506040518060400160405280600381526020017f484154000000000000000000000000000000000000000000000000000000000081525081600390805190602001906200009692919062000259565b508060049080519060200190620000af92919062000259565b505050620000d0336b033b2e3c9fd0803ce8000000620000d660201b60201c565b620004b5565b600073ffffffffffffffffffffffffffffffffffffffff168273ffffffffffffffffffffffffffffffffffffffff16141562000149576040517f08c379a0000000000000000000000000000000000000000000000000000000008152600401620001409062000341565b60405180910390fd5b6200015d600083836200024f60201b60201c565b806002600082825462000171919062000391565b92505081905550806000808473ffffffffffffffffffffffffffffffffffffffff1673ffffffffffffffffffffffffffffffffffffffff1681526020019081526020016000206000828254620001c8919062000391565b925050819055508173ffffffffffffffffffffffffffffffffffffffff16600073ffffffffffffffffffffffffffffffffffffffff167fddf252ad1be2c89b69c2b068fc378daa952ba7f163c4a11628f55a4df523b3ef836040516200022f919062000363565b60405180910390a36200024b600083836200025460201b60201c565b5050565b505050565b505050565b8280546200026790620003f8565b90600052602060002090601f0160209004810192826200028b5760008555620002d7565b82601f10620002a657805160ff1916838001178555620002d7565b82800160010185558215620002d7579182015b82811115620002d6578251825591602001919060010190620002b9565b5b509050620002e69190620002ea565b5090565b5b8082111562000305576000816000905550600101620002eb565b5090565b600062000318601f8362000380565b915062000325826200048c565b602082019050919050565b6200033b81620003ee565b82525050565b600060208201905081810360008301526200035c8162000309565b9050919050565b60006020820190506200037a600083018462000330565b92915050565b600082825260208201905092915050565b60006200039e82620003ee565b9150620003ab83620003ee565b9250827fffffffffffffffffffffffffffffffffffffffffffffffffffffffffffffffff03821115620003e357620003e26200042e565b5b828201905092915050565b6000819050919050565b600060028204905060018216806200041157607f821691505b602082108114156200042857620004276200045d565b5b50919050565b7f4e487b7100000000000000000000000000000000000000000000000000000000600052601160045260246000fd5b7f4e487b7100000000000000000000000000000000000000000000000000000000600052602260045260246000fd5b7f45524332303a206d696e7420746f20746865207a65726f206164647265737300600082015250565b613c4480620004c56000396000f3fe608060405234801561001057600080fd5b50600436106101c45760003560e01c806370a08231116100f9578063c87b6dc011610097578063da2e6c8711610071578063da2e6c871461056f578063dd62ed3e146105a2578063f6ee99e0146105d2578063f851a440146105f0576101c4565b8063c87b6dc014610503578063cf224e8a14610521578063d69f9a821461053d576101c4565b806395d89b41116100d357806395d89b4114610467578063a457c2d714610485578063a9059cbb146104b5578063c1201af3146104e5576101c4565b806370a08231146103e9578063827057f1146104195780638ba4cc3c14610437576101c4565b806334008b161161016657806340c10f191161014057806340c10f191461036557806342966c681461038157806356b8c7241461039d5780635eae5460146103cd576101c4565b806334008b16146102d257806339509351146103055780633a7d280c14610335576101c4565b806318160ddd116101a257806318160ddd146102335780631e98fd1c1461025157806323b872dd14610284578063313ce567146102b4576101c4565b806306fdde03146101c9578063095ea7b3146101e7578063158686b514610217575b600080fd5b6101d161060e565b6040516101de91906132a1565b60405180910390f35b61020160048036038101906101fc91906129b9565b6106a0565b60405161020e9190613286565b60405180910390f35b610231600480360381019061022c919061285a565b6106c3565b005b61023b610707565b60405161024891906134bb565b60405180910390f35b61026b60048036038101906102669190612b3c565b610711565b60405161027b9493929190613308565b60405180910390f35b61029e60048036038101906102999190612966565b610881565b6040516102ab9190613286565b60405180910390f35b6102bc6108b0565b6040516102c991906134d6565b60405180910390f35b6102ec60048036038101906102e79190612b3c565b6108b9565b6040516102fc94939291906131d4565b60405180910390f35b61031f600480360381019061031a91906129b9565b6109c1565b60405161032c9190613286565b60405180910390f35b61034f600480360381019061034a9190612a68565b6109f8565b60405161035c9190613286565b60405180910390f35b61037f600480360381019061037a91906129b9565b610b29565b005b61039b60048036038101906103969190612b3c565b610bc7565b005b6103b760048036038101906103b291906129f9565b610bed565b6040516103c49190613286565b60405180910390f35b6103e760048036038101906103e291906128c7565b610f00565b005b61040360048036038101906103fe919061285a565b611048565b60405161041091906134bb565b60405180910390f35b610421611090565b60405161042e9190613264565b60405180910390f35b610451600480360381019061044c91906129b9565b611273565b60405161045e9190613286565b60405180910390f35b61046f6114e6565b60405161047c91906132a1565b60405180910390f35b61049f600480360381019061049a91906129b9565b611578565b6040516104ac9190613286565b60405180910390f35b6104cf60048036038101906104ca91906129b9565b6115ef565b6040516104dc9190613286565b60405180910390f35b6104ed611612565b6040516104fa91906134bb565b60405180910390f35b61050b61161c565b6040516105189190613242565b60405180910390f35b61053b60048036038101906105369190612ab1565b6117c3565b005b61055760048036038101906105529190612b3c565b6118b8565b604051610566939291906132c3565b60405180910390f35b61058960048036038101906105849190612b3c565b611a90565b6040516105999493929190613181565b60405180910390f35b6105bc60048036038101906105b79190612887565b611c20565b6040516105c991906134bb565b60405180910390f35b6105da611ca7565b6040516105e79190613220565b60405180910390f35b6105f8611ed6565b6040516106059190613166565b60405180910390f35b60606003805461061d90613760565b80601f016020809104026020016040519081016040528092919081815260200182805461064990613760565b80156106965780601f1061066b57610100808354040283529160200191610696565b820191906000526020600020905b81548152906001019060200180831161067957829003601f168201915b5050505050905090565b6000806106ab611efc565b90506106b8818585611f04565b600191505092915050565b80600860006101000a81548173ffffffffffffffffffffffffffffffffffffffff021916908373ffffffffffffffffffffffffffffffffffffffff16021790555050565b6000600254905090565b6005818154811061072157600080fd5b906000526020600020906004020160009150905080600001805461074490613760565b80601f016020809104026020016040519081016040528092919081815260200182805461077090613760565b80156107bd5780601f10610792576101008083540402835291602001916107bd565b820191906000526020600020905b8154815290600101906020018083116107a057829003601f168201915b5050505050908060010160009054906101000a900473ffffffffffffffffffffffffffffffffffffffff16908060020180546107f890613760565b80601f016020809104026020016040519081016040528092919081815260200182805461082490613760565b80156108715780601f1061084657610100808354040283529160200191610871565b820191906000526020600020905b81548152906001019060200180831161085457829003601f168201915b5050505050908060030154905084565b60008061088c611efc565b90506108998582856120cf565b6108a485858561215b565b60019150509392505050565b60006012905090565b600781815481106108c957600080fd5b90600052602060002090600402016000915090508060000160009054906101000a900473ffffffffffffffffffffffffffffffffffffffff16908060010160009054906101000a900473ffffffffffffffffffffffffffffffffffffffff169080600201549080600301805461093e90613760565b80601f016020809104026020016040519081016040528092919081815260200182805461096a90613760565b80156109b75780601f1061098c576101008083540402835291602001916109b7565b820191906000526020600020905b81548152906001019060200180831161099a57829003601f168201915b5050505050905084565b6000806109cc611efc565b90506109ed8185856109de8589611c20565b6109e8919061363f565b611f04565b600191505092915050565b600080600090505b600580549050811015610b1e573373ffffffffffffffffffffffffffffffffffffffff1660058281548110610a3857610a3761386a565b5b906000526020600020906004020160010160009054906101000a900473ffffffffffffffffffffffffffffffffffffffff1673ffffffffffffffffffffffffffffffffffffffff16148015610afc575082604051602001610a999190613138565b6040516020818303038152906040528051906020012060058281548110610ac357610ac261386a565b5b9060005260206000209060040201600201604051602001610ae4919061314f565b60405160208183030381529060405280519060200120145b15610b0b576001915050610b24565b8080610b16906137c3565b915050610a00565b50600090505b919050565b600860009054906101000a900473ffffffffffffffffffffffffffffffffffffffff1673ffffffffffffffffffffffffffffffffffffffff163373ffffffffffffffffffffffffffffffffffffffff1614610bb9576040517f08c379a0000000000000000000000000000000000000000000000000000000008152600401610bb0906133fb565b60405180910390fd5b610bc382826123dc565b5050565b8060096000828254610bd9919061363f565b92505081905550610bea338261253c565b50565b6000610bfa33858561215b565b60005b600580549050811015610dc5573373ffffffffffffffffffffffffffffffffffffffff1660058281548110610c3557610c3461386a565b5b906000526020600020906004020160010160009054906101000a900473ffffffffffffffffffffffffffffffffffffffff1673ffffffffffffffffffffffffffffffffffffffff161415610cde578360058281548110610c9857610c9761386a565b5b906000526020600020906004020160030154610cb49190613695565b60058281548110610cc857610cc761386a565b5b9060005260206000209060040201600301819055505b8473ffffffffffffffffffffffffffffffffffffffff1660058281548110610d0957610d0861386a565b5b906000526020600020906004020160010160009054906101000a900473ffffffffffffffffffffffffffffffffffffffff1673ffffffffffffffffffffffffffffffffffffffff161415610db2578360058281548110610d6c57610d6b61386a565b5b906000526020600020906004020160030154610d88919061363f565b60058281548110610d9c57610d9b61386a565b5b9060005260206000209060040201600301819055505b8080610dbd906137c3565b915050610bfd565b50600760405180608001604052803373ffffffffffffffffffffffffffffffffffffffff1681526020018673ffffffffffffffffffffffffffffffffffffffff16815260200185815260200184815250908060018154018082558091505060019003906000526020600020906004020160009091909190915060008201518160000160006101000a81548173ffffffffffffffffffffffffffffffffffffffff021916908373ffffffffffffffffffffffffffffffffffffffff16021790555060208201518160010160006101000a81548173ffffffffffffffffffffffffffffffffffffffff021916908373ffffffffffffffffffffffffffffffffffffffff160217905550604082015181600201556060820151816003019080519060200190610ef292919061271d565b505050600190509392505050565b600660405180608001604052808673ffffffffffffffffffffffffffffffffffffffff1681526020018573ffffffffffffffffffffffffffffffffffffffff16815260200184815260200183815250908060018154018082558091505060019003906000526020600020906004020160009091909190915060008201518160000160006101000a81548173ffffffffffffffffffffffffffffffffffffffff021916908373ffffffffffffffffffffffffffffffffffffffff16021790555060208201518160010160006101000a81548173ffffffffffffffffffffffffffffffffffffffff021916908373ffffffffffffffffffffffffffffffffffffffff160217905550604082015181600201908051906020019061102292919061271d565b50606082015181600301908051906020019061103f92919061271d565b50505050505050565b60008060008373ffffffffffffffffffffffffffffffffffffffff1673ffffffffffffffffffffffffffffffffffffffff168152602001908152602001600020549050919050565b60606005805480602002602001604051908101604052809291908181526020016000905b8282101561126a57838290600052602060002090600402016040518060800160405290816000820180546110e790613760565b80601f016020809104026020016040519081016040528092919081815260200182805461111390613760565b80156111605780601f1061113557610100808354040283529160200191611160565b820191906000526020600020905b81548152906001019060200180831161114357829003601f168201915b505050505081526020016001820160009054906101000a900473ffffffffffffffffffffffffffffffffffffffff1673ffffffffffffffffffffffffffffffffffffffff1673ffffffffffffffffffffffffffffffffffffffff1681526020016002820180546111cf90613760565b80601f01602080910402602001604051908101604052809291908181526020018280546111fb90613760565b80156112485780601f1061121d57610100808354040283529160200191611248565b820191906000526020600020905b81548152906001019060200180831161122b57829003601f168201915b50505050508152602001600382015481525050815260200190600101906110b4565b50505050905090565b600061128033848461215b565b60005b600580549050811015611377578373ffffffffffffffffffffffffffffffffffffffff16600582815481106112bb576112ba61386a565b5b906000526020600020906004020160010160009054906101000a900473ffffffffffffffffffffffffffffffffffffffff1673ffffffffffffffffffffffffffffffffffffffff16141561136457826005828154811061131e5761131d61386a565b5b90600052602060002090600402016003015461133a919061363f565b6005828154811061134e5761134d61386a565b5b9060005260206000209060040201600301819055505b808061136f906137c3565b915050611283565b50600760405180608001604052803373ffffffffffffffffffffffffffffffffffffffff1681526020018573ffffffffffffffffffffffffffffffffffffffff1681526020018481526020016040518060400160405280600881526020017f4149522044524f50000000000000000000000000000000000000000000000000815250815250908060018154018082558091505060019003906000526020600020906004020160009091909190915060008201518160000160006101000a81548173ffffffffffffffffffffffffffffffffffffffff021916908373ffffffffffffffffffffffffffffffffffffffff16021790555060208201518160010160006101000a81548173ffffffffffffffffffffffffffffffffffffffff021916908373ffffffffffffffffffffffffffffffffffffffff1602179055506040820151816002015560608201518160030190805190602001906114d992919061271d565b5050506001905092915050565b6060600480546114f590613760565b80601f016020809104026020016040519081016040528092919081815260200182805461152190613760565b801561156e5780601f106115435761010080835404028352916020019161156e565b820191906000526020600020905b81548152906001019060200180831161155157829003601f168201915b5050505050905090565b600080611583611efc565b905060006115918286611c20565b9050838110156115d6576040517f08c379a00000000000000000000000000000000000000000000000000000000081526004016115cd9061347b565b60405180910390fd5b6115e38286868403611f04565b60019250505092915050565b6000806115fa611efc565b905061160781858561215b565b600191505092915050565b6000600954905090565b60606007805480602002602001604051908101604052809291908181526020016000905b828210156117ba57838290600052602060002090600402016040518060800160405290816000820160009054906101000a900473ffffffffffffffffffffffffffffffffffffffff1673ffffffffffffffffffffffffffffffffffffffff1673ffffffffffffffffffffffffffffffffffffffff1681526020016001820160009054906101000a900473ffffffffffffffffffffffffffffffffffffffff1673ffffffffffffffffffffffffffffffffffffffff1673ffffffffffffffffffffffffffffffffffffffff1681526020016002820154815260200160038201805461172990613760565b80601f016020809104026020016040519081016040528092919081815260200182805461175590613760565b80156117a25780601f10611777576101008083540402835291602001916117a2565b820191906000526020600020905b81548152906001019060200180831161178557829003601f168201915b50505050508152505081526020019060010190611640565b50505050905090565b600560405180608001604052808581526020018473ffffffffffffffffffffffffffffffffffffffff16815260200183815260200160008152509080600181540180825580915050600190039060005260206000209060040201600090919091909150600082015181600001908051906020019061184292919061271d565b5060208201518160010160006101000a81548173ffffffffffffffffffffffffffffffffffffffff021916908373ffffffffffffffffffffffffffffffffffffffff16021790555060408201518160020190805190602001906118a692919061271d565b50606082015181600301555050505050565b6060600060606000600585815481106118d4576118d361386a565b5b90600052602060002090600402016040518060800160405290816000820180546118fd90613760565b80601f016020809104026020016040519081016040528092919081815260200182805461192990613760565b80156119765780601f1061194b57610100808354040283529160200191611976565b820191906000526020600020905b81548152906001019060200180831161195957829003601f168201915b505050505081526020016001820160009054906101000a900473ffffffffffffffffffffffffffffffffffffffff1673ffffffffffffffffffffffffffffffffffffffff1673ffffffffffffffffffffffffffffffffffffffff1681526020016002820180546119e590613760565b80601f0160208091040260200160405190810160405280929190818152602001828054611a1190613760565b8015611a5e5780601f10611a3357610100808354040283529160200191611a5e565b820191906000526020600020905b815481529060010190602001808311611a4157829003601f168201915b505050505081526020016003820154815250509050806000015181602001518260400151935093509350509193909250565b60068181548110611aa057600080fd5b90600052602060002090600402016000915090508060000160009054906101000a900473ffffffffffffffffffffffffffffffffffffffff16908060010160009054906101000a900473ffffffffffffffffffffffffffffffffffffffff1690806002018054611b0f90613760565b80601f0160208091040260200160405190810160405280929190818152602001828054611b3b90613760565b8015611b885780601f10611b5d57610100808354040283529160200191611b88565b820191906000526020600020905b815481529060010190602001808311611b6b57829003601f168201915b505050505090806003018054611b9d90613760565b80601f0160208091040260200160405190810160405280929190818152602001828054611bc990613760565b8015611c165780601f10611beb57610100808354040283529160200191611c16565b820191906000526020600020905b815481529060010190602001808311611bf957829003601f168201915b5050505050905084565b6000600160008473ffffffffffffffffffffffffffffffffffffffff1673ffffffffffffffffffffffffffffffffffffffff16815260200190815260200160002060008373ffffffffffffffffffffffffffffffffffffffff1673ffffffffffffffffffffffffffffffffffffffff16815260200190815260200160002054905092915050565b60606006805480602002602001604051908101604052809291908181526020016000905b82821015611ecd57838290600052602060002090600402016040518060800160405290816000820160009054906101000a900473ffffffffffffffffffffffffffffffffffffffff1673ffffffffffffffffffffffffffffffffffffffff1673ffffffffffffffffffffffffffffffffffffffff1681526020016001820160009054906101000a900473ffffffffffffffffffffffffffffffffffffffff1673ffffffffffffffffffffffffffffffffffffffff1673ffffffffffffffffffffffffffffffffffffffff168152602001600282018054611daa90613760565b80601f0160208091040260200160405190810160405280929190818152602001828054611dd690613760565b8015611e235780601f10611df857610100808354040283529160200191611e23565b820191906000526020600020905b815481529060010190602001808311611e0657829003601f168201915b50505050508152602001600382018054611e3c90613760565b80601f0160208091040260200160405190810160405280929190818152602001828054611e6890613760565b8015611eb55780601f10611e8a57610100808354040283529160200191611eb5565b820191906000526020600020905b815481529060010190602001808311611e9857829003601f168201915b50505050508152505081526020019060010190611ccb565b50505050905090565b600860009054906101000a900473ffffffffffffffffffffffffffffffffffffffff1681565b600033905090565b600073ffffffffffffffffffffffffffffffffffffffff168373ffffffffffffffffffffffffffffffffffffffff161415611f74576040517f08c379a0000000000000000000000000000000000000000000000000000000008152600401611f6b9061345b565b60405180910390fd5b600073ffffffffffffffffffffffffffffffffffffffff168273ffffffffffffffffffffffffffffffffffffffff161415611fe4576040517f08c379a0000000000000000000000000000000000000000000000000000000008152600401611fdb9061339b565b60405180910390fd5b80600160008573ffffffffffffffffffffffffffffffffffffffff1673ffffffffffffffffffffffffffffffffffffffff16815260200190815260200160002060008473ffffffffffffffffffffffffffffffffffffffff1673ffffffffffffffffffffffffffffffffffffffff168152602001908152602001600020819055508173ffffffffffffffffffffffffffffffffffffffff168373ffffffffffffffffffffffffffffffffffffffff167f8c5be1e5ebec7d5bd14f71427d1e84f3dd0314c0f7b2291e5b200ac8c7c3b925836040516120c291906134bb565b60405180910390a3505050565b60006120db8484611c20565b90507fffffffffffffffffffffffffffffffffffffffffffffffffffffffffffffffff81146121555781811015612147576040517f08c379a000000000000000000000000000000000000000000000000000000000815260040161213e906133bb565b60405180910390fd5b6121548484848403611f04565b5b50505050565b600073ffffffffffffffffffffffffffffffffffffffff168373ffffffffffffffffffffffffffffffffffffffff1614156121cb576040517f08c379a00000000000000000000000000000000000000000000000000000000081526004016121c29061343b565b60405180910390fd5b600073ffffffffffffffffffffffffffffffffffffffff168273ffffffffffffffffffffffffffffffffffffffff16141561223b576040517f08c379a00000000000000000000000000000000000000000000000000000000081526004016122329061335b565b60405180910390fd5b612246838383612713565b60008060008573ffffffffffffffffffffffffffffffffffffffff1673ffffffffffffffffffffffffffffffffffffffff168152602001908152602001600020549050818110156122cc576040517f08c379a00000000000000000000000000000000000000000000000000000000081526004016122c3906133db565b60405180910390fd5b8181036000808673ffffffffffffffffffffffffffffffffffffffff1673ffffffffffffffffffffffffffffffffffffffff16815260200190815260200160002081905550816000808573ffffffffffffffffffffffffffffffffffffffff1673ffffffffffffffffffffffffffffffffffffffff168152602001908152602001600020600082825461235f919061363f565b925050819055508273ffffffffffffffffffffffffffffffffffffffff168473ffffffffffffffffffffffffffffffffffffffff167fddf252ad1be2c89b69c2b068fc378daa952ba7f163c4a11628f55a4df523b3ef846040516123c391906134bb565b60405180910390a36123d6848484612718565b50505050565b600073ffffffffffffffffffffffffffffffffffffffff168273ffffffffffffffffffffffffffffffffffffffff16141561244c576040517f08c379a00000000000000000000000000000000000000000000000000000000081526004016124439061349b565b60405180910390fd5b61245860008383612713565b806002600082825461246a919061363f565b92505081905550806000808473ffffffffffffffffffffffffffffffffffffffff1673ffffffffffffffffffffffffffffffffffffffff16815260200190815260200160002060008282546124bf919061363f565b925050819055508173ffffffffffffffffffffffffffffffffffffffff16600073ffffffffffffffffffffffffffffffffffffffff167fddf252ad1be2c89b69c2b068fc378daa952ba7f163c4a11628f55a4df523b3ef8360405161252491906134bb565b60405180910390a361253860008383612718565b5050565b600073ffffffffffffffffffffffffffffffffffffffff168273ffffffffffffffffffffffffffffffffffffffff1614156125ac576040517f08c379a00000000000000000000000000000000000000000000000000000000081526004016125a39061341b565b60405180910390fd5b6125b882600083612713565b60008060008473ffffffffffffffffffffffffffffffffffffffff1673ffffffffffffffffffffffffffffffffffffffff1681526020019081526020016000205490508181101561263e576040517f08c379a00000000000000000000000000000000000000000000000000000000081526004016126359061337b565b60405180910390fd5b8181036000808573ffffffffffffffffffffffffffffffffffffffff1673ffffffffffffffffffffffffffffffffffffffff1681526020019081526020016000208190555081600260008282546126959190613695565b92505081905550600073ffffffffffffffffffffffffffffffffffffffff168373ffffffffffffffffffffffffffffffffffffffff167fddf252ad1be2c89b69c2b068fc378daa952ba7f163c4a11628f55a4df523b3ef846040516126fa91906134bb565b60405180910390a361270e83600084612718565b505050565b505050565b505050565b82805461272990613760565b90600052602060002090601f01602090048101928261274b5760008555612792565b82601f1061276457805160ff1916838001178555612792565b82800160010185558215612792579182015b82811115612791578251825591602001919060010190612776565b5b50905061279f91906127a3565b5090565b5b808211156127bc5760008160009055506001016127a4565b5090565b60006127d36127ce84613516565b6134f1565b9050828152602081018484840111156127ef576127ee6138cd565b5b6127fa84828561371e565b509392505050565b60008135905061281181613be0565b92915050565b600082601f83011261282c5761282b6138c8565b5b813561283c8482602086016127c0565b91505092915050565b60008135905061285481613bf7565b92915050565b6000602082840312156128705761286f6138d7565b5b600061287e84828501612802565b91505092915050565b6000806040838503121561289e5761289d6138d7565b5b60006128ac85828601612802565b92505060206128bd85828601612802565b9150509250929050565b600080600080608085870312156128e1576128e06138d7565b5b60006128ef87828801612802565b945050602061290087828801612802565b935050604085013567ffffffffffffffff811115612921576129206138d2565b5b61292d87828801612817565b925050606085013567ffffffffffffffff81111561294e5761294d6138d2565b5b61295a87828801612817565b91505092959194509250565b60008060006060848603121561297f5761297e6138d7565b5b600061298d86828701612802565b935050602061299e86828701612802565b92505060406129af86828701612845565b9150509250925092565b600080604083850312156129d0576129cf6138d7565b5b60006129de85828601612802565b92505060206129ef85828601612845565b9150509250929050565b600080600060608486031215612a1257612a116138d7565b5b6000612a2086828701612802565b9350506020612a3186828701612845565b925050604084013567ffffffffffffffff811115612a5257612a516138d2565b5b612a5e86828701612817565b9150509250925092565b600060208284031215612a7e57612a7d6138d7565b5b600082013567ffffffffffffffff811115612a9c57612a9b6138d2565b5b612aa884828501612817565b91505092915050565b600080600060608486031215612aca57612ac96138d7565b5b600084013567ffffffffffffffff811115612ae857612ae76138d2565b5b612af486828701612817565b9350506020612b0586828701612802565b925050604084013567ffffffffffffffff811115612b2657612b256138d2565b5b612b3286828701612817565b9150509250925092565b600060208284031215612b5257612b516138d7565b5b6000612b6084828501612845565b91505092915050565b6000612b758383612fd4565b905092915050565b6000612b89838361303e565b905092915050565b6000612b9d83836130a1565b905092915050565b612bae816136c9565b82525050565b612bbd816136c9565b82525050565b6000612bce8261358c565b612bd881856135df565b935083602082028501612bea85613547565b8060005b85811015612c265784840389528151612c078582612b69565b9450612c12836135b8565b925060208a01995050600181019050612bee565b50829750879550505050505092915050565b6000612c4382613597565b612c4d81856135f0565b935083602082028501612c5f85613557565b8060005b85811015612c9b5784840389528151612c7c8582612b7d565b9450612c87836135c5565b925060208a01995050600181019050612c63565b50829750879550505050505092915050565b6000612cb8826135a2565b612cc28185613601565b935083602082028501612cd485613567565b8060005b85811015612d105784840389528151612cf18582612b91565b9450612cfc836135d2565b925060208a01995050600181019050612cd8565b50829750879550505050505092915050565b612d2b816136db565b82525050565b6000612d3c826135ad565b612d468185613612565b9350612d5681856020860161372d565b612d5f816138dc565b840191505092915050565b6000612d75826135ad565b612d7f8185613623565b9350612d8f81856020860161372d565b612d98816138dc565b840191505092915050565b6000612dae826135ad565b612db88185613634565b9350612dc881856020860161372d565b80840191505092915050565b60008154612de181613760565b612deb8186613634565b94506001821660008114612e065760018114612e1757612e4a565b60ff19831686528186019350612e4a565b612e2085613577565b60005b83811015612e4257815481890152600182019150602081019050612e23565b838801955050505b50505092915050565b6000612e60602383613623565b9150612e6b826138ed565b604082019050919050565b6000612e83602283613623565b9150612e8e8261393c565b604082019050919050565b6000612ea6602283613623565b9150612eb18261398b565b604082019050919050565b6000612ec9601d83613623565b9150612ed4826139da565b602082019050919050565b6000612eec602683613623565b9150612ef782613a03565b604082019050919050565b6000612f0f600a83613623565b9150612f1a82613a52565b602082019050919050565b6000612f32602183613623565b9150612f3d82613a7b565b604082019050919050565b6000612f55602583613623565b9150612f6082613aca565b604082019050919050565b6000612f78602483613623565b9150612f8382613b19565b604082019050919050565b6000612f9b602583613623565b9150612fa682613b68565b604082019050919050565b6000612fbe601f83613623565b9150612fc982613bb7565b602082019050919050565b6000608083016000830151612fec6000860182612ba5565b506020830151612fff6020860182612ba5565b50604083015184820360408601526130178282612d31565b915050606083015184820360608601526130318282612d31565b9150508091505092915050565b60006080830160008301516130566000860182612ba5565b5060208301516130696020860182612ba5565b50604083015161307c604086018261310b565b50606083015184820360608601526130948282612d31565b9150508091505092915050565b600060808301600083015184820360008601526130be8282612d31565b91505060208301516130d36020860182612ba5565b50604083015184820360408601526130eb8282612d31565b9150506060830151613100606086018261310b565b508091505092915050565b61311481613707565b82525050565b61312381613707565b82525050565b61313281613711565b82525050565b60006131448284612da3565b915081905092915050565b600061315b8284612dd4565b915081905092915050565b600060208201905061317b6000830184612bb4565b92915050565b60006080820190506131966000830187612bb4565b6131a36020830186612bb4565b81810360408301526131b58185612d6a565b905081810360608301526131c98184612d6a565b905095945050505050565b60006080820190506131e96000830187612bb4565b6131f66020830186612bb4565b613203604083018561311a565b81810360608301526132158184612d6a565b905095945050505050565b6000602082019050818103600083015261323a8184612bc3565b905092915050565b6000602082019050818103600083015261325c8184612c38565b905092915050565b6000602082019050818103600083015261327e8184612cad565b905092915050565b600060208201905061329b6000830184612d22565b92915050565b600060208201905081810360008301526132bb8184612d6a565b905092915050565b600060608201905081810360008301526132dd8186612d6a565b90506132ec6020830185612bb4565b81810360408301526132fe8184612d6a565b9050949350505050565b600060808201905081810360008301526133228187612d6a565b90506133316020830186612bb4565b81810360408301526133438185612d6a565b9050613352606083018461311a565b95945050505050565b6000602082019050818103600083015261337481612e53565b9050919050565b6000602082019050818103600083015261339481612e76565b9050919050565b600060208201905081810360008301526133b481612e99565b9050919050565b600060208201905081810360008301526133d481612ebc565b9050919050565b600060208201905081810360008301526133f481612edf565b9050919050565b6000602082019050818103600083015261341481612f02565b9050919050565b6000602082019050818103600083015261343481612f25565b9050919050565b6000602082019050818103600083015261345481612f48565b9050919050565b6000602082019050818103600083015261347481612f6b565b9050919050565b6000602082019050818103600083015261349481612f8e565b9050919050565b600060208201905081810360008301526134b481612fb1565b9050919050565b60006020820190506134d0600083018461311a565b92915050565b60006020820190506134eb6000830184613129565b92915050565b60006134fb61350c565b90506135078282613792565b919050565b6000604051905090565b600067ffffffffffffffff82111561353157613530613899565b5b61353a826138dc565b9050602081019050919050565b6000819050602082019050919050565b6000819050602082019050919050565b6000819050602082019050919050565b60008190508160005260206000209050919050565b600081519050919050565b600081519050919050565b600081519050919050565b600081519050919050565b6000602082019050919050565b6000602082019050919050565b6000602082019050919050565b600082825260208201905092915050565b600082825260208201905092915050565b600082825260208201905092915050565b600082825260208201905092915050565b600082825260208201905092915050565b600081905092915050565b600061364a82613707565b915061365583613707565b9250827fffffffffffffffffffffffffffffffffffffffffffffffffffffffffffffffff0382111561368a5761368961380c565b5b828201905092915050565b60006136a082613707565b91506136ab83613707565b9250828210156136be576136bd61380c565b5b828203905092915050565b60006136d4826136e7565b9050919050565b60008115159050919050565b600073ffffffffffffffffffffffffffffffffffffffff82169050919050565b6000819050919050565b600060ff82169050919050565b82818337600083830152505050565b60005b8381101561374b578082015181840152602081019050613730565b8381111561375a576000848401525b50505050565b6000600282049050600182168061377857607f821691505b6020821081141561378c5761378b61383b565b5b50919050565b61379b826138dc565b810181811067ffffffffffffffff821117156137ba576137b9613899565b5b80604052505050565b60006137ce82613707565b91507fffffffffffffffffffffffffffffffffffffffffffffffffffffffffffffffff8214156138015761380061380c565b5b600182019050919050565b7f4e487b7100000000000000000000000000000000000000000000000000000000600052601160045260246000fd5b7f4e487b7100000000000000000000000000000000000000000000000000000000600052602260045260246000fd5b7f4e487b7100000000000000000000000000000000000000000000000000000000600052603260045260246000fd5b7f4e487b7100000000000000000000000000000000000000000000000000000000600052604160045260246000fd5b600080fd5b600080fd5b600080fd5b600080fd5b6000601f19601f8301169050919050565b7f45524332303a207472616e7366657220746f20746865207a65726f206164647260008201527f6573730000000000000000000000000000000000000000000000000000000000602082015250565b7f45524332303a206275726e20616d6f756e7420657863656564732062616c616e60008201527f6365000000000000000000000000000000000000000000000000000000000000602082015250565b7f45524332303a20617070726f766520746f20746865207a65726f20616464726560008201527f7373000000000000000000000000000000000000000000000000000000000000602082015250565b7f45524332303a20696e73756666696369656e7420616c6c6f77616e6365000000600082015250565b7f45524332303a207472616e7366657220616d6f756e742065786365656473206260008201527f616c616e63650000000000000000000000000000000000000000000000000000602082015250565b7f6f6e6c792061646d696e00000000000000000000000000000000000000000000600082015250565b7f45524332303a206275726e2066726f6d20746865207a65726f2061646472657360008201527f7300000000000000000000000000000000000000000000000000000000000000602082015250565b7f45524332303a207472616e736665722066726f6d20746865207a65726f20616460008201527f6472657373000000000000000000000000000000000000000000000000000000602082015250565b7f45524332303a20617070726f76652066726f6d20746865207a65726f2061646460008201527f7265737300000000000000000000000000000000000000000000000000000000602082015250565b7f45524332303a2064656372656173656420616c6c6f77616e63652062656c6f7760008201527f207a65726f000000000000000000000000000000000000000000000000000000602082015250565b7f45524332303a206d696e7420746f20746865207a65726f206164647265737300600082015250565b613be9816136c9565b8114613bf457600080fd5b50565b613c0081613707565b8114613c0b57600080fd5b5056fea26469706673582212200d77099c0fb9c5e2ee29e91a58ab97f8f6a2832244f0a8cba399c11f53fe580164736f6c63430008050033",
  "immutableReferences": {},
  "source": "// SPDX-License-Identifier: MIT\r\n\r\npragma solidity ^0.8.5;\r\n\r\n\r\nimport \"@openzeppelin/contracts/token/ERC20/ERC20.sol\";\r\n\r\n\r\ncontract HAT_TOKEN is ERC20 {\r\n    \r\n    \r\n    \r\n    struct User{\r\n        string name;\r\n        address user_crypto_id;\r\n        string password;\r\n        uint256 balance;\r\n    }\r\n    \r\n    \r\n    struct Transaction{\r\n        address sender;\r\n        address reciver;\r\n        uint256 amount;\r\n        string transaction_type;\r\n    }\r\n    \r\n    \r\n    struct Contact{\r\n        address owner;\r\n        address contact_name;\r\n        string name;\r\n        string contact_type;\r\n    }\r\n\r\n    //event NewUser( string name, address user_crypto_id, string password);\r\n    \r\n    User[] public Users;\r\n    Contact[] public Contacts;\r\n    Transaction[] public Transactions;\r\n\r\n    \r\n\r\n\r\n    \r\n    address public admin;\r\n    uint256 total_hat_burnt;\r\n    \r\n    constructor() ERC20('Hitaya Token', 'HAT'){\r\n        _mint(msg.sender, 1000000000 * 10 ** 18);\r\n    }\r\n    \r\n    \r\n    function mint(address to, uint amount) external {\r\n        require(msg.sender==admin, 'only admin');\r\n        _mint(to, amount);\r\n    }\r\n    \r\n    \r\n    function burn(uint amount) external {\r\n        total_hat_burnt+=amount;\r\n        _burn(msg.sender, amount);\r\n    }\r\n    \r\n    \r\n    function change_admin(address _address) public{\r\n        admin=_address;\r\n    }\r\n    \r\n\r\n    function login(string memory _password) public view returns (bool){\r\n        for (uint i=0;i<Users.length;i++){\r\n            if (Users[i].user_crypto_id==msg.sender && keccak256(abi.encodePacked(Users[i].password))==keccak256(abi.encodePacked(_password))){\r\n                return true;\r\n            }\r\n        }\r\n        return false;\r\n    }\r\n    \r\n    \r\n    function hat_burnt() public view returns(uint256){\r\n        return (total_hat_burnt);\r\n    }\r\n    \r\n\r\n    function _create_New_User(string memory _name, address _user_crypto_id, string memory _password) public {\r\n        Users.push(User( _name, _user_crypto_id, _password, 0));   \r\n    }\r\n    \r\n    \r\n    function _create_New_Contact(address _owner, address _contact_name, string memory _name, string memory _contact_type) public {\r\n        Contacts.push(Contact( _owner, _contact_name, _name,_contact_type));\r\n    }\r\n    \r\n\r\n    function transfer(address recipient, uint256 amount, string memory _trans_type) public virtual returns (bool) {\r\n        _transfer(msg.sender, recipient, amount);\r\n        for (uint i=0;i<Users.length;i++){\r\n            if (Users[i].user_crypto_id==msg.sender){\r\n                Users[i].balance=Users[i].balance-amount;\r\n            }\r\n            if (Users[i].user_crypto_id==recipient){\r\n                Users[i].balance=Users[i].balance+amount;\r\n            }\r\n        }\r\n        Transactions.push(Transaction( msg.sender, recipient, amount, _trans_type));\r\n        return true;\r\n    }\r\n    \r\n    \r\n    function airdrop(address recipient, uint256 amount) public virtual returns (bool) {\r\n        _transfer(msg.sender, recipient, amount);\r\n        for (uint i=0;i<Users.length;i++){\r\n            if (Users[i].user_crypto_id==recipient){\r\n                Users[i].balance=Users[i].balance+amount;\r\n            }\r\n        }\r\n        Transactions.push(Transaction( msg.sender, recipient, amount, \"AIR DROP\"));\r\n        return true;\r\n    }\r\n    \r\n    \r\n    function user_view(uint id) public view returns (string memory ,address , string memory)\r\n    {\r\n        User memory p = Users[id];\r\n        return (p.name,p.user_crypto_id,p.password); \r\n    }\r\n\r\n    \r\n    \r\n    function user_view() public view returns (User[] memory)\r\n    {\r\n\r\n        return (Users); \r\n    }\r\n    \r\n    \r\n    function transaction_view() public view returns (Transaction[] memory)\r\n    {\r\n\r\n        return (Transactions); \r\n    }\r\n    \r\n    \r\n    function contacts_view() public view returns (Contact[] memory)\r\n    {\r\n\r\n        return (Contacts);\r\n    }\r\n}\r\n",
  "sourcePath": "C:\\Users\\ZEUS\\Desktop\\Intelegix Labs\\Hitaya_Chain\\truffle\\contracts\\HAT_TOKEN.sol",
  "compiler": {
    "name": "solc",
    "version": "0.8.5+commit.a4f2e591.Emscripten.clang"
  },
  "schemaVersion": "3.4.7",
  "updatedAt": "2022-05-27T06:14:42.067Z",
  "devdoc": {
    "kind": "dev",
    "methods": {
      "allowance(address,address)": {
        "details": "See {IERC20-allowance}."
      },
      "approve(address,uint256)": {
        "details": "See {IERC20-approve}. NOTE: If `amount` is the maximum `uint256`, the allowance is not updated on `transferFrom`. This is semantically equivalent to an infinite approval. Requirements: - `spender` cannot be the zero address."
      },
      "balanceOf(address)": {
        "details": "See {IERC20-balanceOf}."
      },
      "decimals()": {
        "details": "Returns the number of decimals used to get its user representation. For example, if `decimals` equals `2`, a balance of `505` tokens should be displayed to a user as `5.05` (`505 / 10 ** 2`). Tokens usually opt for a value of 18, imitating the relationship between Ether and Wei. This is the value {ERC20} uses, unless this function is overridden; NOTE: This information is only used for _display_ purposes: it in no way affects any of the arithmetic of the contract, including {IERC20-balanceOf} and {IERC20-transfer}."
      },
      "decreaseAllowance(address,uint256)": {
        "details": "Atomically decreases the allowance granted to `spender` by the caller. This is an alternative to {approve} that can be used as a mitigation for problems described in {IERC20-approve}. Emits an {Approval} event indicating the updated allowance. Requirements: - `spender` cannot be the zero address. - `spender` must have allowance for the caller of at least `subtractedValue`."
      },
      "increaseAllowance(address,uint256)": {
        "details": "Atomically increases the allowance granted to `spender` by the caller. This is an alternative to {approve} that can be used as a mitigation for problems described in {IERC20-approve}. Emits an {Approval} event indicating the updated allowance. Requirements: - `spender` cannot be the zero address."
      },
      "name()": {
        "details": "Returns the name of the token."
      },
      "symbol()": {
        "details": "Returns the symbol of the token, usually a shorter version of the name."
      },
      "totalSupply()": {
        "details": "See {IERC20-totalSupply}."
      },
      "transfer(address,uint256)": {
        "details": "See {IERC20-transfer}. Requirements: - `to` cannot be the zero address. - the caller must have a balance of at least `amount`."
      },
      "transferFrom(address,address,uint256)": {
        "details": "See {IERC20-transferFrom}. Emits an {Approval} event indicating the updated allowance. This is not required by the EIP. See the note at the beginning of {ERC20}. NOTE: Does not update the allowance if the current allowance is the maximum `uint256`. Requirements: - `from` and `to` cannot be the zero address. - `from` must have a balance of at least `amount`. - the caller must have allowance for ``from``'s tokens of at least `amount`."
      }
    },
    "version": 1
  },
  "userdoc": {
    "kind": "user",
    "methods": {},
    "version": 1
  }
}