{
  "contractName": "HAT_TOKEN",
  "abi": [
    {
      "inputs": [],
      "stateMutability": "nonpayable",
      "type": "constructor"
    },
    {
      "anonymous": false,
      "inputs": [
        {
          "indexed": true,
          "internalType": "address",
          "name": "owner",
          "type": "address"
        },
        {
          "indexed": true,
          "internalType": "address",
          "name": "spender",
          "type": "address"
        },
        {
          "indexed": false,
          "internalType": "uint256",
          "name": "value",
          "type": "uint256"
        }
      ],
      "name": "Approval",
      "type": "event"
    },
    {
      "anonymous": false,
      "inputs": [
        {
          "indexed": true,
          "internalType": "address",
          "name": "from",
          "type": "address"
        },
        {
          "indexed": true,
          "internalType": "address",
          "name": "to",
          "type": "address"
        },
        {
          "indexed": false,
          "internalType": "uint256",
          "name": "value",
          "type": "uint256"
        }
      ],
      "name": "Transfer",
      "type": "event"
    },
    {
      "inputs": [
        {
          "internalType": "uint256",
          "name": "",
          "type": "uint256"
        }
      ],
      "name": "Contacts",
      "outputs": [
        {
          "internalType": "address",
          "name": "owner",
          "type": "address"
        },
        {
          "internalType": "address",
          "name": "contact_name",
          "type": "address"
        },
        {
          "internalType": "string",
          "name": "name",
          "type": "string"
        },
        {
          "internalType": "string",
          "name": "contact_type",
          "type": "string"
        }
      ],
      "stateMutability": "view",
      "type": "function"
    },
    {
      "inputs": [
        {
          "internalType": "uint256",
          "name": "",
          "type": "uint256"
        }
      ],
      "name": "Transactions",
      "outputs": [
        {
          "internalType": "address",
          "name": "sender",
          "type": "address"
        },
        {
          "internalType": "address",
          "name": "reciver",
          "type": "address"
        },
        {
          "internalType": "uint256",
          "name": "amount",
          "type": "uint256"
        },
        {
          "internalType": "string",
          "name": "transaction_type",
          "type": "string"
        }
      ],
      "stateMutability": "view",
      "type": "function"
    },
    {
      "inputs": [
        {
          "internalType": "uint256",
          "name": "",
          "type": "uint256"
        }
      ],
      "name": "Users",
      "outputs": [
        {
          "internalType": "string",
          "name": "name",
          "type": "string"
        },
        {
          "internalType": "address",
          "name": "user_crypto_id",
          "type": "address"
        },
        {
          "internalType": "string",
          "name": "password",
          "type": "string"
        }
      ],
      "stateMutability": "view",
      "type": "function"
    },
    {
      "inputs": [],
      "name": "admin",
      "outputs": [
        {
          "internalType": "address",
          "name": "",
          "type": "address"
        }
      ],
      "stateMutability": "view",
      "type": "function"
    },
    {
      "inputs": [
        {
          "internalType": "address",
          "name": "owner",
          "type": "address"
        },
        {
          "internalType": "address",
          "name": "spender",
          "type": "address"
        }
      ],
      "name": "allowance",
      "outputs": [
        {
          "internalType": "uint256",
          "name": "",
          "type": "uint256"
        }
      ],
      "stateMutability": "view",
      "type": "function"
    },
    {
      "inputs": [
        {
          "internalType": "address",
          "name": "spender",
          "type": "address"
        },
        {
          "internalType": "uint256",
          "name": "amount",
          "type": "uint256"
        }
      ],
      "name": "approve",
      "outputs": [
        {
          "internalType": "bool",
          "name": "",
          "type": "bool"
        }
      ],
      "stateMutability": "nonpayable",
      "type": "function"
    },
    {
      "inputs": [
        {
          "internalType": "address",
          "name": "account",
          "type": "address"
        }
      ],
      "name": "balanceOf",
      "outputs": [
        {
          "internalType": "uint256",
          "name": "",
          "type": "uint256"
        }
      ],
      "stateMutability": "view",
      "type": "function"
    },
    {
      "inputs": [],
      "name": "decimals",
      "outputs": [
        {
          "internalType": "uint8",
          "name": "",
          "type": "uint8"
        }
      ],
      "stateMutability": "view",
      "type": "function"
    },
    {
      "inputs": [
        {
          "internalType": "address",
          "name": "spender",
          "type": "address"
        },
        {
          "internalType": "uint256",
          "name": "subtractedValue",
          "type": "uint256"
        }
      ],
      "name": "decreaseAllowance",
      "outputs": [
        {
          "internalType": "bool",
          "name": "",
          "type": "bool"
        }
      ],
      "stateMutability": "nonpayable",
      "type": "function"
    },
    {
      "inputs": [
        {
          "internalType": "address",
          "name": "spender",
          "type": "address"
        },
        {
          "internalType": "uint256",
          "name": "addedValue",
          "type": "uint256"
        }
      ],
      "name": "increaseAllowance",
      "outputs": [
        {
          "internalType": "bool",
          "name": "",
          "type": "bool"
        }
      ],
      "stateMutability": "nonpayable",
      "type": "function"
    },
    {
      "inputs": [],
      "name": "name",
      "outputs": [
        {
          "internalType": "string",
          "name": "",
          "type": "string"
        }
      ],
      "stateMutability": "view",
      "type": "function"
    },
    {
      "inputs": [],
      "name": "symbol",
      "outputs": [
        {
          "internalType": "string",
          "name": "",
          "type": "string"
        }
      ],
      "stateMutability": "view",
      "type": "function"
    },
    {
      "inputs": [],
      "name": "totalSupply",
      "outputs": [
        {
          "internalType": "uint256",
          "name": "",
          "type": "uint256"
        }
      ],
      "stateMutability": "view",
      "type": "function"
    },
    {
      "inputs": [
        {
          "internalType": "address",
          "name": "from",
          "type": "address"
        },
        {
          "internalType": "address",
          "name": "to",
          "type": "address"
        },
        {
          "internalType": "uint256",
          "name": "amount",
          "type": "uint256"
        }
      ],
      "name": "transferFrom",
      "outputs": [
        {
          "internalType": "bool",
          "name": "",
          "type": "bool"
        }
      ],
      "stateMutability": "nonpayable",
      "type": "function"
    },
    {
      "inputs": [
        {
          "internalType": "address",
          "name": "to",
          "type": "address"
        },
        {
          "internalType": "uint256",
          "name": "amount",
          "type": "uint256"
        }
      ],
      "name": "mint",
      "outputs": [],
      "stateMutability": "nonpayable",
      "type": "function"
    },
    {
      "inputs": [
        {
          "internalType": "uint256",
          "name": "amount",
          "type": "uint256"
        }
      ],
      "name": "burn",
      "outputs": [],
      "stateMutability": "nonpayable",
      "type": "function"
    },
    {
      "inputs": [
        {
          "internalType": "address",
          "name": "_address",
          "type": "address"
        }
      ],
      "name": "change_admin",
      "outputs": [],
      "stateMutability": "nonpayable",
      "type": "function"
    },
    {
      "inputs": [
        {
          "internalType": "string",
          "name": "_password",
          "type": "string"
        }
      ],
      "name": "login",
      "outputs": [
        {
          "internalType": "bool",
          "name": "",
          "type": "bool"
        }
      ],
      "stateMutability": "view",
      "type": "function"
    },
    {
      "inputs": [],
      "name": "hat_burnt",
      "outputs": [
        {
          "internalType": "uint256",
          "name": "",
          "type": "uint256"
        }
      ],
      "stateMutability": "view",
      "type": "function"
    },
    {
      "inputs": [
        {
          "internalType": "string",
          "name": "_name",
          "type": "string"
        },
        {
          "internalType": "address",
          "name": "_user_crypto_id",
          "type": "address"
        },
        {
          "internalType": "string",
          "name": "_password",
          "type": "string"
        }
      ],
      "name": "_create_New_User",
      "outputs": [],
      "stateMutability": "nonpayable",
      "type": "function"
    },
    {
      "inputs": [
        {
          "internalType": "address",
          "name": "_owner",
          "type": "address"
        },
        {
          "internalType": "address",
          "name": "_contact_name",
          "type": "address"
        },
        {
          "internalType": "string",
          "name": "_name",
          "type": "string"
        },
        {
          "internalType": "string",
          "name": "_contact_type",
          "type": "string"
        }
      ],
      "name": "_create_New_Contact",
      "outputs": [],
      "stateMutability": "nonpayable",
      "type": "function"
    },
    {
      "inputs": [
        {
          "internalType": "address",
          "name": "recipient",
          "type": "address"
        },
        {
          "internalType": "uint256",
          "name": "amount",
          "type": "uint256"
        },
        {
          "internalType": "string",
          "name": "_trans_type",
          "type": "string"
        }
      ],
      "name": "transfer",
      "outputs": [
        {
          "internalType": "bool",
          "name": "",
          "type": "bool"
        }
      ],
      "stateMutability": "nonpayable",
      "type": "function"
    },
    {
      "inputs": [
        {
          "internalType": "address",
          "name": "to",
          "type": "address"
        },
        {
          "internalType": "uint256",
          "name": "amount",
          "type": "uint256"
        }
      ],
      "name": "transfer",
      "outputs": [
        {
          "internalType": "bool",
          "name": "",
          "type": "bool"
        }
      ],
      "stateMutability": "nonpayable",
      "type": "function"
    },
    {
      "inputs": [
        {
          "internalType": "address",
          "name": "recipient",
          "type": "address"
        },
        {
          "internalType": "uint256",
          "name": "amount",
          "type": "uint256"
        }
      ],
      "name": "airdrop",
      "outputs": [
        {
          "internalType": "bool",
          "name": "",
          "type": "bool"
        }
      ],
      "stateMutability": "nonpayable",
      "type": "function"
    },
    {
      "inputs": [],
      "name": "user_view",
      "outputs": [
        {
          "components": [
            {
              "internalType": "string",
              "name": "name",
              "type": "string"
            },
            {
              "internalType": "address",
              "name": "user_crypto_id",
              "type": "address"
            },
            {
              "internalType": "string",
              "name": "password",
              "type": "string"
            }
          ],
          "internalType": "struct HAT_TOKEN.User[]",
          "name": "",
          "type": "tuple[]"
        }
      ],
      "stateMutability": "view",
      "type": "function"
    },
    {
      "inputs": [
        {
          "internalType": "uint256",
          "name": "id",
          "type": "uint256"
        }
      ],
      "name": "user_view",
      "outputs": [
        {
          "internalType": "string",
          "name": "",
          "type": "string"
        },
        {
          "internalType": "address",
          "name": "",
          "type": "address"
        },
        {
          "internalType": "string",
          "name": "",
          "type": "string"
        }
      ],
      "stateMutability": "view",
      "type": "function"
    },
    {
      "inputs": [],
      "name": "transaction_view",
      "outputs": [
        {
          "components": [
            {
              "internalType": "address",
              "name": "sender",
              "type": "address"
            },
            {
              "internalType": "address",
              "name": "reciver",
              "type": "address"
            },
            {
              "internalType": "uint256",
              "name": "amount",
              "type": "uint256"
            },
            {
              "internalType": "string",
              "name": "transaction_type",
              "type": "string"
            }
          ],
          "internalType": "struct HAT_TOKEN.Transaction[]",
          "name": "",
          "type": "tuple[]"
        }
      ],
      "stateMutability": "view",
      "type": "function"
    },
    {
      "inputs": [],
      "name": "contacts_view",
      "outputs": [
        {
          "components": [
            {
              "internalType": "address",
              "name": "owner",
              "type": "address"
            },
            {
              "internalType": "address",
              "name": "contact_name",
              "type": "address"
            },
            {
              "internalType": "string",
              "name": "name",
              "type": "string"
            },
            {
              "internalType": "string",
              "name": "contact_type",
              "type": "string"
            }
          ],
          "internalType": "struct HAT_TOKEN.Contact[]",
          "name": "",
          "type": "tuple[]"
        }
      ],
      "stateMutability": "view",
      "type": "function"
    }
  ],
  "bytecode": "0x60806040523480156200001157600080fd5b506040518060400160405280600c81526020017f48697461796120546f6b656e00000000000000000000000000000000000000008152506040518060400160405280600381526020017f484154000000000000000000000000000000000000000000000000000000000081525081600390805190602001906200009692919062000259565b508060049080519060200190620000af92919062000259565b505050620000d0336b033b2e3c9fd0803ce8000000620000d660201b60201c565b620004b5565b600073ffffffffffffffffffffffffffffffffffffffff168273ffffffffffffffffffffffffffffffffffffffff16141562000149576040517f08c379a0000000000000000000000000000000000000000000000000000000008152600401620001409062000341565b60405180910390fd5b6200015d600083836200024f60201b60201c565b806002600082825462000171919062000391565b92505081905550806000808473ffffffffffffffffffffffffffffffffffffffff1673ffffffffffffffffffffffffffffffffffffffff1681526020019081526020016000206000828254620001c8919062000391565b925050819055508173ffffffffffffffffffffffffffffffffffffffff16600073ffffffffffffffffffffffffffffffffffffffff167fddf252ad1be2c89b69c2b068fc378daa952ba7f163c4a11628f55a4df523b3ef836040516200022f919062000363565b60405180910390a36200024b600083836200025460201b60201c565b5050565b505050565b505050565b8280546200026790620003f8565b90600052602060002090601f0160209004810192826200028b5760008555620002d7565b82601f10620002a657805160ff1916838001178555620002d7565b82800160010185558215620002d7579182015b82811115620002d6578251825591602001919060010190620002b9565b5b509050620002e69190620002ea565b5090565b5b8082111562000305576000816000905550600101620002eb565b5090565b600062000318601f8362000380565b915062000325826200048c565b602082019050919050565b6200033b81620003ee565b82525050565b600060208201905081810360008301526200035c8162000309565b9050919050565b60006020820190506200037a600083018462000330565b92915050565b600082825260208201905092915050565b60006200039e82620003ee565b9150620003ab83620003ee565b9250827fffffffffffffffffffffffffffffffffffffffffffffffffffffffffffffffff03821115620003e357620003e26200042e565b5b828201905092915050565b6000819050919050565b600060028204905060018216806200041157607f821691505b602082108114156200042857620004276200045d565b5b50919050565b7f4e487b7100000000000000000000000000000000000000000000000000000000600052601160045260246000fd5b7f4e487b7100000000000000000000000000000000000000000000000000000000600052602260045260246000fd5b7f45524332303a206d696e7420746f20746865207a65726f206164647265737300600082015250565b6138ee80620004c56000396000f3fe608060405234801561001057600080fd5b50600436106101c45760003560e01c806370a08231116100f9578063c87b6dc011610097578063da2e6c8711610071578063da2e6c871461056e578063dd62ed3e146105a1578063f6ee99e0146105d1578063f851a440146105ef576101c4565b8063c87b6dc014610502578063cf224e8a14610520578063d69f9a821461053c576101c4565b806395d89b41116100d357806395d89b4114610466578063a457c2d714610484578063a9059cbb146104b4578063c1201af3146104e4576101c4565b806370a08231146103e8578063827057f1146104185780638ba4cc3c14610436576101c4565b806334008b161161016657806340c10f191161014057806340c10f191461036457806342966c681461038057806356b8c7241461039c5780635eae5460146103cc576101c4565b806334008b16146102d157806339509351146103045780633a7d280c14610334576101c4565b806318160ddd116101a257806318160ddd146102335780631e98fd1c1461025157806323b872dd14610283578063313ce567146102b3576101c4565b806306fdde03146101c9578063095ea7b3146101e7578063158686b514610217575b600080fd5b6101d161060d565b6040516101de9190612f9e565b60405180910390f35b61020160048036038101906101fc91906126c9565b61069f565b60405161020e9190612f83565b60405180910390f35b610231600480360381019061022c919061256a565b6106c2565b005b61023b610706565b6040516102489190613165565b60405180910390f35b61026b6004803603810190610266919061284c565b610710565b60405161027a93929190612fc0565b60405180910390f35b61029d60048036038101906102989190612676565b61087a565b6040516102aa9190612f83565b60405180910390f35b6102bb6108a9565b6040516102c89190613180565b60405180910390f35b6102eb60048036038101906102e6919061284c565b6108b2565b6040516102fb9493929190612ed1565b60405180910390f35b61031e600480360381019061031991906126c9565b6109ba565b60405161032b9190612f83565b60405180910390f35b61034e60048036038101906103499190612778565b6109f1565b60405161035b9190612f83565b60405180910390f35b61037e600480360381019061037991906126c9565b610b22565b005b61039a6004803603810190610395919061284c565b610bc0565b005b6103b660048036038101906103b19190612709565b610be6565b6040516103c39190612f83565b60405180910390f35b6103e660048036038101906103e191906125d7565b610d2d565b005b61040260048036038101906103fd919061256a565b610e75565b60405161040f9190613165565b60405180910390f35b610420610ebd565b60405161042d9190612f61565b60405180910390f35b610450600480360381019061044b91906126c9565b611096565b60405161045d9190612f83565b60405180910390f35b61046e611211565b60405161047b9190612f9e565b60405180910390f35b61049e600480360381019061049991906126c9565b6112a3565b6040516104ab9190612f83565b60405180910390f35b6104ce60048036038101906104c991906126c9565b61131a565b6040516104db9190612f83565b60405180910390f35b6104ec61133d565b6040516104f99190613165565b60405180910390f35b61050a611347565b6040516105179190612f3f565b60405180910390f35b61053a600480360381019061053591906127c1565b6114ee565b005b6105566004803603810190610551919061284c565b6115d2565b60405161056593929190612fc0565b60405180910390f35b6105886004803603810190610583919061284c565b6117a0565b6040516105989493929190612e7e565b60405180910390f35b6105bb60048036038101906105b69190612597565b611930565b6040516105c89190613165565b60405180910390f35b6105d96119b7565b6040516105e69190612f1d565b60405180910390f35b6105f7611be6565b6040516106049190612e63565b60405180910390f35b60606003805461061c9061340a565b80601f01602080910402602001604051908101604052809291908181526020018280546106489061340a565b80156106955780601f1061066a57610100808354040283529160200191610695565b820191906000526020600020905b81548152906001019060200180831161067857829003601f168201915b5050505050905090565b6000806106aa611c0c565b90506106b7818585611c14565b600191505092915050565b80600860006101000a81548173ffffffffffffffffffffffffffffffffffffffff021916908373ffffffffffffffffffffffffffffffffffffffff16021790555050565b6000600254905090565b6005818154811061072057600080fd5b90600052602060002090600302016000915090508060000180546107439061340a565b80601f016020809104026020016040519081016040528092919081815260200182805461076f9061340a565b80156107bc5780601f10610791576101008083540402835291602001916107bc565b820191906000526020600020905b81548152906001019060200180831161079f57829003601f168201915b5050505050908060010160009054906101000a900473ffffffffffffffffffffffffffffffffffffffff16908060020180546107f79061340a565b80601f01602080910402602001604051908101604052809291908181526020018280546108239061340a565b80156108705780601f1061084557610100808354040283529160200191610870565b820191906000526020600020905b81548152906001019060200180831161085357829003601f168201915b5050505050905083565b600080610885611c0c565b9050610892858285611ddf565b61089d858585611e6b565b60019150509392505050565b60006012905090565b600781815481106108c257600080fd5b90600052602060002090600402016000915090508060000160009054906101000a900473ffffffffffffffffffffffffffffffffffffffff16908060010160009054906101000a900473ffffffffffffffffffffffffffffffffffffffff16908060020154908060030180546109379061340a565b80601f01602080910402602001604051908101604052809291908181526020018280546109639061340a565b80156109b05780601f10610985576101008083540402835291602001916109b0565b820191906000526020600020905b81548152906001019060200180831161099357829003601f168201915b5050505050905084565b6000806109c5611c0c565b90506109e68185856109d78589611930565b6109e191906132e9565b611c14565b600191505092915050565b600080600090505b600580549050811015610b17573373ffffffffffffffffffffffffffffffffffffffff1660058281548110610a3157610a30613514565b5b906000526020600020906003020160010160009054906101000a900473ffffffffffffffffffffffffffffffffffffffff1673ffffffffffffffffffffffffffffffffffffffff16148015610af5575082604051602001610a929190612e35565b6040516020818303038152906040528051906020012060058281548110610abc57610abb613514565b5b9060005260206000209060030201600201604051602001610add9190612e4c565b60405160208183030381529060405280519060200120145b15610b04576001915050610b1d565b8080610b0f9061346d565b9150506109f9565b50600090505b919050565b600860009054906101000a900473ffffffffffffffffffffffffffffffffffffffff1673ffffffffffffffffffffffffffffffffffffffff163373ffffffffffffffffffffffffffffffffffffffff1614610bb2576040517f08c379a0000000000000000000000000000000000000000000000000000000008152600401610ba9906130a5565b60405180910390fd5b610bbc82826120ec565b5050565b8060096000828254610bd291906132e9565b92505081905550610be3338261224c565b50565b6000610bf3338585611e6b565b600760405180608001604052803373ffffffffffffffffffffffffffffffffffffffff1681526020018673ffffffffffffffffffffffffffffffffffffffff16815260200185815260200184815250908060018154018082558091505060019003906000526020600020906004020160009091909190915060008201518160000160006101000a81548173ffffffffffffffffffffffffffffffffffffffff021916908373ffffffffffffffffffffffffffffffffffffffff16021790555060208201518160010160006101000a81548173ffffffffffffffffffffffffffffffffffffffff021916908373ffffffffffffffffffffffffffffffffffffffff160217905550604082015181600201556060820151816003019080519060200190610d1f92919061242d565b505050600190509392505050565b600660405180608001604052808673ffffffffffffffffffffffffffffffffffffffff1681526020018573ffffffffffffffffffffffffffffffffffffffff16815260200184815260200183815250908060018154018082558091505060019003906000526020600020906004020160009091909190915060008201518160000160006101000a81548173ffffffffffffffffffffffffffffffffffffffff021916908373ffffffffffffffffffffffffffffffffffffffff16021790555060208201518160010160006101000a81548173ffffffffffffffffffffffffffffffffffffffff021916908373ffffffffffffffffffffffffffffffffffffffff1602179055506040820151816002019080519060200190610e4f92919061242d565b506060820151816003019080519060200190610e6c92919061242d565b50505050505050565b60008060008373ffffffffffffffffffffffffffffffffffffffff1673ffffffffffffffffffffffffffffffffffffffff168152602001908152602001600020549050919050565b60606005805480602002602001604051908101604052809291908181526020016000905b8282101561108d5783829060005260206000209060030201604051806060016040529081600082018054610f149061340a565b80601f0160208091040260200160405190810160405280929190818152602001828054610f409061340a565b8015610f8d5780601f10610f6257610100808354040283529160200191610f8d565b820191906000526020600020905b815481529060010190602001808311610f7057829003601f168201915b505050505081526020016001820160009054906101000a900473ffffffffffffffffffffffffffffffffffffffff1673ffffffffffffffffffffffffffffffffffffffff1673ffffffffffffffffffffffffffffffffffffffff168152602001600282018054610ffc9061340a565b80601f01602080910402602001604051908101604052809291908181526020018280546110289061340a565b80156110755780601f1061104a57610100808354040283529160200191611075565b820191906000526020600020905b81548152906001019060200180831161105857829003601f168201915b50505050508152505081526020019060010190610ee1565b50505050905090565b60006110a3338484611e6b565b600760405180608001604052803373ffffffffffffffffffffffffffffffffffffffff1681526020018573ffffffffffffffffffffffffffffffffffffffff1681526020018481526020016040518060400160405280600881526020017f4149522044524f50000000000000000000000000000000000000000000000000815250815250908060018154018082558091505060019003906000526020600020906004020160009091909190915060008201518160000160006101000a81548173ffffffffffffffffffffffffffffffffffffffff021916908373ffffffffffffffffffffffffffffffffffffffff16021790555060208201518160010160006101000a81548173ffffffffffffffffffffffffffffffffffffffff021916908373ffffffffffffffffffffffffffffffffffffffff16021790555060408201518160020155606082015181600301908051906020019061120492919061242d565b5050506001905092915050565b6060600480546112209061340a565b80601f016020809104026020016040519081016040528092919081815260200182805461124c9061340a565b80156112995780601f1061126e57610100808354040283529160200191611299565b820191906000526020600020905b81548152906001019060200180831161127c57829003601f168201915b5050505050905090565b6000806112ae611c0c565b905060006112bc8286611930565b905083811015611301576040517f08c379a00000000000000000000000000000000000000000000000000000000081526004016112f890613125565b60405180910390fd5b61130e8286868403611c14565b60019250505092915050565b600080611325611c0c565b9050611332818585611e6b565b600191505092915050565b6000600954905090565b60606007805480602002602001604051908101604052809291908181526020016000905b828210156114e557838290600052602060002090600402016040518060800160405290816000820160009054906101000a900473ffffffffffffffffffffffffffffffffffffffff1673ffffffffffffffffffffffffffffffffffffffff1673ffffffffffffffffffffffffffffffffffffffff1681526020016001820160009054906101000a900473ffffffffffffffffffffffffffffffffffffffff1673ffffffffffffffffffffffffffffffffffffffff1673ffffffffffffffffffffffffffffffffffffffff168152602001600282015481526020016003820180546114549061340a565b80601f01602080910402602001604051908101604052809291908181526020018280546114809061340a565b80156114cd5780601f106114a2576101008083540402835291602001916114cd565b820191906000526020600020905b8154815290600101906020018083116114b057829003601f168201915b5050505050815250508152602001906001019061136b565b50505050905090565b600560405180606001604052808581526020018473ffffffffffffffffffffffffffffffffffffffff168152602001838152509080600181540180825580915050600190039060005260206000209060030201600090919091909150600082015181600001908051906020019061156692919061242d565b5060208201518160010160006101000a81548173ffffffffffffffffffffffffffffffffffffffff021916908373ffffffffffffffffffffffffffffffffffffffff16021790555060408201518160020190805190602001906115ca92919061242d565b505050505050565b6060600060606000600585815481106115ee576115ed613514565b5b90600052602060002090600302016040518060600160405290816000820180546116179061340a565b80601f01602080910402602001604051908101604052809291908181526020018280546116439061340a565b80156116905780601f1061166557610100808354040283529160200191611690565b820191906000526020600020905b81548152906001019060200180831161167357829003601f168201915b505050505081526020016001820160009054906101000a900473ffffffffffffffffffffffffffffffffffffffff1673ffffffffffffffffffffffffffffffffffffffff1673ffffffffffffffffffffffffffffffffffffffff1681526020016002820180546116ff9061340a565b80601f016020809104026020016040519081016040528092919081815260200182805461172b9061340a565b80156117785780601f1061174d57610100808354040283529160200191611778565b820191906000526020600020905b81548152906001019060200180831161175b57829003601f168201915b5050505050815250509050806000015181602001518260400151935093509350509193909250565b600681815481106117b057600080fd5b90600052602060002090600402016000915090508060000160009054906101000a900473ffffffffffffffffffffffffffffffffffffffff16908060010160009054906101000a900473ffffffffffffffffffffffffffffffffffffffff169080600201805461181f9061340a565b80601f016020809104026020016040519081016040528092919081815260200182805461184b9061340a565b80156118985780601f1061186d57610100808354040283529160200191611898565b820191906000526020600020905b81548152906001019060200180831161187b57829003601f168201915b5050505050908060030180546118ad9061340a565b80601f01602080910402602001604051908101604052809291908181526020018280546118d99061340a565b80156119265780601f106118fb57610100808354040283529160200191611926565b820191906000526020600020905b81548152906001019060200180831161190957829003601f168201915b5050505050905084565b6000600160008473ffffffffffffffffffffffffffffffffffffffff1673ffffffffffffffffffffffffffffffffffffffff16815260200190815260200160002060008373ffffffffffffffffffffffffffffffffffffffff1673ffffffffffffffffffffffffffffffffffffffff16815260200190815260200160002054905092915050565b60606006805480602002602001604051908101604052809291908181526020016000905b82821015611bdd57838290600052602060002090600402016040518060800160405290816000820160009054906101000a900473ffffffffffffffffffffffffffffffffffffffff1673ffffffffffffffffffffffffffffffffffffffff1673ffffffffffffffffffffffffffffffffffffffff1681526020016001820160009054906101000a900473ffffffffffffffffffffffffffffffffffffffff1673ffffffffffffffffffffffffffffffffffffffff1673ffffffffffffffffffffffffffffffffffffffff168152602001600282018054611aba9061340a565b80601f0160208091040260200160405190810160405280929190818152602001828054611ae69061340a565b8015611b335780601f10611b0857610100808354040283529160200191611b33565b820191906000526020600020905b815481529060010190602001808311611b1657829003601f168201915b50505050508152602001600382018054611b4c9061340a565b80601f0160208091040260200160405190810160405280929190818152602001828054611b789061340a565b8015611bc55780601f10611b9a57610100808354040283529160200191611bc5565b820191906000526020600020905b815481529060010190602001808311611ba857829003601f168201915b505050505081525050815260200190600101906119db565b50505050905090565b600860009054906101000a900473ffffffffffffffffffffffffffffffffffffffff1681565b600033905090565b600073ffffffffffffffffffffffffffffffffffffffff168373ffffffffffffffffffffffffffffffffffffffff161415611c84576040517f08c379a0000000000000000000000000000000000000000000000000000000008152600401611c7b90613105565b60405180910390fd5b600073ffffffffffffffffffffffffffffffffffffffff168273ffffffffffffffffffffffffffffffffffffffff161415611cf4576040517f08c379a0000000000000000000000000000000000000000000000000000000008152600401611ceb90613045565b60405180910390fd5b80600160008573ffffffffffffffffffffffffffffffffffffffff1673ffffffffffffffffffffffffffffffffffffffff16815260200190815260200160002060008473ffffffffffffffffffffffffffffffffffffffff1673ffffffffffffffffffffffffffffffffffffffff168152602001908152602001600020819055508173ffffffffffffffffffffffffffffffffffffffff168373ffffffffffffffffffffffffffffffffffffffff167f8c5be1e5ebec7d5bd14f71427d1e84f3dd0314c0f7b2291e5b200ac8c7c3b92583604051611dd29190613165565b60405180910390a3505050565b6000611deb8484611930565b90507fffffffffffffffffffffffffffffffffffffffffffffffffffffffffffffffff8114611e655781811015611e57576040517f08c379a0000000000000000000000000000000000000000000000000000000008152600401611e4e90613065565b60405180910390fd5b611e648484848403611c14565b5b50505050565b600073ffffffffffffffffffffffffffffffffffffffff168373ffffffffffffffffffffffffffffffffffffffff161415611edb576040517f08c379a0000000000000000000000000000000000000000000000000000000008152600401611ed2906130e5565b60405180910390fd5b600073ffffffffffffffffffffffffffffffffffffffff168273ffffffffffffffffffffffffffffffffffffffff161415611f4b576040517f08c379a0000000000000000000000000000000000000000000000000000000008152600401611f4290613005565b60405180910390fd5b611f56838383612423565b60008060008573ffffffffffffffffffffffffffffffffffffffff1673ffffffffffffffffffffffffffffffffffffffff16815260200190815260200160002054905081811015611fdc576040517f08c379a0000000000000000000000000000000000000000000000000000000008152600401611fd390613085565b60405180910390fd5b8181036000808673ffffffffffffffffffffffffffffffffffffffff1673ffffffffffffffffffffffffffffffffffffffff16815260200190815260200160002081905550816000808573ffffffffffffffffffffffffffffffffffffffff1673ffffffffffffffffffffffffffffffffffffffff168152602001908152602001600020600082825461206f91906132e9565b925050819055508273ffffffffffffffffffffffffffffffffffffffff168473ffffffffffffffffffffffffffffffffffffffff167fddf252ad1be2c89b69c2b068fc378daa952ba7f163c4a11628f55a4df523b3ef846040516120d39190613165565b60405180910390a36120e6848484612428565b50505050565b600073ffffffffffffffffffffffffffffffffffffffff168273ffffffffffffffffffffffffffffffffffffffff16141561215c576040517f08c379a000000000000000000000000000000000000000000000000000000000815260040161215390613145565b60405180910390fd5b61216860008383612423565b806002600082825461217a91906132e9565b92505081905550806000808473ffffffffffffffffffffffffffffffffffffffff1673ffffffffffffffffffffffffffffffffffffffff16815260200190815260200160002060008282546121cf91906132e9565b925050819055508173ffffffffffffffffffffffffffffffffffffffff16600073ffffffffffffffffffffffffffffffffffffffff167fddf252ad1be2c89b69c2b068fc378daa952ba7f163c4a11628f55a4df523b3ef836040516122349190613165565b60405180910390a361224860008383612428565b5050565b600073ffffffffffffffffffffffffffffffffffffffff168273ffffffffffffffffffffffffffffffffffffffff1614156122bc576040517f08c379a00000000000000000000000000000000000000000000000000000000081526004016122b3906130c5565b60405180910390fd5b6122c882600083612423565b60008060008473ffffffffffffffffffffffffffffffffffffffff1673ffffffffffffffffffffffffffffffffffffffff1681526020019081526020016000205490508181101561234e576040517f08c379a000000000000000000000000000000000000000000000000000000000815260040161234590613025565b60405180910390fd5b8181036000808573ffffffffffffffffffffffffffffffffffffffff1673ffffffffffffffffffffffffffffffffffffffff1681526020019081526020016000208190555081600260008282546123a5919061333f565b92505081905550600073ffffffffffffffffffffffffffffffffffffffff168373ffffffffffffffffffffffffffffffffffffffff167fddf252ad1be2c89b69c2b068fc378daa952ba7f163c4a11628f55a4df523b3ef8460405161240a9190613165565b60405180910390a361241e83600084612428565b505050565b505050565b505050565b8280546124399061340a565b90600052602060002090601f01602090048101928261245b57600085556124a2565b82601f1061247457805160ff19168380011785556124a2565b828001600101855582156124a2579182015b828111156124a1578251825591602001919060010190612486565b5b5090506124af91906124b3565b5090565b5b808211156124cc5760008160009055506001016124b4565b5090565b60006124e36124de846131c0565b61319b565b9050828152602081018484840111156124ff576124fe613577565b5b61250a8482856133c8565b509392505050565b6000813590506125218161388a565b92915050565b600082601f83011261253c5761253b613572565b5b813561254c8482602086016124d0565b91505092915050565b600081359050612564816138a1565b92915050565b6000602082840312156125805761257f613581565b5b600061258e84828501612512565b91505092915050565b600080604083850312156125ae576125ad613581565b5b60006125bc85828601612512565b92505060206125cd85828601612512565b9150509250929050565b600080600080608085870312156125f1576125f0613581565b5b60006125ff87828801612512565b945050602061261087828801612512565b935050604085013567ffffffffffffffff8111156126315761263061357c565b5b61263d87828801612527565b925050606085013567ffffffffffffffff81111561265e5761265d61357c565b5b61266a87828801612527565b91505092959194509250565b60008060006060848603121561268f5761268e613581565b5b600061269d86828701612512565b93505060206126ae86828701612512565b92505060406126bf86828701612555565b9150509250925092565b600080604083850312156126e0576126df613581565b5b60006126ee85828601612512565b92505060206126ff85828601612555565b9150509250929050565b60008060006060848603121561272257612721613581565b5b600061273086828701612512565b935050602061274186828701612555565b925050604084013567ffffffffffffffff8111156127625761276161357c565b5b61276e86828701612527565b9150509250925092565b60006020828403121561278e5761278d613581565b5b600082013567ffffffffffffffff8111156127ac576127ab61357c565b5b6127b884828501612527565b91505092915050565b6000806000606084860312156127da576127d9613581565b5b600084013567ffffffffffffffff8111156127f8576127f761357c565b5b61280486828701612527565b935050602061281586828701612512565b925050604084013567ffffffffffffffff8111156128365761283561357c565b5b61284286828701612527565b9150509250925092565b60006020828403121561286257612861613581565b5b600061287084828501612555565b91505092915050565b60006128858383612ce4565b905092915050565b60006128998383612d4e565b905092915050565b60006128ad8383612db1565b905092915050565b6128be81613373565b82525050565b6128cd81613373565b82525050565b60006128de82613236565b6128e88185613289565b9350836020820285016128fa856131f1565b8060005b8581101561293657848403895281516129178582612879565b945061292283613262565b925060208a019950506001810190506128fe565b50829750879550505050505092915050565b600061295382613241565b61295d818561329a565b93508360208202850161296f85613201565b8060005b858110156129ab578484038952815161298c858261288d565b94506129978361326f565b925060208a01995050600181019050612973565b50829750879550505050505092915050565b60006129c88261324c565b6129d281856132ab565b9350836020820285016129e485613211565b8060005b85811015612a205784840389528151612a0185826128a1565b9450612a0c8361327c565b925060208a019950506001810190506129e8565b50829750879550505050505092915050565b612a3b81613385565b82525050565b6000612a4c82613257565b612a5681856132bc565b9350612a668185602086016133d7565b612a6f81613586565b840191505092915050565b6000612a8582613257565b612a8f81856132cd565b9350612a9f8185602086016133d7565b612aa881613586565b840191505092915050565b6000612abe82613257565b612ac881856132de565b9350612ad88185602086016133d7565b80840191505092915050565b60008154612af18161340a565b612afb81866132de565b94506001821660008114612b165760018114612b2757612b5a565b60ff19831686528186019350612b5a565b612b3085613221565b60005b83811015612b5257815481890152600182019150602081019050612b33565b838801955050505b50505092915050565b6000612b706023836132cd565b9150612b7b82613597565b604082019050919050565b6000612b936022836132cd565b9150612b9e826135e6565b604082019050919050565b6000612bb66022836132cd565b9150612bc182613635565b604082019050919050565b6000612bd9601d836132cd565b9150612be482613684565b602082019050919050565b6000612bfc6026836132cd565b9150612c07826136ad565b604082019050919050565b6000612c1f600a836132cd565b9150612c2a826136fc565b602082019050919050565b6000612c426021836132cd565b9150612c4d82613725565b604082019050919050565b6000612c656025836132cd565b9150612c7082613774565b604082019050919050565b6000612c886024836132cd565b9150612c93826137c3565b604082019050919050565b6000612cab6025836132cd565b9150612cb682613812565b604082019050919050565b6000612cce601f836132cd565b9150612cd982613861565b602082019050919050565b6000608083016000830151612cfc60008601826128b5565b506020830151612d0f60208601826128b5565b5060408301518482036040860152612d278282612a41565b91505060608301518482036060860152612d418282612a41565b9150508091505092915050565b6000608083016000830151612d6660008601826128b5565b506020830151612d7960208601826128b5565b506040830151612d8c6040860182612e08565b5060608301518482036060860152612da48282612a41565b9150508091505092915050565b60006060830160008301518482036000860152612dce8282612a41565b9150506020830151612de360208601826128b5565b5060408301518482036040860152612dfb8282612a41565b9150508091505092915050565b612e11816133b1565b82525050565b612e20816133b1565b82525050565b612e2f816133bb565b82525050565b6000612e418284612ab3565b915081905092915050565b6000612e588284612ae4565b915081905092915050565b6000602082019050612e7860008301846128c4565b92915050565b6000608082019050612e9360008301876128c4565b612ea060208301866128c4565b8181036040830152612eb28185612a7a565b90508181036060830152612ec68184612a7a565b905095945050505050565b6000608082019050612ee660008301876128c4565b612ef360208301866128c4565b612f006040830185612e17565b8181036060830152612f128184612a7a565b905095945050505050565b60006020820190508181036000830152612f3781846128d3565b905092915050565b60006020820190508181036000830152612f598184612948565b905092915050565b60006020820190508181036000830152612f7b81846129bd565b905092915050565b6000602082019050612f986000830184612a32565b92915050565b60006020820190508181036000830152612fb88184612a7a565b905092915050565b60006060820190508181036000830152612fda8186612a7a565b9050612fe960208301856128c4565b8181036040830152612ffb8184612a7a565b9050949350505050565b6000602082019050818103600083015261301e81612b63565b9050919050565b6000602082019050818103600083015261303e81612b86565b9050919050565b6000602082019050818103600083015261305e81612ba9565b9050919050565b6000602082019050818103600083015261307e81612bcc565b9050919050565b6000602082019050818103600083015261309e81612bef565b9050919050565b600060208201905081810360008301526130be81612c12565b9050919050565b600060208201905081810360008301526130de81612c35565b9050919050565b600060208201905081810360008301526130fe81612c58565b9050919050565b6000602082019050818103600083015261311e81612c7b565b9050919050565b6000602082019050818103600083015261313e81612c9e565b9050919050565b6000602082019050818103600083015261315e81612cc1565b9050919050565b600060208201905061317a6000830184612e17565b92915050565b60006020820190506131956000830184612e26565b92915050565b60006131a56131b6565b90506131b1828261343c565b919050565b6000604051905090565b600067ffffffffffffffff8211156131db576131da613543565b5b6131e482613586565b9050602081019050919050565b6000819050602082019050919050565b6000819050602082019050919050565b6000819050602082019050919050565b60008190508160005260206000209050919050565b600081519050919050565b600081519050919050565b600081519050919050565b600081519050919050565b6000602082019050919050565b6000602082019050919050565b6000602082019050919050565b600082825260208201905092915050565b600082825260208201905092915050565b600082825260208201905092915050565b600082825260208201905092915050565b600082825260208201905092915050565b600081905092915050565b60006132f4826133b1565b91506132ff836133b1565b9250827fffffffffffffffffffffffffffffffffffffffffffffffffffffffffffffffff03821115613334576133336134b6565b5b828201905092915050565b600061334a826133b1565b9150613355836133b1565b925082821015613368576133676134b6565b5b828203905092915050565b600061337e82613391565b9050919050565b60008115159050919050565b600073ffffffffffffffffffffffffffffffffffffffff82169050919050565b6000819050919050565b600060ff82169050919050565b82818337600083830152505050565b60005b838110156133f55780820151818401526020810190506133da565b83811115613404576000848401525b50505050565b6000600282049050600182168061342257607f821691505b60208210811415613436576134356134e5565b5b50919050565b61344582613586565b810181811067ffffffffffffffff8211171561346457613463613543565b5b80604052505050565b6000613478826133b1565b91507fffffffffffffffffffffffffffffffffffffffffffffffffffffffffffffffff8214156134ab576134aa6134b6565b5b600182019050919050565b7f4e487b7100000000000000000000000000000000000000000000000000000000600052601160045260246000fd5b7f4e487b7100000000000000000000000000000000000000000000000000000000600052602260045260246000fd5b7f4e487b7100000000000000000000000000000000000000000000000000000000600052603260045260246000fd5b7f4e487b7100000000000000000000000000000000000000000000000000000000600052604160045260246000fd5b600080fd5b600080fd5b600080fd5b600080fd5b6000601f19601f8301169050919050565b7f45524332303a207472616e7366657220746f20746865207a65726f206164647260008201527f6573730000000000000000000000000000000000000000000000000000000000602082015250565b7f45524332303a206275726e20616d6f756e7420657863656564732062616c616e60008201527f6365000000000000000000000000000000000000000000000000000000000000602082015250565b7f45524332303a20617070726f766520746f20746865207a65726f20616464726560008201527f7373000000000000000000000000000000000000000000000000000000000000602082015250565b7f45524332303a20696e73756666696369656e7420616c6c6f77616e6365000000600082015250565b7f45524332303a207472616e7366657220616d6f756e742065786365656473206260008201527f616c616e63650000000000000000000000000000000000000000000000000000602082015250565b7f6f6e6c792061646d696e00000000000000000000000000000000000000000000600082015250565b7f45524332303a206275726e2066726f6d20746865207a65726f2061646472657360008201527f7300000000000000000000000000000000000000000000000000000000000000602082015250565b7f45524332303a207472616e736665722066726f6d20746865207a65726f20616460008201527f6472657373000000000000000000000000000000000000000000000000000000602082015250565b7f45524332303a20617070726f76652066726f6d20746865207a65726f2061646460008201527f7265737300000000000000000000000000000000000000000000000000000000602082015250565b7f45524332303a2064656372656173656420616c6c6f77616e63652062656c6f7760008201527f207a65726f000000000000000000000000000000000000000000000000000000602082015250565b7f45524332303a206d696e7420746f20746865207a65726f206164647265737300600082015250565b61389381613373565b811461389e57600080fd5b50565b6138aa816133b1565b81146138b557600080fd5b5056fea2646970667358221220eddb662abff811833135e8b8d399f7ab26824dc28c850fadfd2e50904c828dd464736f6c63430008050033",
  "immutableReferences": {},
  "source": "// SPDX-License-Identifier: MIT\r\n\r\npragma solidity ^0.8.5;\r\n\r\n\r\nimport \"@openzeppelin/contracts/token/ERC20/ERC20.sol\";\r\n\r\n\r\ncontract HAT_TOKEN is ERC20 {\r\n    \r\n    \r\n    \r\n    struct User{\r\n        string name;\r\n        address user_crypto_id;\r\n        string password;\r\n    }\r\n    \r\n    \r\n    struct Transaction{\r\n        address sender;\r\n        address reciver;\r\n        uint256 amount;\r\n        string transaction_type;\r\n    }\r\n    \r\n    \r\n    struct Contact{\r\n        address owner;\r\n        address contact_name;\r\n        string name;\r\n        string contact_type;\r\n    }\r\n\r\n    //event NewUser( string name, address user_crypto_id, string password);\r\n    \r\n    User[] public Users;\r\n    Contact[] public Contacts;\r\n    Transaction[] public Transactions;\r\n\r\n    \r\n\r\n\r\n    \r\n    address public admin;\r\n    uint256 total_hat_burnt;\r\n    \r\n    constructor() ERC20('Hitaya Token', 'HAT'){\r\n        _mint(msg.sender, 1000000000 * 10 ** 18);\r\n    }\r\n    \r\n    \r\n    function mint(address to, uint amount) external {\r\n        require(msg.sender==admin, 'only admin');\r\n        _mint(to, amount);\r\n    }\r\n    \r\n    \r\n    function burn(uint amount) external {\r\n        total_hat_burnt+=amount;\r\n        _burn(msg.sender, amount);\r\n    }\r\n    \r\n    \r\n    function change_admin(address _address) public{\r\n        admin=_address;\r\n    }\r\n    \r\n\r\n    function login(string memory _password) public view returns (bool){\r\n        for (uint i=0;i<Users.length;i++){\r\n            if (Users[i].user_crypto_id==msg.sender && keccak256(abi.encodePacked(Users[i].password))==keccak256(abi.encodePacked(_password))){\r\n                return true;\r\n            }\r\n        }\r\n        return false;\r\n    }\r\n    \r\n    \r\n    function hat_burnt() public view returns(uint256){\r\n        return (total_hat_burnt);\r\n    }\r\n    \r\n\r\n    function _create_New_User(string memory _name, address _user_crypto_id, string memory _password) public {\r\n        Users.push(User( _name, _user_crypto_id, _password));   \r\n    }\r\n    \r\n    \r\n    function _create_New_Contact(address _owner, address _contact_name, string memory _name, string memory _contact_type) public {\r\n        Contacts.push(Contact( _owner, _contact_name, _name,_contact_type));\r\n    }\r\n    \r\n\r\n    function transfer(address recipient, uint256 amount, string memory _trans_type) public virtual returns (bool) {\r\n        _transfer(msg.sender, recipient, amount);\r\n        Transactions.push(Transaction( msg.sender, recipient, amount, _trans_type));\r\n        return true;\r\n    }\r\n    \r\n    \r\n    function airdrop(address recipient, uint256 amount) public virtual returns (bool) {\r\n        _transfer(msg.sender, recipient, amount);\r\n        Transactions.push(Transaction( msg.sender, recipient, amount, \"AIR DROP\"));\r\n        return true;\r\n    }\r\n    \r\n    \r\n    function user_view(uint id) public view returns (string memory ,address , string memory)\r\n    {\r\n        User memory p = Users[id];\r\n        return (p.name,p.user_crypto_id,p.password); \r\n    }\r\n\r\n    \r\n    \r\n    function user_view() public view returns (User[] memory)\r\n    {\r\n\r\n        return (Users); \r\n    }\r\n    \r\n    \r\n    function transaction_view() public view returns (Transaction[] memory)\r\n    {\r\n\r\n        return (Transactions); \r\n    }\r\n    \r\n    \r\n    function contacts_view() public view returns (Contact[] memory)\r\n    {\r\n\r\n        return (Contacts);\r\n    }\r\n}\r\n",
  "sourcePath": "C:\\Users\\ZEUS\\Desktop\\Intelegix Labs\\Hitaya_Chain\\truffle\\contracts\\HAT_TOKEN.sol",
  "compiler": {
    "name": "solc",
    "version": "0.8.5+commit.a4f2e591.Emscripten.clang"
  },
  "schemaVersion": "3.4.7",
  "updatedAt": "2022-05-26T01:54:34.298Z",
  "devdoc": {
    "kind": "dev",
    "methods": {
      "allowance(address,address)": {
        "details": "See {IERC20-allowance}."
      },
      "approve(address,uint256)": {
        "details": "See {IERC20-approve}. NOTE: If `amount` is the maximum `uint256`, the allowance is not updated on `transferFrom`. This is semantically equivalent to an infinite approval. Requirements: - `spender` cannot be the zero address."
      },
      "balanceOf(address)": {
        "details": "See {IERC20-balanceOf}."
      },
      "decimals()": {
        "details": "Returns the number of decimals used to get its user representation. For example, if `decimals` equals `2`, a balance of `505` tokens should be displayed to a user as `5.05` (`505 / 10 ** 2`). Tokens usually opt for a value of 18, imitating the relationship between Ether and Wei. This is the value {ERC20} uses, unless this function is overridden; NOTE: This information is only used for _display_ purposes: it in no way affects any of the arithmetic of the contract, including {IERC20-balanceOf} and {IERC20-transfer}."
      },
      "decreaseAllowance(address,uint256)": {
        "details": "Atomically decreases the allowance granted to `spender` by the caller. This is an alternative to {approve} that can be used as a mitigation for problems described in {IERC20-approve}. Emits an {Approval} event indicating the updated allowance. Requirements: - `spender` cannot be the zero address. - `spender` must have allowance for the caller of at least `subtractedValue`."
      },
      "increaseAllowance(address,uint256)": {
        "details": "Atomically increases the allowance granted to `spender` by the caller. This is an alternative to {approve} that can be used as a mitigation for problems described in {IERC20-approve}. Emits an {Approval} event indicating the updated allowance. Requirements: - `spender` cannot be the zero address."
      },
      "name()": {
        "details": "Returns the name of the token."
      },
      "symbol()": {
        "details": "Returns the symbol of the token, usually a shorter version of the name."
      },
      "totalSupply()": {
        "details": "See {IERC20-totalSupply}."
      },
      "transfer(address,uint256)": {
        "details": "See {IERC20-transfer}. Requirements: - `to` cannot be the zero address. - the caller must have a balance of at least `amount`."
      },
      "transferFrom(address,address,uint256)": {
        "details": "See {IERC20-transferFrom}. Emits an {Approval} event indicating the updated allowance. This is not required by the EIP. See the note at the beginning of {ERC20}. NOTE: Does not update the allowance if the current allowance is the maximum `uint256`. Requirements: - `from` and `to` cannot be the zero address. - `from` must have a balance of at least `amount`. - the caller must have allowance for ``from``'s tokens of at least `amount`."
      }
    },
    "version": 1
  },
  "userdoc": {
    "kind": "user",
    "methods": {},
    "version": 1
  }
}